{
	"contracts/nft-market.sol": {
		"Market": {
			"abi": [
				{
					"inputs": [
						{
							"internalType": "address",
							"name": "_erc20",
							"type": "address"
						},
						{
							"internalType": "address",
							"name": "_erc721",
							"type": "address"
						}
					],
					"stateMutability": "nonpayable",
					"type": "constructor"
				},
				{
					"anonymous": false,
					"inputs": [
						{
							"indexed": false,
							"internalType": "address",
							"name": "seller",
							"type": "address"
						},
						{
							"indexed": false,
							"internalType": "address",
							"name": "buyer",
							"type": "address"
						},
						{
							"indexed": false,
							"internalType": "uint256",
							"name": "tokenId",
							"type": "uint256"
						},
						{
							"indexed": false,
							"internalType": "uint256",
							"name": "price",
							"type": "uint256"
						}
					],
					"name": "Deal",
					"type": "event"
				},
				{
					"anonymous": false,
					"inputs": [
						{
							"indexed": false,
							"internalType": "address",
							"name": "seller",
							"type": "address"
						},
						{
							"indexed": false,
							"internalType": "uint256",
							"name": "tokenId",
							"type": "uint256"
						},
						{
							"indexed": false,
							"internalType": "uint256",
							"name": "price",
							"type": "uint256"
						}
					],
					"name": "NewOrder",
					"type": "event"
				},
				{
					"anonymous": false,
					"inputs": [
						{
							"indexed": false,
							"internalType": "address",
							"name": "seller",
							"type": "address"
						},
						{
							"indexed": false,
							"internalType": "uint256",
							"name": "tokenId",
							"type": "uint256"
						}
					],
					"name": "OrderCancelled",
					"type": "event"
				},
				{
					"anonymous": false,
					"inputs": [
						{
							"indexed": false,
							"internalType": "address",
							"name": "seller",
							"type": "address"
						},
						{
							"indexed": false,
							"internalType": "uint256",
							"name": "tokenId",
							"type": "uint256"
						},
						{
							"indexed": false,
							"internalType": "uint256",
							"name": "previousPrice",
							"type": "uint256"
						},
						{
							"indexed": false,
							"internalType": "uint256",
							"name": "newPrice",
							"type": "uint256"
						}
					],
					"name": "PriceChanged",
					"type": "event"
				},
				{
					"inputs": [
						{
							"internalType": "uint256",
							"name": "_tokenId",
							"type": "uint256"
						}
					],
					"name": "buy",
					"outputs": [],
					"stateMutability": "nonpayable",
					"type": "function"
				},
				{
					"inputs": [
						{
							"internalType": "uint256",
							"name": "_tokenId",
							"type": "uint256"
						}
					],
					"name": "cancelOrder",
					"outputs": [],
					"stateMutability": "nonpayable",
					"type": "function"
				},
				{
					"inputs": [
						{
							"internalType": "uint256",
							"name": "_tokenId",
							"type": "uint256"
						},
						{
							"internalType": "uint256",
							"name": "_newPrice",
							"type": "uint256"
						}
					],
					"name": "changePrice",
					"outputs": [],
					"stateMutability": "nonpayable",
					"type": "function"
				},
				{
					"inputs": [],
					"name": "erc20",
					"outputs": [
						{
							"internalType": "contract IERC20",
							"name": "",
							"type": "address"
						}
					],
					"stateMutability": "view",
					"type": "function"
				},
				{
					"inputs": [],
					"name": "erc721",
					"outputs": [
						{
							"internalType": "contract IERC721",
							"name": "",
							"type": "address"
						}
					],
					"stateMutability": "view",
					"type": "function"
				},
				{
					"inputs": [
						{
							"internalType": "uint256",
							"name": "",
							"type": "uint256"
						}
					],
					"name": "idToOrderIndex",
					"outputs": [
						{
							"internalType": "uint256",
							"name": "",
							"type": "uint256"
						}
					],
					"stateMutability": "view",
					"type": "function"
				},
				{
					"inputs": [
						{
							"internalType": "address",
							"name": "operator",
							"type": "address"
						},
						{
							"internalType": "address",
							"name": "from",
							"type": "address"
						},
						{
							"internalType": "uint256",
							"name": "tokenId",
							"type": "uint256"
						},
						{
							"internalType": "bytes",
							"name": "data",
							"type": "bytes"
						}
					],
					"name": "onERC721Received",
					"outputs": [
						{
							"internalType": "bytes4",
							"name": "",
							"type": "bytes4"
						}
					],
					"stateMutability": "nonpayable",
					"type": "function"
				},
				{
					"inputs": [
						{
							"internalType": "uint256",
							"name": "",
							"type": "uint256"
						}
					],
					"name": "orderOfId",
					"outputs": [
						{
							"internalType": "address",
							"name": "seller",
							"type": "address"
						},
						{
							"internalType": "uint256",
							"name": "tokenId",
							"type": "uint256"
						},
						{
							"internalType": "uint256",
							"name": "price",
							"type": "uint256"
						}
					],
					"stateMutability": "view",
					"type": "function"
				},
				{
					"inputs": [
						{
							"internalType": "uint256",
							"name": "",
							"type": "uint256"
						}
					],
					"name": "orders",
					"outputs": [
						{
							"internalType": "address",
							"name": "seller",
							"type": "address"
						},
						{
							"internalType": "uint256",
							"name": "tokenId",
							"type": "uint256"
						},
						{
							"internalType": "uint256",
							"name": "price",
							"type": "uint256"
						}
					],
					"stateMutability": "view",
					"type": "function"
				},
				{
					"inputs": [
						{
							"internalType": "bytes",
							"name": "_bytes",
							"type": "bytes"
						},
						{
							"internalType": "uint256",
							"name": "_start",
							"type": "uint256"
						}
					],
					"name": "toUint256",
					"outputs": [
						{
							"internalType": "uint256",
							"name": "",
							"type": "uint256"
						}
					],
					"stateMutability": "pure",
					"type": "function"
				}
			],
			"devdoc": {
				"kind": "dev",
				"methods": {},
				"version": 1
			},
			"evm": {
				"assembly": "    /* \"contracts/nft-market.sol\":172:4440  contract Market {... */\n  mstore(0x40, 0x80)\n    /* \"contracts/nft-market.sol\":1212:1442  constructor(address _erc20, address _erc721) {... */\n  callvalue\n  dup1\n  iszero\n  tag_1\n  jumpi\n  0x00\n  dup1\n  revert\ntag_1:\n  pop\n  mload(0x40)\n  sub(codesize, bytecodeSize)\n  dup1\n  bytecodeSize\n  dup4\n  codecopy\n  dup2\n  dup2\n  add\n  0x40\n  mstore\n  dup2\n  add\n  swap1\n  tag_2\n  swap2\n  swap1\n  tag_3\n  jump\t// in\ntag_2:\n    /* \"contracts/nft-market.sol\":1293:1294  0 */\n  0x00\n    /* \"contracts/nft-market.sol\":1275:1295  _erc20 != address(0) */\n  0xffffffffffffffffffffffffffffffffffffffff\n  and\n    /* \"contracts/nft-market.sol\":1275:1281  _erc20 */\n  dup3\n    /* \"contracts/nft-market.sol\":1275:1295  _erc20 != address(0) */\n  0xffffffffffffffffffffffffffffffffffffffff\n  and\n  sub\n    /* \"contracts/nft-market.sol\":1267:1312  require(_erc20 != address(0), \"zero address\") */\n  tag_6\n  jumpi\n  mload(0x40)\n  0x08c379a000000000000000000000000000000000000000000000000000000000\n  dup2\n  mstore\n  0x04\n  add\n  tag_7\n  swap1\n  tag_8\n  jump\t// in\ntag_7:\n  mload(0x40)\n  dup1\n  swap2\n  sub\n  swap1\n  revert\ntag_6:\n    /* \"contracts/nft-market.sol\":1349:1350  0 */\n  0x00\n    /* \"contracts/nft-market.sol\":1330:1351  _erc721 != address(0) */\n  0xffffffffffffffffffffffffffffffffffffffff\n  and\n    /* \"contracts/nft-market.sol\":1330:1337  _erc721 */\n  dup2\n    /* \"contracts/nft-market.sol\":1330:1351  _erc721 != address(0) */\n  0xffffffffffffffffffffffffffffffffffffffff\n  and\n  sub\n    /* \"contracts/nft-market.sol\":1322:1368  require(_erc721 != address(0), \"zero address\") */\n  tag_9\n  jumpi\n  mload(0x40)\n  0x08c379a000000000000000000000000000000000000000000000000000000000\n  dup2\n  mstore\n  0x04\n  add\n  tag_10\n  swap1\n  tag_8\n  jump\t// in\ntag_10:\n  mload(0x40)\n  dup1\n  swap2\n  sub\n  swap1\n  revert\ntag_9:\n    /* \"contracts/nft-market.sol\":1393:1399  _erc20 */\n  dup2\n    /* \"contracts/nft-market.sol\":1378:1383  erc20 */\n  0x00\n  dup1\n    /* \"contracts/nft-market.sol\":1378:1400  erc20 = IERC20(_erc20) */\n  0x0100\n  exp\n  dup2\n  sload\n  dup2\n  0xffffffffffffffffffffffffffffffffffffffff\n  mul\n  not\n  and\n  swap1\n  dup4\n  0xffffffffffffffffffffffffffffffffffffffff\n  and\n  mul\n  or\n  swap1\n  sstore\n  pop\n    /* \"contracts/nft-market.sol\":1427:1434  _erc721 */\n  dup1\n    /* \"contracts/nft-market.sol\":1410:1416  erc721 */\n  0x01\n  0x00\n    /* \"contracts/nft-market.sol\":1410:1435  erc721 = IERC721(_erc721) */\n  0x0100\n  exp\n  dup2\n  sload\n  dup2\n  0xffffffffffffffffffffffffffffffffffffffff\n  mul\n  not\n  and\n  swap1\n  dup4\n  0xffffffffffffffffffffffffffffffffffffffff\n  and\n  mul\n  or\n  swap1\n  sstore\n  pop\n    /* \"contracts/nft-market.sol\":1212:1442  constructor(address _erc20, address _erc721) {... */\n  pop\n  pop\n    /* \"contracts/nft-market.sol\":172:4440  contract Market {... */\n  jump(tag_11)\n    /* \"#utility.yul\":88:205   */\ntag_13:\n    /* \"#utility.yul\":197:198   */\n  0x00\n    /* \"#utility.yul\":194:195   */\n  dup1\n    /* \"#utility.yul\":187:199   */\n  revert\n    /* \"#utility.yul\":334:460   */\ntag_15:\n    /* \"#utility.yul\":371:378   */\n  0x00\n    /* \"#utility.yul\":411:453   */\n  0xffffffffffffffffffffffffffffffffffffffff\n    /* \"#utility.yul\":404:409   */\n  dup3\n    /* \"#utility.yul\":400:454   */\n  and\n    /* \"#utility.yul\":389:454   */\n  swap1\n  pop\n    /* \"#utility.yul\":334:460   */\n  swap2\n  swap1\n  pop\n  jump\t// out\n    /* \"#utility.yul\":466:562   */\ntag_16:\n    /* \"#utility.yul\":503:510   */\n  0x00\n    /* \"#utility.yul\":532:556   */\n  tag_28\n    /* \"#utility.yul\":550:555   */\n  dup3\n    /* \"#utility.yul\":532:556   */\n  tag_15\n  jump\t// in\ntag_28:\n    /* \"#utility.yul\":521:556   */\n  swap1\n  pop\n    /* \"#utility.yul\":466:562   */\n  swap2\n  swap1\n  pop\n  jump\t// out\n    /* \"#utility.yul\":568:690   */\ntag_17:\n    /* \"#utility.yul\":641:665   */\n  tag_30\n    /* \"#utility.yul\":659:664   */\n  dup2\n    /* \"#utility.yul\":641:665   */\n  tag_16\n  jump\t// in\ntag_30:\n    /* \"#utility.yul\":634:639   */\n  dup2\n    /* \"#utility.yul\":631:666   */\n  eq\n    /* \"#utility.yul\":621:684   */\n  tag_31\n  jumpi\n    /* \"#utility.yul\":680:681   */\n  0x00\n    /* \"#utility.yul\":677:678   */\n  dup1\n    /* \"#utility.yul\":670:682   */\n  revert\n    /* \"#utility.yul\":621:684   */\ntag_31:\n    /* \"#utility.yul\":568:690   */\n  pop\n  jump\t// out\n    /* \"#utility.yul\":696:839   */\ntag_18:\n    /* \"#utility.yul\":753:758   */\n  0x00\n    /* \"#utility.yul\":784:790   */\n  dup2\n    /* \"#utility.yul\":778:791   */\n  mload\n    /* \"#utility.yul\":769:791   */\n  swap1\n  pop\n    /* \"#utility.yul\":800:833   */\n  tag_33\n    /* \"#utility.yul\":827:832   */\n  dup2\n    /* \"#utility.yul\":800:833   */\n  tag_17\n  jump\t// in\ntag_33:\n    /* \"#utility.yul\":696:839   */\n  swap3\n  swap2\n  pop\n  pop\n  jump\t// out\n    /* \"#utility.yul\":845:1352   */\ntag_3:\n    /* \"#utility.yul\":924:930   */\n  0x00\n    /* \"#utility.yul\":932:938   */\n  dup1\n    /* \"#utility.yul\":981:983   */\n  0x40\n    /* \"#utility.yul\":969:978   */\n  dup4\n    /* \"#utility.yul\":960:967   */\n  dup6\n    /* \"#utility.yul\":956:979   */\n  sub\n    /* \"#utility.yul\":952:984   */\n  slt\n    /* \"#utility.yul\":949:1068   */\n  iszero\n  tag_35\n  jumpi\n    /* \"#utility.yul\":987:1066   */\n  tag_36\n  tag_13\n  jump\t// in\ntag_36:\n    /* \"#utility.yul\":949:1068   */\ntag_35:\n    /* \"#utility.yul\":1107:1108   */\n  0x00\n    /* \"#utility.yul\":1132:1196   */\n  tag_37\n    /* \"#utility.yul\":1188:1195   */\n  dup6\n    /* \"#utility.yul\":1179:1185   */\n  dup3\n    /* \"#utility.yul\":1168:1177   */\n  dup7\n    /* \"#utility.yul\":1164:1186   */\n  add\n    /* \"#utility.yul\":1132:1196   */\n  tag_18\n  jump\t// in\ntag_37:\n    /* \"#utility.yul\":1122:1196   */\n  swap3\n  pop\n    /* \"#utility.yul\":1078:1206   */\n  pop\n    /* \"#utility.yul\":1245:1247   */\n  0x20\n    /* \"#utility.yul\":1271:1335   */\n  tag_38\n    /* \"#utility.yul\":1327:1334   */\n  dup6\n    /* \"#utility.yul\":1318:1324   */\n  dup3\n    /* \"#utility.yul\":1307:1316   */\n  dup7\n    /* \"#utility.yul\":1303:1325   */\n  add\n    /* \"#utility.yul\":1271:1335   */\n  tag_18\n  jump\t// in\ntag_38:\n    /* \"#utility.yul\":1261:1335   */\n  swap2\n  pop\n    /* \"#utility.yul\":1216:1345   */\n  pop\n    /* \"#utility.yul\":845:1352   */\n  swap3\n  pop\n  swap3\n  swap1\n  pop\n  jump\t// out\n    /* \"#utility.yul\":1358:1527   */\ntag_19:\n    /* \"#utility.yul\":1442:1453   */\n  0x00\n    /* \"#utility.yul\":1476:1482   */\n  dup3\n    /* \"#utility.yul\":1471:1474   */\n  dup3\n    /* \"#utility.yul\":1464:1483   */\n  mstore\n    /* \"#utility.yul\":1516:1520   */\n  0x20\n    /* \"#utility.yul\":1511:1514   */\n  dup3\n    /* \"#utility.yul\":1507:1521   */\n  add\n    /* \"#utility.yul\":1492:1521   */\n  swap1\n  pop\n    /* \"#utility.yul\":1358:1527   */\n  swap3\n  swap2\n  pop\n  pop\n  jump\t// out\n    /* \"#utility.yul\":1533:1695   */\ntag_20:\n    /* \"#utility.yul\":1673:1687   */\n  0x7a65726f20616464726573730000000000000000000000000000000000000000\n    /* \"#utility.yul\":1669:1670   */\n  0x00\n    /* \"#utility.yul\":1661:1667   */\n  dup3\n    /* \"#utility.yul\":1657:1671   */\n  add\n    /* \"#utility.yul\":1650:1688   */\n  mstore\n    /* \"#utility.yul\":1533:1695   */\n  pop\n  jump\t// out\n    /* \"#utility.yul\":1701:2067   */\ntag_21:\n    /* \"#utility.yul\":1843:1846   */\n  0x00\n    /* \"#utility.yul\":1864:1931   */\n  tag_42\n    /* \"#utility.yul\":1928:1930   */\n  0x0c\n    /* \"#utility.yul\":1923:1926   */\n  dup4\n    /* \"#utility.yul\":1864:1931   */\n  tag_19\n  jump\t// in\ntag_42:\n    /* \"#utility.yul\":1857:1931   */\n  swap2\n  pop\n    /* \"#utility.yul\":1940:2033   */\n  tag_43\n    /* \"#utility.yul\":2029:2032   */\n  dup3\n    /* \"#utility.yul\":1940:2033   */\n  tag_20\n  jump\t// in\ntag_43:\n    /* \"#utility.yul\":2058:2060   */\n  0x20\n    /* \"#utility.yul\":2053:2056   */\n  dup3\n    /* \"#utility.yul\":2049:2061   */\n  add\n    /* \"#utility.yul\":2042:2061   */\n  swap1\n  pop\n    /* \"#utility.yul\":1701:2067   */\n  swap2\n  swap1\n  pop\n  jump\t// out\n    /* \"#utility.yul\":2073:2492   */\ntag_8:\n    /* \"#utility.yul\":2239:2243   */\n  0x00\n    /* \"#utility.yul\":2277:2279   */\n  0x20\n    /* \"#utility.yul\":2266:2275   */\n  dup3\n    /* \"#utility.yul\":2262:2280   */\n  add\n    /* \"#utility.yul\":2254:2280   */\n  swap1\n  pop\n    /* \"#utility.yul\":2326:2335   */\n  dup2\n    /* \"#utility.yul\":2320:2324   */\n  dup2\n    /* \"#utility.yul\":2316:2336   */\n  sub\n    /* \"#utility.yul\":2312:2313   */\n  0x00\n    /* \"#utility.yul\":2301:2310   */\n  dup4\n    /* \"#utility.yul\":2297:2314   */\n  add\n    /* \"#utility.yul\":2290:2337   */\n  mstore\n    /* \"#utility.yul\":2354:2485   */\n  tag_45\n    /* \"#utility.yul\":2480:2484   */\n  dup2\n    /* \"#utility.yul\":2354:2485   */\n  tag_21\n  jump\t// in\ntag_45:\n    /* \"#utility.yul\":2346:2485   */\n  swap1\n  pop\n    /* \"#utility.yul\":2073:2492   */\n  swap2\n  swap1\n  pop\n  jump\t// out\n    /* \"contracts/nft-market.sol\":172:4440  contract Market {... */\ntag_11:\n  dataSize(sub_0)\n  dup1\n  dataOffset(sub_0)\n  0x00\n  codecopy\n  0x00\n  return\nstop\n\nsub_0: assembly {\n        /* \"contracts/nft-market.sol\":172:4440  contract Market {... */\n      mstore(0x40, 0x80)\n      callvalue\n      dup1\n      iszero\n      tag_1\n      jumpi\n      0x00\n      dup1\n      revert\n    tag_1:\n      pop\n      jumpi(tag_2, lt(calldatasize, 0x04))\n      shr(0xe0, calldataload(0x00))\n      dup1\n      0xb3de019c\n      gt\n      tag_13\n      jumpi\n      dup1\n      0xb3de019c\n      eq\n      tag_8\n      jumpi\n      dup1\n      0xb5cdf924\n      eq\n      tag_9\n      jumpi\n      dup1\n      0xbca6ce64\n      eq\n      tag_10\n      jumpi\n      dup1\n      0xd96a094a\n      eq\n      tag_11\n      jumpi\n      dup1\n      0xda694df0\n      eq\n      tag_12\n      jumpi\n      jump(tag_2)\n    tag_13:\n      dup1\n      0x150b7a02\n      eq\n      tag_3\n      jumpi\n      dup1\n      0x394a9077\n      eq\n      tag_4\n      jumpi\n      dup1\n      0x514fcac7\n      eq\n      tag_5\n      jumpi\n      dup1\n      0x785e9e86\n      eq\n      tag_6\n      jumpi\n      dup1\n      0xa85c38ef\n      eq\n      tag_7\n      jumpi\n    tag_2:\n      0x00\n      dup1\n      revert\n        /* \"contracts/nft-market.sol\":3011:3602  function onERC721Received(... */\n    tag_3:\n      tag_14\n      0x04\n      dup1\n      calldatasize\n      sub\n      dup2\n      add\n      swap1\n      tag_15\n      swap2\n      swap1\n      tag_16\n      jump\t// in\n    tag_15:\n      tag_17\n      jump\t// in\n    tag_14:\n      mload(0x40)\n      tag_18\n      swap2\n      swap1\n      tag_19\n      jump\t// in\n    tag_18:\n      mload(0x40)\n      dup1\n      swap2\n      sub\n      swap1\n      return\n        /* \"contracts/nft-market.sol\":511:553  mapping(uint256 => Order) public orderOfId */\n    tag_4:\n      tag_20\n      0x04\n      dup1\n      calldatasize\n      sub\n      dup2\n      add\n      swap1\n      tag_21\n      swap2\n      swap1\n      tag_22\n      jump\t// in\n    tag_21:\n      tag_23\n      jump\t// in\n    tag_20:\n      mload(0x40)\n      tag_24\n      swap4\n      swap3\n      swap2\n      swap1\n      tag_25\n      jump\t// in\n    tag_24:\n      mload(0x40)\n      dup1\n      swap2\n      sub\n      swap1\n      return\n        /* \"contracts/nft-market.sol\":1989:2298  function cancelOrder(uint256 _tokenId) external {... */\n    tag_5:\n      tag_26\n      0x04\n      dup1\n      calldatasize\n      sub\n      dup2\n      add\n      swap1\n      tag_27\n      swap2\n      swap1\n      tag_22\n      jump\t// in\n    tag_27:\n      tag_28\n      jump\t// in\n    tag_26:\n      stop\n        /* \"contracts/nft-market.sol\":194:213  IERC20 public erc20 */\n    tag_6:\n      tag_29\n      tag_30\n      jump\t// in\n    tag_29:\n      mload(0x40)\n      tag_31\n      swap2\n      swap1\n      tag_32\n      jump\t// in\n    tag_31:\n      mload(0x40)\n      dup1\n      swap2\n      sub\n      swap1\n      return\n        /* \"contracts/nft-market.sol\":628:649  Order[] public orders */\n    tag_7:\n      tag_33\n      0x04\n      dup1\n      calldatasize\n      sub\n      dup2\n      add\n      swap1\n      tag_34\n      swap2\n      swap1\n      tag_22\n      jump\t// in\n    tag_34:\n      tag_35\n      jump\t// in\n    tag_33:\n      mload(0x40)\n      tag_36\n      swap4\n      swap3\n      swap2\n      swap1\n      tag_25\n      jump\t// in\n    tag_36:\n      mload(0x40)\n      dup1\n      swap2\n      sub\n      swap1\n      return\n        /* \"contracts/nft-market.sol\":2321:3005  function changePrice(uint256 _tokenId, uint256 _newPrice) external {... */\n    tag_8:\n      tag_37\n      0x04\n      dup1\n      calldatasize\n      sub\n      dup2\n      add\n      swap1\n      tag_38\n      swap2\n      swap1\n      tag_39\n      jump\t// in\n    tag_38:\n      tag_40\n      jump\t// in\n    tag_37:\n      stop\n        /* \"contracts/nft-market.sol\":4034:4438  function toUint256(... */\n    tag_9:\n      tag_41\n      0x04\n      dup1\n      calldatasize\n      sub\n      dup2\n      add\n      swap1\n      tag_42\n      swap2\n      swap1\n      tag_43\n      jump\t// in\n    tag_42:\n      tag_44\n      jump\t// in\n    tag_41:\n      mload(0x40)\n      tag_45\n      swap2\n      swap1\n      tag_46\n      jump\t// in\n    tag_45:\n      mload(0x40)\n      dup1\n      swap2\n      sub\n      swap1\n      return\n        /* \"contracts/nft-market.sol\":219:240  IERC721 public erc721 */\n    tag_10:\n      tag_47\n      tag_48\n      jump\t// in\n    tag_47:\n      mload(0x40)\n      tag_49\n      swap2\n      swap1\n      tag_50\n      jump\t// in\n    tag_49:\n      mload(0x40)\n      dup1\n      swap2\n      sub\n      swap1\n      return\n        /* \"contracts/nft-market.sol\":1507:1963  function buy(uint256 _tokenId) external {... */\n    tag_11:\n      tag_51\n      0x04\n      dup1\n      calldatasize\n      sub\n      dup2\n      add\n      swap1\n      tag_52\n      swap2\n      swap1\n      tag_22\n      jump\t// in\n    tag_52:\n      tag_53\n      jump\t// in\n    tag_51:\n      stop\n        /* \"contracts/nft-market.sol\":655:704  mapping(uint256 => uint256) public idToOrderIndex */\n    tag_12:\n      tag_54\n      0x04\n      dup1\n      calldatasize\n      sub\n      dup2\n      add\n      swap1\n      tag_55\n      swap2\n      swap1\n      tag_22\n      jump\t// in\n    tag_55:\n      tag_56\n      jump\t// in\n    tag_54:\n      mload(0x40)\n      tag_57\n      swap2\n      swap1\n      tag_46\n      jump\t// in\n    tag_57:\n      mload(0x40)\n      dup1\n      swap2\n      sub\n      swap1\n      return\n        /* \"contracts/nft-market.sol\":3011:3602  function onERC721Received(... */\n    tag_17:\n        /* \"contracts/nft-market.sol\":3163:3169  bytes4 */\n      0x00\n        /* \"contracts/nft-market.sol\":3181:3194  uint256 price */\n      dup1\n        /* \"contracts/nft-market.sol\":3197:3215  toUint256(data, 0) */\n      tag_59\n        /* \"contracts/nft-market.sol\":3207:3211  data */\n      dup5\n      dup5\n        /* \"contracts/nft-market.sol\":3197:3215  toUint256(data, 0) */\n      dup1\n      dup1\n      0x1f\n      add\n      0x20\n      dup1\n      swap2\n      div\n      mul\n      0x20\n      add\n      mload(0x40)\n      swap1\n      dup2\n      add\n      0x40\n      mstore\n      dup1\n      swap4\n      swap3\n      swap2\n      swap1\n      dup2\n      dup2\n      mstore\n      0x20\n      add\n      dup4\n      dup4\n      dup1\n      dup3\n      dup5\n      calldatacopy\n      0x00\n      dup2\n      dup5\n      add\n      mstore\n      not(0x1f)\n      0x1f\n      dup3\n      add\n      and\n      swap1\n      pop\n      dup1\n      dup4\n      add\n      swap3\n      pop\n      pop\n      pop\n      pop\n      pop\n      pop\n      pop\n        /* \"contracts/nft-market.sol\":3213:3214  0 */\n      0x00\n        /* \"contracts/nft-market.sol\":3197:3206  toUint256 */\n      tag_44\n        /* \"contracts/nft-market.sol\":3197:3215  toUint256(data, 0) */\n      jump\t// in\n    tag_59:\n        /* \"contracts/nft-market.sol\":3181:3215  uint256 price = toUint256(data, 0) */\n      swap1\n      pop\n        /* \"contracts/nft-market.sol\":3241:3242  0 */\n      0x00\n        /* \"contracts/nft-market.sol\":3233:3238  price */\n      dup2\n        /* \"contracts/nft-market.sol\":3233:3242  price > 0 */\n      gt\n        /* \"contracts/nft-market.sol\":3225:3275  require(price > 0, \"price must be greater than 0\") */\n      tag_60\n      jumpi\n      mload(0x40)\n      0x08c379a000000000000000000000000000000000000000000000000000000000\n      dup2\n      mstore\n      0x04\n      add\n      tag_61\n      swap1\n      tag_62\n      jump\t// in\n    tag_61:\n      mload(0x40)\n      dup1\n      swap2\n      sub\n      swap1\n      revert\n    tag_60:\n        /* \"contracts/nft-market.sol\":3285:3303  Order memory order */\n      0x00\n        /* \"contracts/nft-market.sol\":3306:3333  Order(from, tokenId, price) */\n      mload(0x40)\n      dup1\n      0x60\n      add\n      0x40\n      mstore\n      dup1\n        /* \"contracts/nft-market.sol\":3312:3316  from */\n      dup9\n        /* \"contracts/nft-market.sol\":3306:3333  Order(from, tokenId, price) */\n      0xffffffffffffffffffffffffffffffffffffffff\n      and\n      dup2\n      mstore\n      0x20\n      add\n        /* \"contracts/nft-market.sol\":3318:3325  tokenId */\n      dup8\n        /* \"contracts/nft-market.sol\":3306:3333  Order(from, tokenId, price) */\n      dup2\n      mstore\n      0x20\n      add\n        /* \"contracts/nft-market.sol\":3327:3332  price */\n      dup4\n        /* \"contracts/nft-market.sol\":3306:3333  Order(from, tokenId, price) */\n      dup2\n      mstore\n      pop\n        /* \"contracts/nft-market.sol\":3285:3333  Order memory order = Order(from, tokenId, price) */\n      swap1\n      pop\n        /* \"contracts/nft-market.sol\":3367:3373  orders */\n      0x03\n        /* \"contracts/nft-market.sol\":3379:3406  Order(from, tokenId, price) */\n      mload(0x40)\n      dup1\n      0x60\n      add\n      0x40\n      mstore\n      dup1\n        /* \"contracts/nft-market.sol\":3385:3389  from */\n      dup10\n        /* \"contracts/nft-market.sol\":3379:3406  Order(from, tokenId, price) */\n      0xffffffffffffffffffffffffffffffffffffffff\n      and\n      dup2\n      mstore\n      0x20\n      add\n        /* \"contracts/nft-market.sol\":3391:3398  tokenId */\n      dup9\n        /* \"contracts/nft-market.sol\":3379:3406  Order(from, tokenId, price) */\n      dup2\n      mstore\n      0x20\n      add\n        /* \"contracts/nft-market.sol\":3400:3405  price */\n      dup5\n        /* \"contracts/nft-market.sol\":3379:3406  Order(from, tokenId, price) */\n      dup2\n      mstore\n      pop\n        /* \"contracts/nft-market.sol\":3367:3407  orders.push(Order(from, tokenId, price)) */\n      swap1\n      dup1\n      0x01\n      dup2\n      sload\n      add\n      dup1\n      dup3\n      sstore\n      dup1\n      swap2\n      pop\n      pop\n      0x01\n      swap1\n      sub\n      swap1\n      0x00\n      mstore\n      keccak256(0x00, 0x20)\n      swap1\n      0x03\n      mul\n      add\n      0x00\n      swap1\n      swap2\n      swap1\n      swap2\n      swap1\n      swap2\n      pop\n      0x00\n      dup3\n      add\n      mload\n      dup2\n      0x00\n      add\n      exp(0x0100, 0x00)\n      dup2\n      sload\n      dup2\n      0xffffffffffffffffffffffffffffffffffffffff\n      mul\n      not\n      and\n      swap1\n      dup4\n      0xffffffffffffffffffffffffffffffffffffffff\n      and\n      mul\n      or\n      swap1\n      sstore\n      pop\n      0x20\n      dup3\n      add\n      mload\n      dup2\n      0x01\n      add\n      sstore\n      0x40\n      dup3\n      add\n      mload\n      dup2\n      0x02\n      add\n      sstore\n      pop\n      pop\n        /* \"contracts/nft-market.sol\":3438:3465  Order(from, tokenId, price) */\n      mload(0x40)\n      dup1\n      0x60\n      add\n      0x40\n      mstore\n      dup1\n        /* \"contracts/nft-market.sol\":3444:3448  from */\n      dup9\n        /* \"contracts/nft-market.sol\":3438:3465  Order(from, tokenId, price) */\n      0xffffffffffffffffffffffffffffffffffffffff\n      and\n      dup2\n      mstore\n      0x20\n      add\n        /* \"contracts/nft-market.sol\":3450:3457  tokenId */\n      dup8\n        /* \"contracts/nft-market.sol\":3438:3465  Order(from, tokenId, price) */\n      dup2\n      mstore\n      0x20\n      add\n        /* \"contracts/nft-market.sol\":3459:3464  price */\n      dup4\n        /* \"contracts/nft-market.sol\":3438:3465  Order(from, tokenId, price) */\n      dup2\n      mstore\n      pop\n        /* \"contracts/nft-market.sol\":3417:3426  orderOfId */\n      0x02\n        /* \"contracts/nft-market.sol\":3417:3435  orderOfId[tokenId] */\n      0x00\n        /* \"contracts/nft-market.sol\":3427:3434  tokenId */\n      dup9\n        /* \"contracts/nft-market.sol\":3417:3435  orderOfId[tokenId] */\n      dup2\n      mstore\n      0x20\n      add\n      swap1\n      dup2\n      mstore\n      0x20\n      add\n      0x00\n      keccak256\n        /* \"contracts/nft-market.sol\":3417:3465  orderOfId[tokenId] = Order(from, tokenId, price) */\n      0x00\n      dup3\n      add\n      mload\n      dup2\n      0x00\n      add\n      exp(0x0100, 0x00)\n      dup2\n      sload\n      dup2\n      0xffffffffffffffffffffffffffffffffffffffff\n      mul\n      not\n      and\n      swap1\n      dup4\n      0xffffffffffffffffffffffffffffffffffffffff\n      and\n      mul\n      or\n      swap1\n      sstore\n      pop\n      0x20\n      dup3\n      add\n      mload\n      dup2\n      0x01\n      add\n      sstore\n      0x40\n      dup3\n      add\n      mload\n      dup2\n      0x02\n      add\n      sstore\n      swap1\n      pop\n      pop\n        /* \"contracts/nft-market.sol\":3517:3518  1 */\n      0x01\n        /* \"contracts/nft-market.sol\":3501:3507  orders */\n      0x03\n        /* \"contracts/nft-market.sol\":3501:3514  orders.length */\n      dup1\n      sload\n      swap1\n      pop\n        /* \"contracts/nft-market.sol\":3501:3518  orders.length - 1 */\n      tag_64\n      swap2\n      swap1\n      tag_65\n      jump\t// in\n    tag_64:\n        /* \"contracts/nft-market.sol\":3475:3489  idToOrderIndex */\n      0x04\n        /* \"contracts/nft-market.sol\":3475:3498  idToOrderIndex[tokenId] */\n      0x00\n        /* \"contracts/nft-market.sol\":3490:3497  tokenId */\n      dup9\n        /* \"contracts/nft-market.sol\":3475:3498  idToOrderIndex[tokenId] */\n      dup2\n      mstore\n      0x20\n      add\n      swap1\n      dup2\n      mstore\n      0x20\n      add\n      0x00\n      keccak256\n        /* \"contracts/nft-market.sol\":3475:3518  idToOrderIndex[tokenId] = orders.length - 1 */\n      dup2\n      swap1\n      sstore\n      pop\n        /* \"contracts/nft-market.sol\":3533:3563  NewOrder(from, tokenId, price) */\n      0xd5b509e657d5ec37ae4bdcab658b7340c0453bb630516d26623359a34c1cecf3\n        /* \"contracts/nft-market.sol\":3542:3546  from */\n      dup8\n        /* \"contracts/nft-market.sol\":3548:3555  tokenId */\n      dup8\n        /* \"contracts/nft-market.sol\":3557:3562  price */\n      dup5\n        /* \"contracts/nft-market.sol\":3533:3563  NewOrder(from, tokenId, price) */\n      mload(0x40)\n      tag_66\n      swap4\n      swap3\n      swap2\n      swap1\n      tag_25\n      jump\t// in\n    tag_66:\n      mload(0x40)\n      dup1\n      swap2\n      sub\n      swap1\n      log1\n        /* \"contracts/nft-market.sol\":290:300  0x150b7a02 */\n      0x150b7a02\n        /* \"contracts/nft-market.sol\":3580:3595  ERC721_RECEIVED */\n      0xe0\n      shl\n        /* \"contracts/nft-market.sol\":3573:3595  return ERC721_RECEIVED */\n      swap3\n      pop\n      pop\n      pop\n        /* \"contracts/nft-market.sol\":3011:3602  function onERC721Received(... */\n      swap6\n      swap5\n      pop\n      pop\n      pop\n      pop\n      pop\n      jump\t// out\n        /* \"contracts/nft-market.sol\":511:553  mapping(uint256 => Order) public orderOfId */\n    tag_23:\n      mstore(0x20, 0x02)\n      dup1\n      0x00\n      mstore\n      keccak256(0x00, 0x40)\n      0x00\n      swap2\n      pop\n      swap1\n      pop\n      dup1\n      0x00\n      add\n      0x00\n      swap1\n      sload\n      swap1\n      0x0100\n      exp\n      swap1\n      div\n      0xffffffffffffffffffffffffffffffffffffffff\n      and\n      swap1\n      dup1\n      0x01\n      add\n      sload\n      swap1\n      dup1\n      0x02\n      add\n      sload\n      swap1\n      pop\n      dup4\n      jump\t// out\n        /* \"contracts/nft-market.sol\":1989:2298  function cancelOrder(uint256 _tokenId) external {... */\n    tag_28:\n        /* \"contracts/nft-market.sol\":2047:2061  address seller */\n      0x00\n        /* \"contracts/nft-market.sol\":2064:2073  orderOfId */\n      0x02\n        /* \"contracts/nft-market.sol\":2064:2083  orderOfId[_tokenId] */\n      0x00\n        /* \"contracts/nft-market.sol\":2074:2082  _tokenId */\n      dup4\n        /* \"contracts/nft-market.sol\":2064:2083  orderOfId[_tokenId] */\n      dup2\n      mstore\n      0x20\n      add\n      swap1\n      dup2\n      mstore\n      0x20\n      add\n      0x00\n      keccak256\n        /* \"contracts/nft-market.sol\":2064:2090  orderOfId[_tokenId].seller */\n      0x00\n      add\n      0x00\n      swap1\n      sload\n      swap1\n      0x0100\n      exp\n      swap1\n      div\n      0xffffffffffffffffffffffffffffffffffffffff\n      and\n        /* \"contracts/nft-market.sol\":2047:2090  address seller = orderOfId[_tokenId].seller */\n      swap1\n      pop\n        /* \"contracts/nft-market.sol\":2122:2128  seller */\n      dup1\n        /* \"contracts/nft-market.sol\":2108:2128  msg.sender == seller */\n      0xffffffffffffffffffffffffffffffffffffffff\n      and\n        /* \"contracts/nft-market.sol\":2108:2118  msg.sender */\n      caller\n        /* \"contracts/nft-market.sol\":2108:2128  msg.sender == seller */\n      0xffffffffffffffffffffffffffffffffffffffff\n      and\n      eq\n        /* \"contracts/nft-market.sol\":2100:2147  require(msg.sender == seller, \"not the seller\") */\n      tag_68\n      jumpi\n      mload(0x40)\n      0x08c379a000000000000000000000000000000000000000000000000000000000\n      dup2\n      mstore\n      0x04\n      add\n      tag_69\n      swap1\n      tag_70\n      jump\t// in\n    tag_69:\n      mload(0x40)\n      dup1\n      swap2\n      sub\n      swap1\n      revert\n    tag_68:\n        /* \"contracts/nft-market.sol\":2157:2163  erc721 */\n      0x01\n      0x00\n      swap1\n      sload\n      swap1\n      0x0100\n      exp\n      swap1\n      div\n      0xffffffffffffffffffffffffffffffffffffffff\n      and\n        /* \"contracts/nft-market.sol\":2157:2180  erc721.safeTransferFrom */\n      0xffffffffffffffffffffffffffffffffffffffff\n      and\n      0x42842e0e\n        /* \"contracts/nft-market.sol\":2189:2193  this */\n      address\n        /* \"contracts/nft-market.sol\":2196:2202  seller */\n      dup4\n        /* \"contracts/nft-market.sol\":2204:2212  _tokenId */\n      dup6\n        /* \"contracts/nft-market.sol\":2157:2213  erc721.safeTransferFrom(address(this), seller, _tokenId) */\n      mload(0x40)\n      dup5\n      0xffffffff\n      and\n      0xe0\n      shl\n      dup2\n      mstore\n      0x04\n      add\n      tag_71\n      swap4\n      swap3\n      swap2\n      swap1\n      tag_72\n      jump\t// in\n    tag_71:\n      0x00\n      mload(0x40)\n      dup1\n      dup4\n      sub\n      dup2\n      0x00\n      dup8\n      dup1\n      extcodesize\n      iszero\n      dup1\n      iszero\n      tag_73\n      jumpi\n      0x00\n      dup1\n      revert\n    tag_73:\n      pop\n      gas\n      call\n      iszero\n      dup1\n      iszero\n      tag_75\n      jumpi\n      returndatasize\n      0x00\n      dup1\n      returndatacopy\n      revert(0x00, returndatasize)\n    tag_75:\n      pop\n      pop\n      pop\n      pop\n        /* \"contracts/nft-market.sol\":2223:2244  removeOrder(_tokenId) */\n      tag_76\n        /* \"contracts/nft-market.sol\":2235:2243  _tokenId */\n      dup3\n        /* \"contracts/nft-market.sol\":2223:2234  removeOrder */\n      tag_77\n        /* \"contracts/nft-market.sol\":2223:2244  removeOrder(_tokenId) */\n      jump\t// in\n    tag_76:\n        /* \"contracts/nft-market.sol\":2259:2291  OrderCancelled(seller, _tokenId) */\n      0xdd003742fb214507783ce004fe55f5ac14f89c6de4a7cd7487e47eb091c62265\n        /* \"contracts/nft-market.sol\":2274:2280  seller */\n      dup2\n        /* \"contracts/nft-market.sol\":2282:2290  _tokenId */\n      dup4\n        /* \"contracts/nft-market.sol\":2259:2291  OrderCancelled(seller, _tokenId) */\n      mload(0x40)\n      tag_78\n      swap3\n      swap2\n      swap1\n      tag_79\n      jump\t// in\n    tag_78:\n      mload(0x40)\n      dup1\n      swap2\n      sub\n      swap1\n      log1\n        /* \"contracts/nft-market.sol\":2037:2298  {... */\n      pop\n        /* \"contracts/nft-market.sol\":1989:2298  function cancelOrder(uint256 _tokenId) external {... */\n      pop\n      jump\t// out\n        /* \"contracts/nft-market.sol\":194:213  IERC20 public erc20 */\n    tag_30:\n      0x00\n      dup1\n      sload\n      swap1\n      0x0100\n      exp\n      swap1\n      div\n      0xffffffffffffffffffffffffffffffffffffffff\n      and\n      dup2\n      jump\t// out\n        /* \"contracts/nft-market.sol\":628:649  Order[] public orders */\n    tag_35:\n      0x03\n      dup2\n      dup2\n      sload\n      dup2\n      lt\n      tag_80\n      jumpi\n      0x00\n      dup1\n      revert\n    tag_80:\n      swap1\n      0x00\n      mstore\n      keccak256(0x00, 0x20)\n      swap1\n      0x03\n      mul\n      add\n      0x00\n      swap2\n      pop\n      swap1\n      pop\n      dup1\n      0x00\n      add\n      0x00\n      swap1\n      sload\n      swap1\n      0x0100\n      exp\n      swap1\n      div\n      0xffffffffffffffffffffffffffffffffffffffff\n      and\n      swap1\n      dup1\n      0x01\n      add\n      sload\n      swap1\n      dup1\n      0x02\n      add\n      sload\n      swap1\n      pop\n      dup4\n      jump\t// out\n        /* \"contracts/nft-market.sol\":2321:3005  function changePrice(uint256 _tokenId, uint256 _newPrice) external {... */\n    tag_40:\n        /* \"contracts/nft-market.sol\":2398:2412  address seller */\n      0x00\n        /* \"contracts/nft-market.sol\":2415:2424  orderOfId */\n      0x02\n        /* \"contracts/nft-market.sol\":2415:2434  orderOfId[_tokenId] */\n      0x00\n        /* \"contracts/nft-market.sol\":2425:2433  _tokenId */\n      dup5\n        /* \"contracts/nft-market.sol\":2415:2434  orderOfId[_tokenId] */\n      dup2\n      mstore\n      0x20\n      add\n      swap1\n      dup2\n      mstore\n      0x20\n      add\n      0x00\n      keccak256\n        /* \"contracts/nft-market.sol\":2415:2441  orderOfId[_tokenId].seller */\n      0x00\n      add\n      0x00\n      swap1\n      sload\n      swap1\n      0x0100\n      exp\n      swap1\n      div\n      0xffffffffffffffffffffffffffffffffffffffff\n      and\n        /* \"contracts/nft-market.sol\":2398:2441  address seller = orderOfId[_tokenId].seller */\n      swap1\n      pop\n        /* \"contracts/nft-market.sol\":2473:2479  seller */\n      dup1\n        /* \"contracts/nft-market.sol\":2459:2479  msg.sender == seller */\n      0xffffffffffffffffffffffffffffffffffffffff\n      and\n        /* \"contracts/nft-market.sol\":2459:2469  msg.sender */\n      caller\n        /* \"contracts/nft-market.sol\":2459:2479  msg.sender == seller */\n      0xffffffffffffffffffffffffffffffffffffffff\n      and\n      eq\n        /* \"contracts/nft-market.sol\":2451:2498  require(msg.sender == seller, \"not the seller\") */\n      tag_83\n      jumpi\n      mload(0x40)\n      0x08c379a000000000000000000000000000000000000000000000000000000000\n      dup2\n      mstore\n      0x04\n      add\n      tag_84\n      swap1\n      tag_70\n      jump\t// in\n    tag_84:\n      mload(0x40)\n      dup1\n      swap2\n      sub\n      swap1\n      revert\n    tag_83:\n        /* \"contracts/nft-market.sol\":2528:2529  0 */\n      0x00\n        /* \"contracts/nft-market.sol\":2516:2525  _newPrice */\n      dup3\n        /* \"contracts/nft-market.sol\":2516:2529  _newPrice > 0 */\n      gt\n        /* \"contracts/nft-market.sol\":2508:2562  require(_newPrice > 0, \"price must be greater than 0\") */\n      tag_85\n      jumpi\n      mload(0x40)\n      0x08c379a000000000000000000000000000000000000000000000000000000000\n      dup2\n      mstore\n      0x04\n      add\n      tag_86\n      swap1\n      tag_62\n      jump\t// in\n    tag_86:\n      mload(0x40)\n      dup1\n      swap2\n      sub\n      swap1\n      revert\n    tag_85:\n        /* \"contracts/nft-market.sol\":2572:2593  uint256 previousPrice */\n      0x00\n        /* \"contracts/nft-market.sol\":2596:2605  orderOfId */\n      0x02\n        /* \"contracts/nft-market.sol\":2596:2615  orderOfId[_tokenId] */\n      0x00\n        /* \"contracts/nft-market.sol\":2606:2614  _tokenId */\n      dup6\n        /* \"contracts/nft-market.sol\":2596:2615  orderOfId[_tokenId] */\n      dup2\n      mstore\n      0x20\n      add\n      swap1\n      dup2\n      mstore\n      0x20\n      add\n      0x00\n      keccak256\n        /* \"contracts/nft-market.sol\":2596:2621  orderOfId[_tokenId].price */\n      0x02\n      add\n      sload\n        /* \"contracts/nft-market.sol\":2572:2621  uint256 previousPrice = orderOfId[_tokenId].price */\n      swap1\n      pop\n        /* \"contracts/nft-market.sol\":2659:2668  _newPrice */\n      dup3\n        /* \"contracts/nft-market.sol\":2631:2640  orderOfId */\n      0x02\n        /* \"contracts/nft-market.sol\":2631:2650  orderOfId[_tokenId] */\n      0x00\n        /* \"contracts/nft-market.sol\":2641:2649  _tokenId */\n      dup7\n        /* \"contracts/nft-market.sol\":2631:2650  orderOfId[_tokenId] */\n      dup2\n      mstore\n      0x20\n      add\n      swap1\n      dup2\n      mstore\n      0x20\n      add\n      0x00\n      keccak256\n        /* \"contracts/nft-market.sol\":2631:2656  orderOfId[_tokenId].price */\n      0x02\n      add\n        /* \"contracts/nft-market.sol\":2631:2668  orderOfId[_tokenId].price = _newPrice */\n      dup2\n      swap1\n      sstore\n      pop\n        /* \"contracts/nft-market.sol\":2678:2697  Order storage order */\n      0x00\n        /* \"contracts/nft-market.sol\":2700:2706  orders */\n      0x03\n        /* \"contracts/nft-market.sol\":2707:2721  idToOrderIndex */\n      0x04\n        /* \"contracts/nft-market.sol\":2707:2731  idToOrderIndex[_tokenId] */\n      0x00\n        /* \"contracts/nft-market.sol\":2722:2730  _tokenId */\n      dup8\n        /* \"contracts/nft-market.sol\":2707:2731  idToOrderIndex[_tokenId] */\n      dup2\n      mstore\n      0x20\n      add\n      swap1\n      dup2\n      mstore\n      0x20\n      add\n      0x00\n      keccak256\n      sload\n        /* \"contracts/nft-market.sol\":2700:2732  orders[idToOrderIndex[_tokenId]] */\n      dup2\n      sload\n      dup2\n      lt\n      tag_87\n      jumpi\n      tag_88\n      tag_89\n      jump\t// in\n    tag_88:\n    tag_87:\n      swap1\n      0x00\n      mstore\n      keccak256(0x00, 0x20)\n      swap1\n      0x03\n      mul\n      add\n        /* \"contracts/nft-market.sol\":2678:2732  Order storage order = orders[idToOrderIndex[_tokenId]] */\n      swap1\n      pop\n        /* \"contracts/nft-market.sol\":2838:2894  PriceChanged(seller, _tokenId, previousPrice, _newPrice) */\n      0xdac6aecd066304d15a41e8e590fc5ab5bf93634f43cba363f743d5e158d79988\n        /* \"contracts/nft-market.sol\":2851:2857  seller */\n      dup4\n        /* \"contracts/nft-market.sol\":2859:2867  _tokenId */\n      dup7\n        /* \"contracts/nft-market.sol\":2869:2882  previousPrice */\n      dup5\n        /* \"contracts/nft-market.sol\":2884:2893  _newPrice */\n      dup8\n        /* \"contracts/nft-market.sol\":2838:2894  PriceChanged(seller, _tokenId, previousPrice, _newPrice) */\n      mload(0x40)\n      tag_91\n      swap5\n      swap4\n      swap3\n      swap2\n      swap1\n      tag_92\n      jump\t// in\n    tag_91:\n      mload(0x40)\n      dup1\n      swap2\n      sub\n      swap1\n      log1\n        /* \"contracts/nft-market.sol\":2918:2927  _newPrice */\n      dup4\n        /* \"contracts/nft-market.sol\":2904:2909  order */\n      dup2\n        /* \"contracts/nft-market.sol\":2904:2915  order.price */\n      0x02\n      add\n        /* \"contracts/nft-market.sol\":2904:2927  order.price = _newPrice */\n      dup2\n      swap1\n      sstore\n      pop\n        /* \"contracts/nft-market.sol\":2942:2998  PriceChanged(seller, _tokenId, previousPrice, _newPrice) */\n      0xdac6aecd066304d15a41e8e590fc5ab5bf93634f43cba363f743d5e158d79988\n        /* \"contracts/nft-market.sol\":2955:2961  seller */\n      dup4\n        /* \"contracts/nft-market.sol\":2963:2971  _tokenId */\n      dup7\n        /* \"contracts/nft-market.sol\":2973:2986  previousPrice */\n      dup5\n        /* \"contracts/nft-market.sol\":2988:2997  _newPrice */\n      dup8\n        /* \"contracts/nft-market.sol\":2942:2998  PriceChanged(seller, _tokenId, previousPrice, _newPrice) */\n      mload(0x40)\n      tag_93\n      swap5\n      swap4\n      swap3\n      swap2\n      swap1\n      tag_92\n      jump\t// in\n    tag_93:\n      mload(0x40)\n      dup1\n      swap2\n      sub\n      swap1\n      log1\n        /* \"contracts/nft-market.sol\":2388:3005  {... */\n      pop\n      pop\n      pop\n        /* \"contracts/nft-market.sol\":2321:3005  function changePrice(uint256 _tokenId, uint256 _newPrice) external {... */\n      pop\n      pop\n      jump\t// out\n        /* \"contracts/nft-market.sol\":4034:4438  function toUint256(... */\n    tag_44:\n        /* \"contracts/nft-market.sol\":4130:4137  uint256 */\n      0x00\n        /* \"contracts/nft-market.sol\":4172:4178  _start */\n      dup2\n        /* \"contracts/nft-market.sol\":4166:4168  32 */\n      0x20\n        /* \"contracts/nft-market.sol\":4157:4163  _start */\n      dup4\n        /* \"contracts/nft-market.sol\":4157:4168  _start + 32 */\n      tag_95\n      swap2\n      swap1\n      tag_96\n      jump\t// in\n    tag_95:\n        /* \"contracts/nft-market.sol\":4157:4178  _start + 32 >= _start */\n      lt\n      iszero\n        /* \"contracts/nft-market.sol\":4149:4209  require(_start + 32 >= _start, \"Market: toUint256_overflow\") */\n      tag_97\n      jumpi\n      mload(0x40)\n      0x08c379a000000000000000000000000000000000000000000000000000000000\n      dup2\n      mstore\n      0x04\n      add\n      tag_98\n      swap1\n      tag_99\n      jump\t// in\n    tag_98:\n      mload(0x40)\n      dup1\n      swap2\n      sub\n      swap1\n      revert\n    tag_97:\n        /* \"contracts/nft-market.sol\":4253:4255  32 */\n      0x20\n        /* \"contracts/nft-market.sol\":4244:4250  _start */\n      dup3\n        /* \"contracts/nft-market.sol\":4244:4255  _start + 32 */\n      tag_100\n      swap2\n      swap1\n      tag_96\n      jump\t// in\n    tag_100:\n        /* \"contracts/nft-market.sol\":4227:4233  _bytes */\n      dup4\n        /* \"contracts/nft-market.sol\":4227:4240  _bytes.length */\n      mload\n        /* \"contracts/nft-market.sol\":4227:4255  _bytes.length >= _start + 32 */\n      lt\n      iszero\n        /* \"contracts/nft-market.sol\":4219:4289  require(_bytes.length >= _start + 32, \"Market: toUint256_outOfBounds\") */\n      tag_101\n      jumpi\n      mload(0x40)\n      0x08c379a000000000000000000000000000000000000000000000000000000000\n      dup2\n      mstore\n      0x04\n      add\n      tag_102\n      swap1\n      tag_103\n      jump\t// in\n    tag_102:\n      mload(0x40)\n      dup1\n      swap2\n      sub\n      swap1\n      revert\n    tag_101:\n        /* \"contracts/nft-market.sol\":4299:4315  uint256 tempUint */\n      0x00\n        /* \"contracts/nft-market.sol\":4389:4395  _start */\n      dup3\n        /* \"contracts/nft-market.sol\":4382:4386  0x20 */\n      0x20\n        /* \"contracts/nft-market.sol\":4374:4380  _bytes */\n      dup6\n        /* \"contracts/nft-market.sol\":4370:4387  add(_bytes, 0x20) */\n      add\n        /* \"contracts/nft-market.sol\":4366:4396  add(add(_bytes, 0x20), _start) */\n      add\n        /* \"contracts/nft-market.sol\":4360:4397  mload(add(add(_bytes, 0x20), _start)) */\n      mload\n        /* \"contracts/nft-market.sol\":4348:4397  tempUint := mload(add(add(_bytes, 0x20), _start)) */\n      swap1\n      pop\n        /* \"contracts/nft-market.sol\":4423:4431  tempUint */\n      dup1\n        /* \"contracts/nft-market.sol\":4416:4431  return tempUint */\n      swap2\n      pop\n      pop\n        /* \"contracts/nft-market.sol\":4034:4438  function toUint256(... */\n      swap3\n      swap2\n      pop\n      pop\n      jump\t// out\n        /* \"contracts/nft-market.sol\":219:240  IERC721 public erc721 */\n    tag_48:\n      0x01\n      0x00\n      swap1\n      sload\n      swap1\n      0x0100\n      exp\n      swap1\n      div\n      0xffffffffffffffffffffffffffffffffffffffff\n      and\n      dup2\n      jump\t// out\n        /* \"contracts/nft-market.sol\":1507:1963  function buy(uint256 _tokenId) external {... */\n    tag_53:\n        /* \"contracts/nft-market.sol\":1557:1571  address seller */\n      0x00\n        /* \"contracts/nft-market.sol\":1574:1583  orderOfId */\n      0x02\n        /* \"contracts/nft-market.sol\":1574:1593  orderOfId[_tokenId] */\n      0x00\n        /* \"contracts/nft-market.sol\":1584:1592  _tokenId */\n      dup4\n        /* \"contracts/nft-market.sol\":1574:1593  orderOfId[_tokenId] */\n      dup2\n      mstore\n      0x20\n      add\n      swap1\n      dup2\n      mstore\n      0x20\n      add\n      0x00\n      keccak256\n        /* \"contracts/nft-market.sol\":1574:1600  orderOfId[_tokenId].seller */\n      0x00\n      add\n      0x00\n      swap1\n      sload\n      swap1\n      0x0100\n      exp\n      swap1\n      div\n      0xffffffffffffffffffffffffffffffffffffffff\n      and\n        /* \"contracts/nft-market.sol\":1557:1600  address seller = orderOfId[_tokenId].seller */\n      swap1\n      pop\n        /* \"contracts/nft-market.sol\":1610:1623  address buyer */\n      0x00\n        /* \"contracts/nft-market.sol\":1626:1636  msg.sender */\n      caller\n        /* \"contracts/nft-market.sol\":1610:1636  address buyer = msg.sender */\n      swap1\n      pop\n        /* \"contracts/nft-market.sol\":1646:1659  uint256 price */\n      0x00\n        /* \"contracts/nft-market.sol\":1662:1671  orderOfId */\n      0x02\n        /* \"contracts/nft-market.sol\":1662:1681  orderOfId[_tokenId] */\n      0x00\n        /* \"contracts/nft-market.sol\":1672:1680  _tokenId */\n      dup6\n        /* \"contracts/nft-market.sol\":1662:1681  orderOfId[_tokenId] */\n      dup2\n      mstore\n      0x20\n      add\n      swap1\n      dup2\n      mstore\n      0x20\n      add\n      0x00\n      keccak256\n        /* \"contracts/nft-market.sol\":1662:1687  orderOfId[_tokenId].price */\n      0x02\n      add\n      sload\n        /* \"contracts/nft-market.sol\":1646:1687  uint256 price = orderOfId[_tokenId].price */\n      swap1\n      pop\n        /* \"contracts/nft-market.sol\":1718:1723  erc20 */\n      0x00\n      dup1\n      sload\n      swap1\n      0x0100\n      exp\n      swap1\n      div\n      0xffffffffffffffffffffffffffffffffffffffff\n      and\n        /* \"contracts/nft-market.sol\":1718:1736  erc20.transferFrom */\n      0xffffffffffffffffffffffffffffffffffffffff\n      and\n      0x23b872dd\n        /* \"contracts/nft-market.sol\":1737:1742  buyer */\n      dup4\n        /* \"contracts/nft-market.sol\":1744:1750  seller */\n      dup6\n        /* \"contracts/nft-market.sol\":1752:1757  price */\n      dup5\n        /* \"contracts/nft-market.sol\":1718:1758  erc20.transferFrom(buyer, seller, price) */\n      mload(0x40)\n      dup5\n      0xffffffff\n      and\n      0xe0\n      shl\n      dup2\n      mstore\n      0x04\n      add\n      tag_105\n      swap4\n      swap3\n      swap2\n      swap1\n      tag_72\n      jump\t// in\n    tag_105:\n      0x20\n      mload(0x40)\n      dup1\n      dup4\n      sub\n      dup2\n      0x00\n      dup8\n      gas\n      call\n      iszero\n      dup1\n      iszero\n      tag_107\n      jumpi\n      returndatasize\n      0x00\n      dup1\n      returndatacopy\n      revert(0x00, returndatasize)\n    tag_107:\n      pop\n      pop\n      pop\n      pop\n      mload(0x40)\n      returndatasize\n      not(0x1f)\n      0x1f\n      dup3\n      add\n      and\n      dup3\n      add\n      dup1\n      0x40\n      mstore\n      pop\n      dup2\n      add\n      swap1\n      tag_108\n      swap2\n      swap1\n      tag_109\n      jump\t// in\n    tag_108:\n        /* \"contracts/nft-market.sol\":1697:1807  require(... */\n      tag_110\n      jumpi\n      mload(0x40)\n      0x08c379a000000000000000000000000000000000000000000000000000000000\n      dup2\n      mstore\n      0x04\n      add\n      tag_111\n      swap1\n      tag_112\n      jump\t// in\n    tag_111:\n      mload(0x40)\n      dup1\n      swap2\n      sub\n      swap1\n      revert\n    tag_110:\n        /* \"contracts/nft-market.sol\":1817:1823  erc721 */\n      0x01\n      0x00\n      swap1\n      sload\n      swap1\n      0x0100\n      exp\n      swap1\n      div\n      0xffffffffffffffffffffffffffffffffffffffff\n      and\n        /* \"contracts/nft-market.sol\":1817:1840  erc721.safeTransferFrom */\n      0xffffffffffffffffffffffffffffffffffffffff\n      and\n      0x42842e0e\n        /* \"contracts/nft-market.sol\":1849:1853  this */\n      address\n        /* \"contracts/nft-market.sol\":1856:1861  buyer */\n      dup5\n        /* \"contracts/nft-market.sol\":1863:1871  _tokenId */\n      dup8\n        /* \"contracts/nft-market.sol\":1817:1872  erc721.safeTransferFrom(address(this), buyer, _tokenId) */\n      mload(0x40)\n      dup5\n      0xffffffff\n      and\n      0xe0\n      shl\n      dup2\n      mstore\n      0x04\n      add\n      tag_113\n      swap4\n      swap3\n      swap2\n      swap1\n      tag_72\n      jump\t// in\n    tag_113:\n      0x00\n      mload(0x40)\n      dup1\n      dup4\n      sub\n      dup2\n      0x00\n      dup8\n      dup1\n      extcodesize\n      iszero\n      dup1\n      iszero\n      tag_114\n      jumpi\n      0x00\n      dup1\n      revert\n    tag_114:\n      pop\n      gas\n      call\n      iszero\n      dup1\n      iszero\n      tag_116\n      jumpi\n      returndatasize\n      0x00\n      dup1\n      returndatacopy\n      revert(0x00, returndatasize)\n    tag_116:\n      pop\n      pop\n      pop\n      pop\n        /* \"contracts/nft-market.sol\":1883:1904  removeOrder(_tokenId) */\n      tag_117\n        /* \"contracts/nft-market.sol\":1895:1903  _tokenId */\n      dup5\n        /* \"contracts/nft-market.sol\":1883:1894  removeOrder */\n      tag_77\n        /* \"contracts/nft-market.sol\":1883:1904  removeOrder(_tokenId) */\n      jump\t// in\n    tag_117:\n        /* \"contracts/nft-market.sol\":1920:1956  Deal(seller, buyer, _tokenId, price) */\n      0x424d5e5f0192c7dacdbe646ca31b00299146d883d76a95ef5cddbac7cd342eab\n        /* \"contracts/nft-market.sol\":1925:1931  seller */\n      dup4\n        /* \"contracts/nft-market.sol\":1933:1938  buyer */\n      dup4\n        /* \"contracts/nft-market.sol\":1940:1948  _tokenId */\n      dup7\n        /* \"contracts/nft-market.sol\":1950:1955  price */\n      dup5\n        /* \"contracts/nft-market.sol\":1920:1956  Deal(seller, buyer, _tokenId, price) */\n      mload(0x40)\n      tag_118\n      swap5\n      swap4\n      swap3\n      swap2\n      swap1\n      tag_119\n      jump\t// in\n    tag_118:\n      mload(0x40)\n      dup1\n      swap2\n      sub\n      swap1\n      log1\n        /* \"contracts/nft-market.sol\":1547:1963  {... */\n      pop\n      pop\n      pop\n        /* \"contracts/nft-market.sol\":1507:1963  function buy(uint256 _tokenId) external {... */\n      pop\n      jump\t// out\n        /* \"contracts/nft-market.sol\":655:704  mapping(uint256 => uint256) public idToOrderIndex */\n    tag_56:\n      mstore(0x20, 0x04)\n      dup1\n      0x00\n      mstore\n      keccak256(0x00, 0x40)\n      0x00\n      swap2\n      pop\n      swap1\n      pop\n      sload\n      dup2\n      jump\t// out\n        /* \"contracts/nft-market.sol\":3608:4027  function removeOrder(uint256 _tokenId) internal {... */\n    tag_77:\n        /* \"contracts/nft-market.sol\":3664:3677  uint256 index */\n      0x00\n        /* \"contracts/nft-market.sol\":3680:3694  idToOrderIndex */\n      0x04\n        /* \"contracts/nft-market.sol\":3680:3704  idToOrderIndex[_tokenId] */\n      0x00\n        /* \"contracts/nft-market.sol\":3695:3703  _tokenId */\n      dup4\n        /* \"contracts/nft-market.sol\":3680:3704  idToOrderIndex[_tokenId] */\n      dup2\n      mstore\n      0x20\n      add\n      swap1\n      dup2\n      mstore\n      0x20\n      add\n      0x00\n      keccak256\n      sload\n        /* \"contracts/nft-market.sol\":3664:3704  uint256 index = idToOrderIndex[_tokenId] */\n      swap1\n      pop\n        /* \"contracts/nft-market.sol\":3712:3729  uint256 lastIndex */\n      0x00\n        /* \"contracts/nft-market.sol\":3748:3749  1 */\n      0x01\n        /* \"contracts/nft-market.sol\":3732:3738  orders */\n      0x03\n        /* \"contracts/nft-market.sol\":3732:3745  orders.length */\n      dup1\n      sload\n      swap1\n      pop\n        /* \"contracts/nft-market.sol\":3732:3749  orders.length - 1 */\n      tag_121\n      swap2\n      swap1\n      tag_65\n      jump\t// in\n    tag_121:\n        /* \"contracts/nft-market.sol\":3712:3749  uint256 lastIndex = orders.length - 1 */\n      swap1\n      pop\n        /* \"contracts/nft-market.sol\":3770:3779  lastIndex */\n      dup1\n        /* \"contracts/nft-market.sol\":3761:3766  index */\n      dup3\n        /* \"contracts/nft-market.sol\":3761:3779  index != lastIndex */\n      eq\n        /* \"contracts/nft-market.sol\":3757:3928  if (index != lastIndex){... */\n      tag_122\n      jumpi\n        /* \"contracts/nft-market.sol\":3790:3813  Order storage lastOrder */\n      0x00\n        /* \"contracts/nft-market.sol\":3816:3822  orders */\n      0x03\n        /* \"contracts/nft-market.sol\":3823:3832  lastIndex */\n      dup3\n        /* \"contracts/nft-market.sol\":3816:3833  orders[lastIndex] */\n      dup2\n      sload\n      dup2\n      lt\n      tag_123\n      jumpi\n      tag_124\n      tag_89\n      jump\t// in\n    tag_124:\n    tag_123:\n      swap1\n      0x00\n      mstore\n      keccak256(0x00, 0x20)\n      swap1\n      0x03\n      mul\n      add\n        /* \"contracts/nft-market.sol\":3790:3833  Order storage lastOrder = orders[lastIndex] */\n      swap1\n      pop\n        /* \"contracts/nft-market.sol\":3859:3868  lastOrder */\n      dup1\n        /* \"contracts/nft-market.sol\":3843:3849  orders */\n      0x03\n        /* \"contracts/nft-market.sol\":3850:3855  index */\n      dup5\n        /* \"contracts/nft-market.sol\":3843:3856  orders[index] */\n      dup2\n      sload\n      dup2\n      lt\n      tag_126\n      jumpi\n      tag_127\n      tag_89\n      jump\t// in\n    tag_127:\n    tag_126:\n      swap1\n      0x00\n      mstore\n      keccak256(0x00, 0x20)\n      swap1\n      0x03\n      mul\n      add\n        /* \"contracts/nft-market.sol\":3843:3868  orders[index] = lastOrder */\n      0x00\n      dup3\n      add\n      0x00\n      swap1\n      sload\n      swap1\n      0x0100\n      exp\n      swap1\n      div\n      0xffffffffffffffffffffffffffffffffffffffff\n      and\n      dup2\n      0x00\n      add\n      exp(0x0100, 0x00)\n      dup2\n      sload\n      dup2\n      0xffffffffffffffffffffffffffffffffffffffff\n      mul\n      not\n      and\n      swap1\n      dup4\n      0xffffffffffffffffffffffffffffffffffffffff\n      and\n      mul\n      or\n      swap1\n      sstore\n      pop\n      0x01\n      dup3\n      add\n      sload\n      dup2\n      0x01\n      add\n      sstore\n      0x02\n      dup3\n      add\n      sload\n      dup2\n      0x02\n      add\n      sstore\n      swap1\n      pop\n      pop\n        /* \"contracts/nft-market.sol\":3914:3919  index */\n      dup3\n        /* \"contracts/nft-market.sol\":3878:3892  idToOrderIndex */\n      0x04\n        /* \"contracts/nft-market.sol\":3878:3911  idToOrderIndex[lastOrder.tokenId] */\n      0x00\n        /* \"contracts/nft-market.sol\":3893:3902  lastOrder */\n      dup4\n        /* \"contracts/nft-market.sol\":3893:3910  lastOrder.tokenId */\n      0x01\n      add\n      sload\n        /* \"contracts/nft-market.sol\":3878:3911  idToOrderIndex[lastOrder.tokenId] */\n      dup2\n      mstore\n      0x20\n      add\n      swap1\n      dup2\n      mstore\n      0x20\n      add\n      0x00\n      keccak256\n        /* \"contracts/nft-market.sol\":3878:3919  idToOrderIndex[lastOrder.tokenId] = index */\n      dup2\n      swap1\n      sstore\n      pop\n        /* \"contracts/nft-market.sol\":3780:3928  {... */\n      pop\n        /* \"contracts/nft-market.sol\":3757:3928  if (index != lastIndex){... */\n    tag_122:\n        /* \"contracts/nft-market.sol\":3935:3941  orders */\n      0x03\n        /* \"contracts/nft-market.sol\":3935:3947  orders.pop() */\n      dup1\n      sload\n      dup1\n      tag_129\n      jumpi\n      tag_130\n      tag_131\n      jump\t// in\n    tag_130:\n    tag_129:\n      0x01\n      swap1\n      sub\n      dup2\n      dup2\n      swap1\n      0x00\n      mstore\n      keccak256(0x00, 0x20)\n      swap1\n      0x03\n      mul\n      add\n      0x00\n      dup1\n      dup3\n      add\n      exp(0x0100, 0x00)\n      dup2\n      sload\n      swap1\n      0xffffffffffffffffffffffffffffffffffffffff\n      mul\n      not\n      and\n      swap1\n      sstore\n      0x01\n      dup3\n      add\n      0x00\n      swap1\n      sstore\n      0x02\n      dup3\n      add\n      0x00\n      swap1\n      sstore\n      pop\n      pop\n      swap1\n      sstore\n        /* \"contracts/nft-market.sol\":3962:3971  orderOfId */\n      0x02\n        /* \"contracts/nft-market.sol\":3962:3981  orderOfId[_tokenId] */\n      0x00\n        /* \"contracts/nft-market.sol\":3972:3980  _tokenId */\n      dup5\n        /* \"contracts/nft-market.sol\":3962:3981  orderOfId[_tokenId] */\n      dup2\n      mstore\n      0x20\n      add\n      swap1\n      dup2\n      mstore\n      0x20\n      add\n      0x00\n      keccak256\n      0x00\n        /* \"contracts/nft-market.sol\":3955:3981  delete orderOfId[_tokenId] */\n      dup1\n      dup3\n      add\n      exp(0x0100, 0x00)\n      dup2\n      sload\n      swap1\n      0xffffffffffffffffffffffffffffffffffffffff\n      mul\n      not\n      and\n      swap1\n      sstore\n      0x01\n      dup3\n      add\n      0x00\n      swap1\n      sstore\n      0x02\n      dup3\n      add\n      0x00\n      swap1\n      sstore\n      pop\n      pop\n        /* \"contracts/nft-market.sol\":3996:4010  idToOrderIndex */\n      0x04\n        /* \"contracts/nft-market.sol\":3996:4020  idToOrderIndex[_tokenId] */\n      0x00\n        /* \"contracts/nft-market.sol\":4011:4019  _tokenId */\n      dup5\n        /* \"contracts/nft-market.sol\":3996:4020  idToOrderIndex[_tokenId] */\n      dup2\n      mstore\n      0x20\n      add\n      swap1\n      dup2\n      mstore\n      0x20\n      add\n      0x00\n      keccak256\n        /* \"contracts/nft-market.sol\":3989:4020  delete idToOrderIndex[_tokenId] */\n      0x00\n      swap1\n      sstore\n        /* \"contracts/nft-market.sol\":3656:4027  {... */\n      pop\n      pop\n        /* \"contracts/nft-market.sol\":3608:4027  function removeOrder(uint256 _tokenId) internal {... */\n      pop\n      jump\t// out\n        /* \"#utility.yul\":7:82   */\n    tag_133:\n        /* \"#utility.yul\":40:46   */\n      0x00\n        /* \"#utility.yul\":73:75   */\n      0x40\n        /* \"#utility.yul\":67:76   */\n      mload\n        /* \"#utility.yul\":57:76   */\n      swap1\n      pop\n        /* \"#utility.yul\":7:82   */\n      swap1\n      jump\t// out\n        /* \"#utility.yul\":88:205   */\n    tag_134:\n        /* \"#utility.yul\":197:198   */\n      0x00\n        /* \"#utility.yul\":194:195   */\n      dup1\n        /* \"#utility.yul\":187:199   */\n      revert\n        /* \"#utility.yul\":211:328   */\n    tag_135:\n        /* \"#utility.yul\":320:321   */\n      0x00\n        /* \"#utility.yul\":317:318   */\n      dup1\n        /* \"#utility.yul\":310:322   */\n      revert\n        /* \"#utility.yul\":334:460   */\n    tag_136:\n        /* \"#utility.yul\":371:378   */\n      0x00\n        /* \"#utility.yul\":411:453   */\n      0xffffffffffffffffffffffffffffffffffffffff\n        /* \"#utility.yul\":404:409   */\n      dup3\n        /* \"#utility.yul\":400:454   */\n      and\n        /* \"#utility.yul\":389:454   */\n      swap1\n      pop\n        /* \"#utility.yul\":334:460   */\n      swap2\n      swap1\n      pop\n      jump\t// out\n        /* \"#utility.yul\":466:562   */\n    tag_137:\n        /* \"#utility.yul\":503:510   */\n      0x00\n        /* \"#utility.yul\":532:556   */\n      tag_188\n        /* \"#utility.yul\":550:555   */\n      dup3\n        /* \"#utility.yul\":532:556   */\n      tag_136\n      jump\t// in\n    tag_188:\n        /* \"#utility.yul\":521:556   */\n      swap1\n      pop\n        /* \"#utility.yul\":466:562   */\n      swap2\n      swap1\n      pop\n      jump\t// out\n        /* \"#utility.yul\":568:690   */\n    tag_138:\n        /* \"#utility.yul\":641:665   */\n      tag_190\n        /* \"#utility.yul\":659:664   */\n      dup2\n        /* \"#utility.yul\":641:665   */\n      tag_137\n      jump\t// in\n    tag_190:\n        /* \"#utility.yul\":634:639   */\n      dup2\n        /* \"#utility.yul\":631:666   */\n      eq\n        /* \"#utility.yul\":621:684   */\n      tag_191\n      jumpi\n        /* \"#utility.yul\":680:681   */\n      0x00\n        /* \"#utility.yul\":677:678   */\n      dup1\n        /* \"#utility.yul\":670:682   */\n      revert\n        /* \"#utility.yul\":621:684   */\n    tag_191:\n        /* \"#utility.yul\":568:690   */\n      pop\n      jump\t// out\n        /* \"#utility.yul\":696:835   */\n    tag_139:\n        /* \"#utility.yul\":742:747   */\n      0x00\n        /* \"#utility.yul\":780:786   */\n      dup2\n        /* \"#utility.yul\":767:787   */\n      calldataload\n        /* \"#utility.yul\":758:787   */\n      swap1\n      pop\n        /* \"#utility.yul\":796:829   */\n      tag_193\n        /* \"#utility.yul\":823:828   */\n      dup2\n        /* \"#utility.yul\":796:829   */\n      tag_138\n      jump\t// in\n    tag_193:\n        /* \"#utility.yul\":696:835   */\n      swap3\n      swap2\n      pop\n      pop\n      jump\t// out\n        /* \"#utility.yul\":841:918   */\n    tag_140:\n        /* \"#utility.yul\":878:885   */\n      0x00\n        /* \"#utility.yul\":907:912   */\n      dup2\n        /* \"#utility.yul\":896:912   */\n      swap1\n      pop\n        /* \"#utility.yul\":841:918   */\n      swap2\n      swap1\n      pop\n      jump\t// out\n        /* \"#utility.yul\":924:1046   */\n    tag_141:\n        /* \"#utility.yul\":997:1021   */\n      tag_196\n        /* \"#utility.yul\":1015:1020   */\n      dup2\n        /* \"#utility.yul\":997:1021   */\n      tag_140\n      jump\t// in\n    tag_196:\n        /* \"#utility.yul\":990:995   */\n      dup2\n        /* \"#utility.yul\":987:1022   */\n      eq\n        /* \"#utility.yul\":977:1040   */\n      tag_197\n      jumpi\n        /* \"#utility.yul\":1036:1037   */\n      0x00\n        /* \"#utility.yul\":1033:1034   */\n      dup1\n        /* \"#utility.yul\":1026:1038   */\n      revert\n        /* \"#utility.yul\":977:1040   */\n    tag_197:\n        /* \"#utility.yul\":924:1046   */\n      pop\n      jump\t// out\n        /* \"#utility.yul\":1052:1191   */\n    tag_142:\n        /* \"#utility.yul\":1098:1103   */\n      0x00\n        /* \"#utility.yul\":1136:1142   */\n      dup2\n        /* \"#utility.yul\":1123:1143   */\n      calldataload\n        /* \"#utility.yul\":1114:1143   */\n      swap1\n      pop\n        /* \"#utility.yul\":1152:1185   */\n      tag_199\n        /* \"#utility.yul\":1179:1184   */\n      dup2\n        /* \"#utility.yul\":1152:1185   */\n      tag_141\n      jump\t// in\n    tag_199:\n        /* \"#utility.yul\":1052:1191   */\n      swap3\n      swap2\n      pop\n      pop\n      jump\t// out\n        /* \"#utility.yul\":1197:1314   */\n    tag_143:\n        /* \"#utility.yul\":1306:1307   */\n      0x00\n        /* \"#utility.yul\":1303:1304   */\n      dup1\n        /* \"#utility.yul\":1296:1308   */\n      revert\n        /* \"#utility.yul\":1320:1437   */\n    tag_144:\n        /* \"#utility.yul\":1429:1430   */\n      0x00\n        /* \"#utility.yul\":1426:1427   */\n      dup1\n        /* \"#utility.yul\":1419:1431   */\n      revert\n        /* \"#utility.yul\":1443:1560   */\n    tag_145:\n        /* \"#utility.yul\":1552:1553   */\n      0x00\n        /* \"#utility.yul\":1549:1550   */\n      dup1\n        /* \"#utility.yul\":1542:1554   */\n      revert\n        /* \"#utility.yul\":1579:2131   */\n    tag_146:\n        /* \"#utility.yul\":1636:1644   */\n      0x00\n        /* \"#utility.yul\":1646:1652   */\n      dup1\n        /* \"#utility.yul\":1696:1699   */\n      dup4\n        /* \"#utility.yul\":1689:1693   */\n      0x1f\n        /* \"#utility.yul\":1681:1687   */\n      dup5\n        /* \"#utility.yul\":1677:1694   */\n      add\n        /* \"#utility.yul\":1673:1700   */\n      slt\n        /* \"#utility.yul\":1663:1785   */\n      tag_204\n      jumpi\n        /* \"#utility.yul\":1704:1783   */\n      tag_205\n      tag_143\n      jump\t// in\n    tag_205:\n        /* \"#utility.yul\":1663:1785   */\n    tag_204:\n        /* \"#utility.yul\":1817:1823   */\n      dup3\n        /* \"#utility.yul\":1804:1824   */\n      calldataload\n        /* \"#utility.yul\":1794:1824   */\n      swap1\n      pop\n        /* \"#utility.yul\":1847:1865   */\n      0xffffffffffffffff\n        /* \"#utility.yul\":1839:1845   */\n      dup2\n        /* \"#utility.yul\":1836:1866   */\n      gt\n        /* \"#utility.yul\":1833:1950   */\n      iszero\n      tag_206\n      jumpi\n        /* \"#utility.yul\":1869:1948   */\n      tag_207\n      tag_144\n      jump\t// in\n    tag_207:\n        /* \"#utility.yul\":1833:1950   */\n    tag_206:\n        /* \"#utility.yul\":1983:1987   */\n      0x20\n        /* \"#utility.yul\":1975:1981   */\n      dup4\n        /* \"#utility.yul\":1971:1988   */\n      add\n        /* \"#utility.yul\":1959:1988   */\n      swap2\n      pop\n        /* \"#utility.yul\":2037:2040   */\n      dup4\n        /* \"#utility.yul\":2029:2033   */\n      0x01\n        /* \"#utility.yul\":2021:2027   */\n      dup3\n        /* \"#utility.yul\":2017:2034   */\n      mul\n        /* \"#utility.yul\":2007:2015   */\n      dup4\n        /* \"#utility.yul\":2003:2035   */\n      add\n        /* \"#utility.yul\":2000:2041   */\n      gt\n        /* \"#utility.yul\":1997:2125   */\n      iszero\n      tag_208\n      jumpi\n        /* \"#utility.yul\":2044:2123   */\n      tag_209\n      tag_145\n      jump\t// in\n    tag_209:\n        /* \"#utility.yul\":1997:2125   */\n    tag_208:\n        /* \"#utility.yul\":1579:2131   */\n      swap3\n      pop\n      swap3\n      swap1\n      pop\n      jump\t// out\n        /* \"#utility.yul\":2137:3100   */\n    tag_16:\n        /* \"#utility.yul\":2234:2240   */\n      0x00\n        /* \"#utility.yul\":2242:2248   */\n      dup1\n        /* \"#utility.yul\":2250:2256   */\n      0x00\n        /* \"#utility.yul\":2258:2264   */\n      dup1\n        /* \"#utility.yul\":2266:2272   */\n      0x00\n        /* \"#utility.yul\":2315:2318   */\n      0x80\n        /* \"#utility.yul\":2303:2312   */\n      dup7\n        /* \"#utility.yul\":2294:2301   */\n      dup9\n        /* \"#utility.yul\":2290:2313   */\n      sub\n        /* \"#utility.yul\":2286:2319   */\n      slt\n        /* \"#utility.yul\":2283:2403   */\n      iszero\n      tag_211\n      jumpi\n        /* \"#utility.yul\":2322:2401   */\n      tag_212\n      tag_134\n      jump\t// in\n    tag_212:\n        /* \"#utility.yul\":2283:2403   */\n    tag_211:\n        /* \"#utility.yul\":2442:2443   */\n      0x00\n        /* \"#utility.yul\":2467:2520   */\n      tag_213\n        /* \"#utility.yul\":2512:2519   */\n      dup9\n        /* \"#utility.yul\":2503:2509   */\n      dup3\n        /* \"#utility.yul\":2492:2501   */\n      dup10\n        /* \"#utility.yul\":2488:2510   */\n      add\n        /* \"#utility.yul\":2467:2520   */\n      tag_139\n      jump\t// in\n    tag_213:\n        /* \"#utility.yul\":2457:2520   */\n      swap6\n      pop\n        /* \"#utility.yul\":2413:2530   */\n      pop\n        /* \"#utility.yul\":2569:2571   */\n      0x20\n        /* \"#utility.yul\":2595:2648   */\n      tag_214\n        /* \"#utility.yul\":2640:2647   */\n      dup9\n        /* \"#utility.yul\":2631:2637   */\n      dup3\n        /* \"#utility.yul\":2620:2629   */\n      dup10\n        /* \"#utility.yul\":2616:2638   */\n      add\n        /* \"#utility.yul\":2595:2648   */\n      tag_139\n      jump\t// in\n    tag_214:\n        /* \"#utility.yul\":2585:2648   */\n      swap5\n      pop\n        /* \"#utility.yul\":2540:2658   */\n      pop\n        /* \"#utility.yul\":2697:2699   */\n      0x40\n        /* \"#utility.yul\":2723:2776   */\n      tag_215\n        /* \"#utility.yul\":2768:2775   */\n      dup9\n        /* \"#utility.yul\":2759:2765   */\n      dup3\n        /* \"#utility.yul\":2748:2757   */\n      dup10\n        /* \"#utility.yul\":2744:2766   */\n      add\n        /* \"#utility.yul\":2723:2776   */\n      tag_142\n      jump\t// in\n    tag_215:\n        /* \"#utility.yul\":2713:2776   */\n      swap4\n      pop\n        /* \"#utility.yul\":2668:2786   */\n      pop\n        /* \"#utility.yul\":2853:2855   */\n      0x60\n        /* \"#utility.yul\":2842:2851   */\n      dup7\n        /* \"#utility.yul\":2838:2856   */\n      add\n        /* \"#utility.yul\":2825:2857   */\n      calldataload\n        /* \"#utility.yul\":2884:2902   */\n      0xffffffffffffffff\n        /* \"#utility.yul\":2876:2882   */\n      dup2\n        /* \"#utility.yul\":2873:2903   */\n      gt\n        /* \"#utility.yul\":2870:2987   */\n      iszero\n      tag_216\n      jumpi\n        /* \"#utility.yul\":2906:2985   */\n      tag_217\n      tag_135\n      jump\t// in\n    tag_217:\n        /* \"#utility.yul\":2870:2987   */\n    tag_216:\n        /* \"#utility.yul\":3019:3083   */\n      tag_218\n        /* \"#utility.yul\":3075:3082   */\n      dup9\n        /* \"#utility.yul\":3066:3072   */\n      dup3\n        /* \"#utility.yul\":3055:3064   */\n      dup10\n        /* \"#utility.yul\":3051:3073   */\n      add\n        /* \"#utility.yul\":3019:3083   */\n      tag_146\n      jump\t// in\n    tag_218:\n        /* \"#utility.yul\":3001:3083   */\n      swap3\n      pop\n      swap3\n      pop\n        /* \"#utility.yul\":2796:3093   */\n      pop\n        /* \"#utility.yul\":2137:3100   */\n      swap3\n      swap6\n      pop\n      swap3\n      swap6\n      swap1\n      swap4\n      pop\n      jump\t// out\n        /* \"#utility.yul\":3106:3255   */\n    tag_147:\n        /* \"#utility.yul\":3142:3149   */\n      0x00\n        /* \"#utility.yul\":3182:3248   */\n      0xffffffff00000000000000000000000000000000000000000000000000000000\n        /* \"#utility.yul\":3175:3180   */\n      dup3\n        /* \"#utility.yul\":3171:3249   */\n      and\n        /* \"#utility.yul\":3160:3249   */\n      swap1\n      pop\n        /* \"#utility.yul\":3106:3255   */\n      swap2\n      swap1\n      pop\n      jump\t// out\n        /* \"#utility.yul\":3261:3376   */\n    tag_148:\n        /* \"#utility.yul\":3346:3369   */\n      tag_221\n        /* \"#utility.yul\":3363:3368   */\n      dup2\n        /* \"#utility.yul\":3346:3369   */\n      tag_147\n      jump\t// in\n    tag_221:\n        /* \"#utility.yul\":3341:3344   */\n      dup3\n        /* \"#utility.yul\":3334:3370   */\n      mstore\n        /* \"#utility.yul\":3261:3376   */\n      pop\n      pop\n      jump\t// out\n        /* \"#utility.yul\":3382:3600   */\n    tag_19:\n        /* \"#utility.yul\":3473:3477   */\n      0x00\n        /* \"#utility.yul\":3511:3513   */\n      0x20\n        /* \"#utility.yul\":3500:3509   */\n      dup3\n        /* \"#utility.yul\":3496:3514   */\n      add\n        /* \"#utility.yul\":3488:3514   */\n      swap1\n      pop\n        /* \"#utility.yul\":3524:3593   */\n      tag_223\n        /* \"#utility.yul\":3590:3591   */\n      0x00\n        /* \"#utility.yul\":3579:3588   */\n      dup4\n        /* \"#utility.yul\":3575:3592   */\n      add\n        /* \"#utility.yul\":3566:3572   */\n      dup5\n        /* \"#utility.yul\":3524:3593   */\n      tag_148\n      jump\t// in\n    tag_223:\n        /* \"#utility.yul\":3382:3600   */\n      swap3\n      swap2\n      pop\n      pop\n      jump\t// out\n        /* \"#utility.yul\":3606:3935   */\n    tag_22:\n        /* \"#utility.yul\":3665:3671   */\n      0x00\n        /* \"#utility.yul\":3714:3716   */\n      0x20\n        /* \"#utility.yul\":3702:3711   */\n      dup3\n        /* \"#utility.yul\":3693:3700   */\n      dup5\n        /* \"#utility.yul\":3689:3712   */\n      sub\n        /* \"#utility.yul\":3685:3717   */\n      slt\n        /* \"#utility.yul\":3682:3801   */\n      iszero\n      tag_225\n      jumpi\n        /* \"#utility.yul\":3720:3799   */\n      tag_226\n      tag_134\n      jump\t// in\n    tag_226:\n        /* \"#utility.yul\":3682:3801   */\n    tag_225:\n        /* \"#utility.yul\":3840:3841   */\n      0x00\n        /* \"#utility.yul\":3865:3918   */\n      tag_227\n        /* \"#utility.yul\":3910:3917   */\n      dup5\n        /* \"#utility.yul\":3901:3907   */\n      dup3\n        /* \"#utility.yul\":3890:3899   */\n      dup6\n        /* \"#utility.yul\":3886:3908   */\n      add\n        /* \"#utility.yul\":3865:3918   */\n      tag_142\n      jump\t// in\n    tag_227:\n        /* \"#utility.yul\":3855:3918   */\n      swap2\n      pop\n        /* \"#utility.yul\":3811:3928   */\n      pop\n        /* \"#utility.yul\":3606:3935   */\n      swap3\n      swap2\n      pop\n      pop\n      jump\t// out\n        /* \"#utility.yul\":3941:4059   */\n    tag_149:\n        /* \"#utility.yul\":4028:4052   */\n      tag_229\n        /* \"#utility.yul\":4046:4051   */\n      dup2\n        /* \"#utility.yul\":4028:4052   */\n      tag_137\n      jump\t// in\n    tag_229:\n        /* \"#utility.yul\":4023:4026   */\n      dup3\n        /* \"#utility.yul\":4016:4053   */\n      mstore\n        /* \"#utility.yul\":3941:4059   */\n      pop\n      pop\n      jump\t// out\n        /* \"#utility.yul\":4065:4183   */\n    tag_150:\n        /* \"#utility.yul\":4152:4176   */\n      tag_231\n        /* \"#utility.yul\":4170:4175   */\n      dup2\n        /* \"#utility.yul\":4152:4176   */\n      tag_140\n      jump\t// in\n    tag_231:\n        /* \"#utility.yul\":4147:4150   */\n      dup3\n        /* \"#utility.yul\":4140:4177   */\n      mstore\n        /* \"#utility.yul\":4065:4183   */\n      pop\n      pop\n      jump\t// out\n        /* \"#utility.yul\":4189:4631   */\n    tag_25:\n        /* \"#utility.yul\":4338:4342   */\n      0x00\n        /* \"#utility.yul\":4376:4378   */\n      0x60\n        /* \"#utility.yul\":4365:4374   */\n      dup3\n        /* \"#utility.yul\":4361:4379   */\n      add\n        /* \"#utility.yul\":4353:4379   */\n      swap1\n      pop\n        /* \"#utility.yul\":4389:4460   */\n      tag_233\n        /* \"#utility.yul\":4457:4458   */\n      0x00\n        /* \"#utility.yul\":4446:4455   */\n      dup4\n        /* \"#utility.yul\":4442:4459   */\n      add\n        /* \"#utility.yul\":4433:4439   */\n      dup7\n        /* \"#utility.yul\":4389:4460   */\n      tag_149\n      jump\t// in\n    tag_233:\n        /* \"#utility.yul\":4470:4542   */\n      tag_234\n        /* \"#utility.yul\":4538:4540   */\n      0x20\n        /* \"#utility.yul\":4527:4536   */\n      dup4\n        /* \"#utility.yul\":4523:4541   */\n      add\n        /* \"#utility.yul\":4514:4520   */\n      dup6\n        /* \"#utility.yul\":4470:4542   */\n      tag_150\n      jump\t// in\n    tag_234:\n        /* \"#utility.yul\":4552:4624   */\n      tag_235\n        /* \"#utility.yul\":4620:4622   */\n      0x40\n        /* \"#utility.yul\":4609:4618   */\n      dup4\n        /* \"#utility.yul\":4605:4623   */\n      add\n        /* \"#utility.yul\":4596:4602   */\n      dup5\n        /* \"#utility.yul\":4552:4624   */\n      tag_150\n      jump\t// in\n    tag_235:\n        /* \"#utility.yul\":4189:4631   */\n      swap5\n      swap4\n      pop\n      pop\n      pop\n      pop\n      jump\t// out\n        /* \"#utility.yul\":4637:4697   */\n    tag_151:\n        /* \"#utility.yul\":4665:4668   */\n      0x00\n        /* \"#utility.yul\":4686:4691   */\n      dup2\n        /* \"#utility.yul\":4679:4691   */\n      swap1\n      pop\n        /* \"#utility.yul\":4637:4697   */\n      swap2\n      swap1\n      pop\n      jump\t// out\n        /* \"#utility.yul\":4703:4845   */\n    tag_152:\n        /* \"#utility.yul\":4753:4762   */\n      0x00\n        /* \"#utility.yul\":4786:4839   */\n      tag_238\n        /* \"#utility.yul\":4804:4838   */\n      tag_239\n        /* \"#utility.yul\":4813:4837   */\n      tag_240\n        /* \"#utility.yul\":4831:4836   */\n      dup5\n        /* \"#utility.yul\":4813:4837   */\n      tag_136\n      jump\t// in\n    tag_240:\n        /* \"#utility.yul\":4804:4838   */\n      tag_151\n      jump\t// in\n    tag_239:\n        /* \"#utility.yul\":4786:4839   */\n      tag_136\n      jump\t// in\n    tag_238:\n        /* \"#utility.yul\":4773:4839   */\n      swap1\n      pop\n        /* \"#utility.yul\":4703:4845   */\n      swap2\n      swap1\n      pop\n      jump\t// out\n        /* \"#utility.yul\":4851:4977   */\n    tag_153:\n        /* \"#utility.yul\":4901:4910   */\n      0x00\n        /* \"#utility.yul\":4934:4971   */\n      tag_242\n        /* \"#utility.yul\":4965:4970   */\n      dup3\n        /* \"#utility.yul\":4934:4971   */\n      tag_152\n      jump\t// in\n    tag_242:\n        /* \"#utility.yul\":4921:4971   */\n      swap1\n      pop\n        /* \"#utility.yul\":4851:4977   */\n      swap2\n      swap1\n      pop\n      jump\t// out\n        /* \"#utility.yul\":4983:5122   */\n    tag_154:\n        /* \"#utility.yul\":5046:5055   */\n      0x00\n        /* \"#utility.yul\":5079:5116   */\n      tag_244\n        /* \"#utility.yul\":5110:5115   */\n      dup3\n        /* \"#utility.yul\":5079:5116   */\n      tag_153\n      jump\t// in\n    tag_244:\n        /* \"#utility.yul\":5066:5116   */\n      swap1\n      pop\n        /* \"#utility.yul\":4983:5122   */\n      swap2\n      swap1\n      pop\n      jump\t// out\n        /* \"#utility.yul\":5128:5285   */\n    tag_155:\n        /* \"#utility.yul\":5228:5278   */\n      tag_246\n        /* \"#utility.yul\":5272:5277   */\n      dup2\n        /* \"#utility.yul\":5228:5278   */\n      tag_154\n      jump\t// in\n    tag_246:\n        /* \"#utility.yul\":5223:5226   */\n      dup3\n        /* \"#utility.yul\":5216:5279   */\n      mstore\n        /* \"#utility.yul\":5128:5285   */\n      pop\n      pop\n      jump\t// out\n        /* \"#utility.yul\":5291:5539   */\n    tag_32:\n        /* \"#utility.yul\":5397:5401   */\n      0x00\n        /* \"#utility.yul\":5435:5437   */\n      0x20\n        /* \"#utility.yul\":5424:5433   */\n      dup3\n        /* \"#utility.yul\":5420:5438   */\n      add\n        /* \"#utility.yul\":5412:5438   */\n      swap1\n      pop\n        /* \"#utility.yul\":5448:5532   */\n      tag_248\n        /* \"#utility.yul\":5529:5530   */\n      0x00\n        /* \"#utility.yul\":5518:5527   */\n      dup4\n        /* \"#utility.yul\":5514:5531   */\n      add\n        /* \"#utility.yul\":5505:5511   */\n      dup5\n        /* \"#utility.yul\":5448:5532   */\n      tag_155\n      jump\t// in\n    tag_248:\n        /* \"#utility.yul\":5291:5539   */\n      swap3\n      swap2\n      pop\n      pop\n      jump\t// out\n        /* \"#utility.yul\":5545:6019   */\n    tag_39:\n        /* \"#utility.yul\":5613:5619   */\n      0x00\n        /* \"#utility.yul\":5621:5627   */\n      dup1\n        /* \"#utility.yul\":5670:5672   */\n      0x40\n        /* \"#utility.yul\":5658:5667   */\n      dup4\n        /* \"#utility.yul\":5649:5656   */\n      dup6\n        /* \"#utility.yul\":5645:5668   */\n      sub\n        /* \"#utility.yul\":5641:5673   */\n      slt\n        /* \"#utility.yul\":5638:5757   */\n      iszero\n      tag_250\n      jumpi\n        /* \"#utility.yul\":5676:5755   */\n      tag_251\n      tag_134\n      jump\t// in\n    tag_251:\n        /* \"#utility.yul\":5638:5757   */\n    tag_250:\n        /* \"#utility.yul\":5796:5797   */\n      0x00\n        /* \"#utility.yul\":5821:5874   */\n      tag_252\n        /* \"#utility.yul\":5866:5873   */\n      dup6\n        /* \"#utility.yul\":5857:5863   */\n      dup3\n        /* \"#utility.yul\":5846:5855   */\n      dup7\n        /* \"#utility.yul\":5842:5864   */\n      add\n        /* \"#utility.yul\":5821:5874   */\n      tag_142\n      jump\t// in\n    tag_252:\n        /* \"#utility.yul\":5811:5874   */\n      swap3\n      pop\n        /* \"#utility.yul\":5767:5884   */\n      pop\n        /* \"#utility.yul\":5923:5925   */\n      0x20\n        /* \"#utility.yul\":5949:6002   */\n      tag_253\n        /* \"#utility.yul\":5994:6001   */\n      dup6\n        /* \"#utility.yul\":5985:5991   */\n      dup3\n        /* \"#utility.yul\":5974:5983   */\n      dup7\n        /* \"#utility.yul\":5970:5992   */\n      add\n        /* \"#utility.yul\":5949:6002   */\n      tag_142\n      jump\t// in\n    tag_253:\n        /* \"#utility.yul\":5939:6002   */\n      swap2\n      pop\n        /* \"#utility.yul\":5894:6012   */\n      pop\n        /* \"#utility.yul\":5545:6019   */\n      swap3\n      pop\n      swap3\n      swap1\n      pop\n      jump\t// out\n        /* \"#utility.yul\":6025:6142   */\n    tag_156:\n        /* \"#utility.yul\":6134:6135   */\n      0x00\n        /* \"#utility.yul\":6131:6132   */\n      dup1\n        /* \"#utility.yul\":6124:6136   */\n      revert\n        /* \"#utility.yul\":6148:6250   */\n    tag_157:\n        /* \"#utility.yul\":6189:6195   */\n      0x00\n        /* \"#utility.yul\":6240:6242   */\n      0x1f\n        /* \"#utility.yul\":6236:6243   */\n      not\n        /* \"#utility.yul\":6231:6233   */\n      0x1f\n        /* \"#utility.yul\":6224:6229   */\n      dup4\n        /* \"#utility.yul\":6220:6234   */\n      add\n        /* \"#utility.yul\":6216:6244   */\n      and\n        /* \"#utility.yul\":6206:6244   */\n      swap1\n      pop\n        /* \"#utility.yul\":6148:6250   */\n      swap2\n      swap1\n      pop\n      jump\t// out\n        /* \"#utility.yul\":6256:6436   */\n    tag_158:\n        /* \"#utility.yul\":6304:6381   */\n      0x4e487b7100000000000000000000000000000000000000000000000000000000\n        /* \"#utility.yul\":6301:6302   */\n      0x00\n        /* \"#utility.yul\":6294:6382   */\n      mstore\n        /* \"#utility.yul\":6401:6405   */\n      0x41\n        /* \"#utility.yul\":6398:6399   */\n      0x04\n        /* \"#utility.yul\":6391:6406   */\n      mstore\n        /* \"#utility.yul\":6425:6429   */\n      0x24\n        /* \"#utility.yul\":6422:6423   */\n      0x00\n        /* \"#utility.yul\":6415:6430   */\n      revert\n        /* \"#utility.yul\":6442:6723   */\n    tag_159:\n        /* \"#utility.yul\":6525:6552   */\n      tag_258\n        /* \"#utility.yul\":6547:6551   */\n      dup3\n        /* \"#utility.yul\":6525:6552   */\n      tag_157\n      jump\t// in\n    tag_258:\n        /* \"#utility.yul\":6517:6523   */\n      dup2\n        /* \"#utility.yul\":6513:6553   */\n      add\n        /* \"#utility.yul\":6655:6661   */\n      dup2\n        /* \"#utility.yul\":6643:6653   */\n      dup2\n        /* \"#utility.yul\":6640:6662   */\n      lt\n        /* \"#utility.yul\":6619:6637   */\n      0xffffffffffffffff\n        /* \"#utility.yul\":6607:6617   */\n      dup3\n        /* \"#utility.yul\":6604:6638   */\n      gt\n        /* \"#utility.yul\":6601:6663   */\n      or\n        /* \"#utility.yul\":6598:6686   */\n      iszero\n      tag_259\n      jumpi\n        /* \"#utility.yul\":6666:6684   */\n      tag_260\n      tag_158\n      jump\t// in\n    tag_260:\n        /* \"#utility.yul\":6598:6686   */\n    tag_259:\n        /* \"#utility.yul\":6706:6716   */\n      dup1\n        /* \"#utility.yul\":6702:6704   */\n      0x40\n        /* \"#utility.yul\":6695:6717   */\n      mstore\n        /* \"#utility.yul\":6485:6723   */\n      pop\n        /* \"#utility.yul\":6442:6723   */\n      pop\n      pop\n      jump\t// out\n        /* \"#utility.yul\":6729:6858   */\n    tag_160:\n        /* \"#utility.yul\":6763:6769   */\n      0x00\n        /* \"#utility.yul\":6790:6810   */\n      tag_262\n      tag_133\n      jump\t// in\n    tag_262:\n        /* \"#utility.yul\":6780:6810   */\n      swap1\n      pop\n        /* \"#utility.yul\":6819:6852   */\n      tag_263\n        /* \"#utility.yul\":6847:6851   */\n      dup3\n        /* \"#utility.yul\":6839:6845   */\n      dup3\n        /* \"#utility.yul\":6819:6852   */\n      tag_159\n      jump\t// in\n    tag_263:\n        /* \"#utility.yul\":6729:6858   */\n      swap2\n      swap1\n      pop\n      jump\t// out\n        /* \"#utility.yul\":6864:7171   */\n    tag_161:\n        /* \"#utility.yul\":6925:6929   */\n      0x00\n        /* \"#utility.yul\":7015:7033   */\n      0xffffffffffffffff\n        /* \"#utility.yul\":7007:7013   */\n      dup3\n        /* \"#utility.yul\":7004:7034   */\n      gt\n        /* \"#utility.yul\":7001:7057   */\n      iszero\n      tag_265\n      jumpi\n        /* \"#utility.yul\":7037:7055   */\n      tag_266\n      tag_158\n      jump\t// in\n    tag_266:\n        /* \"#utility.yul\":7001:7057   */\n    tag_265:\n        /* \"#utility.yul\":7075:7104   */\n      tag_267\n        /* \"#utility.yul\":7097:7103   */\n      dup3\n        /* \"#utility.yul\":7075:7104   */\n      tag_157\n      jump\t// in\n    tag_267:\n        /* \"#utility.yul\":7067:7104   */\n      swap1\n      pop\n        /* \"#utility.yul\":7159:7163   */\n      0x20\n        /* \"#utility.yul\":7153:7157   */\n      dup2\n        /* \"#utility.yul\":7149:7164   */\n      add\n        /* \"#utility.yul\":7141:7164   */\n      swap1\n      pop\n        /* \"#utility.yul\":6864:7171   */\n      swap2\n      swap1\n      pop\n      jump\t// out\n        /* \"#utility.yul\":7177:7325   */\n    tag_162:\n        /* \"#utility.yul\":7275:7281   */\n      dup3\n        /* \"#utility.yul\":7270:7273   */\n      dup2\n        /* \"#utility.yul\":7265:7268   */\n      dup4\n        /* \"#utility.yul\":7252:7282   */\n      calldatacopy\n        /* \"#utility.yul\":7316:7317   */\n      0x00\n        /* \"#utility.yul\":7307:7313   */\n      dup4\n        /* \"#utility.yul\":7302:7305   */\n      dup4\n        /* \"#utility.yul\":7298:7314   */\n      add\n        /* \"#utility.yul\":7291:7318   */\n      mstore\n        /* \"#utility.yul\":7177:7325   */\n      pop\n      pop\n      pop\n      jump\t// out\n        /* \"#utility.yul\":7331:7754   */\n    tag_163:\n        /* \"#utility.yul\":7408:7413   */\n      0x00\n        /* \"#utility.yul\":7433:7498   */\n      tag_270\n        /* \"#utility.yul\":7449:7497   */\n      tag_271\n        /* \"#utility.yul\":7490:7496   */\n      dup5\n        /* \"#utility.yul\":7449:7497   */\n      tag_161\n      jump\t// in\n    tag_271:\n        /* \"#utility.yul\":7433:7498   */\n      tag_160\n      jump\t// in\n    tag_270:\n        /* \"#utility.yul\":7424:7498   */\n      swap1\n      pop\n        /* \"#utility.yul\":7521:7527   */\n      dup3\n        /* \"#utility.yul\":7514:7519   */\n      dup2\n        /* \"#utility.yul\":7507:7528   */\n      mstore\n        /* \"#utility.yul\":7559:7563   */\n      0x20\n        /* \"#utility.yul\":7552:7557   */\n      dup2\n        /* \"#utility.yul\":7548:7564   */\n      add\n        /* \"#utility.yul\":7597:7600   */\n      dup5\n        /* \"#utility.yul\":7588:7594   */\n      dup5\n        /* \"#utility.yul\":7583:7586   */\n      dup5\n        /* \"#utility.yul\":7579:7595   */\n      add\n        /* \"#utility.yul\":7576:7601   */\n      gt\n        /* \"#utility.yul\":7573:7685   */\n      iszero\n      tag_272\n      jumpi\n        /* \"#utility.yul\":7604:7683   */\n      tag_273\n      tag_156\n      jump\t// in\n    tag_273:\n        /* \"#utility.yul\":7573:7685   */\n    tag_272:\n        /* \"#utility.yul\":7694:7748   */\n      tag_274\n        /* \"#utility.yul\":7741:7747   */\n      dup5\n        /* \"#utility.yul\":7736:7739   */\n      dup3\n        /* \"#utility.yul\":7731:7734   */\n      dup6\n        /* \"#utility.yul\":7694:7748   */\n      tag_162\n      jump\t// in\n    tag_274:\n        /* \"#utility.yul\":7414:7754   */\n      pop\n        /* \"#utility.yul\":7331:7754   */\n      swap4\n      swap3\n      pop\n      pop\n      pop\n      jump\t// out\n        /* \"#utility.yul\":7773:8111   */\n    tag_164:\n        /* \"#utility.yul\":7828:7833   */\n      0x00\n        /* \"#utility.yul\":7877:7880   */\n      dup3\n        /* \"#utility.yul\":7870:7874   */\n      0x1f\n        /* \"#utility.yul\":7862:7868   */\n      dup4\n        /* \"#utility.yul\":7858:7875   */\n      add\n        /* \"#utility.yul\":7854:7881   */\n      slt\n        /* \"#utility.yul\":7844:7966   */\n      tag_276\n      jumpi\n        /* \"#utility.yul\":7885:7964   */\n      tag_277\n      tag_143\n      jump\t// in\n    tag_277:\n        /* \"#utility.yul\":7844:7966   */\n    tag_276:\n        /* \"#utility.yul\":8002:8008   */\n      dup2\n        /* \"#utility.yul\":7989:8009   */\n      calldataload\n        /* \"#utility.yul\":8027:8105   */\n      tag_278\n        /* \"#utility.yul\":8101:8104   */\n      dup5\n        /* \"#utility.yul\":8093:8099   */\n      dup3\n        /* \"#utility.yul\":8086:8090   */\n      0x20\n        /* \"#utility.yul\":8078:8084   */\n      dup7\n        /* \"#utility.yul\":8074:8091   */\n      add\n        /* \"#utility.yul\":8027:8105   */\n      tag_163\n      jump\t// in\n    tag_278:\n        /* \"#utility.yul\":8018:8105   */\n      swap2\n      pop\n        /* \"#utility.yul\":7834:8111   */\n      pop\n        /* \"#utility.yul\":7773:8111   */\n      swap3\n      swap2\n      pop\n      pop\n      jump\t// out\n        /* \"#utility.yul\":8117:8769   */\n    tag_43:\n        /* \"#utility.yul\":8194:8200   */\n      0x00\n        /* \"#utility.yul\":8202:8208   */\n      dup1\n        /* \"#utility.yul\":8251:8253   */\n      0x40\n        /* \"#utility.yul\":8239:8248   */\n      dup4\n        /* \"#utility.yul\":8230:8237   */\n      dup6\n        /* \"#utility.yul\":8226:8249   */\n      sub\n        /* \"#utility.yul\":8222:8254   */\n      slt\n        /* \"#utility.yul\":8219:8338   */\n      iszero\n      tag_280\n      jumpi\n        /* \"#utility.yul\":8257:8336   */\n      tag_281\n      tag_134\n      jump\t// in\n    tag_281:\n        /* \"#utility.yul\":8219:8338   */\n    tag_280:\n        /* \"#utility.yul\":8405:8406   */\n      0x00\n        /* \"#utility.yul\":8394:8403   */\n      dup4\n        /* \"#utility.yul\":8390:8407   */\n      add\n        /* \"#utility.yul\":8377:8408   */\n      calldataload\n        /* \"#utility.yul\":8435:8453   */\n      0xffffffffffffffff\n        /* \"#utility.yul\":8427:8433   */\n      dup2\n        /* \"#utility.yul\":8424:8454   */\n      gt\n        /* \"#utility.yul\":8421:8538   */\n      iszero\n      tag_282\n      jumpi\n        /* \"#utility.yul\":8457:8536   */\n      tag_283\n      tag_135\n      jump\t// in\n    tag_283:\n        /* \"#utility.yul\":8421:8538   */\n    tag_282:\n        /* \"#utility.yul\":8562:8624   */\n      tag_284\n        /* \"#utility.yul\":8616:8623   */\n      dup6\n        /* \"#utility.yul\":8607:8613   */\n      dup3\n        /* \"#utility.yul\":8596:8605   */\n      dup7\n        /* \"#utility.yul\":8592:8614   */\n      add\n        /* \"#utility.yul\":8562:8624   */\n      tag_164\n      jump\t// in\n    tag_284:\n        /* \"#utility.yul\":8552:8624   */\n      swap3\n      pop\n        /* \"#utility.yul\":8348:8634   */\n      pop\n        /* \"#utility.yul\":8673:8675   */\n      0x20\n        /* \"#utility.yul\":8699:8752   */\n      tag_285\n        /* \"#utility.yul\":8744:8751   */\n      dup6\n        /* \"#utility.yul\":8735:8741   */\n      dup3\n        /* \"#utility.yul\":8724:8733   */\n      dup7\n        /* \"#utility.yul\":8720:8742   */\n      add\n        /* \"#utility.yul\":8699:8752   */\n      tag_142\n      jump\t// in\n    tag_285:\n        /* \"#utility.yul\":8689:8752   */\n      swap2\n      pop\n        /* \"#utility.yul\":8644:8762   */\n      pop\n        /* \"#utility.yul\":8117:8769   */\n      swap3\n      pop\n      swap3\n      swap1\n      pop\n      jump\t// out\n        /* \"#utility.yul\":8775:8997   */\n    tag_46:\n        /* \"#utility.yul\":8868:8872   */\n      0x00\n        /* \"#utility.yul\":8906:8908   */\n      0x20\n        /* \"#utility.yul\":8895:8904   */\n      dup3\n        /* \"#utility.yul\":8891:8909   */\n      add\n        /* \"#utility.yul\":8883:8909   */\n      swap1\n      pop\n        /* \"#utility.yul\":8919:8990   */\n      tag_287\n        /* \"#utility.yul\":8987:8988   */\n      0x00\n        /* \"#utility.yul\":8976:8985   */\n      dup4\n        /* \"#utility.yul\":8972:8989   */\n      add\n        /* \"#utility.yul\":8963:8969   */\n      dup5\n        /* \"#utility.yul\":8919:8990   */\n      tag_150\n      jump\t// in\n    tag_287:\n        /* \"#utility.yul\":8775:8997   */\n      swap3\n      swap2\n      pop\n      pop\n      jump\t// out\n        /* \"#utility.yul\":9003:9144   */\n    tag_165:\n        /* \"#utility.yul\":9068:9077   */\n      0x00\n        /* \"#utility.yul\":9101:9138   */\n      tag_289\n        /* \"#utility.yul\":9132:9137   */\n      dup3\n        /* \"#utility.yul\":9101:9138   */\n      tag_153\n      jump\t// in\n    tag_289:\n        /* \"#utility.yul\":9088:9138   */\n      swap1\n      pop\n        /* \"#utility.yul\":9003:9144   */\n      swap2\n      swap1\n      pop\n      jump\t// out\n        /* \"#utility.yul\":9150:9311   */\n    tag_166:\n        /* \"#utility.yul\":9252:9304   */\n      tag_291\n        /* \"#utility.yul\":9298:9303   */\n      dup2\n        /* \"#utility.yul\":9252:9304   */\n      tag_165\n      jump\t// in\n    tag_291:\n        /* \"#utility.yul\":9247:9250   */\n      dup3\n        /* \"#utility.yul\":9240:9305   */\n      mstore\n        /* \"#utility.yul\":9150:9311   */\n      pop\n      pop\n      jump\t// out\n        /* \"#utility.yul\":9317:9569   */\n    tag_50:\n        /* \"#utility.yul\":9425:9429   */\n      0x00\n        /* \"#utility.yul\":9463:9465   */\n      0x20\n        /* \"#utility.yul\":9452:9461   */\n      dup3\n        /* \"#utility.yul\":9448:9466   */\n      add\n        /* \"#utility.yul\":9440:9466   */\n      swap1\n      pop\n        /* \"#utility.yul\":9476:9562   */\n      tag_293\n        /* \"#utility.yul\":9559:9560   */\n      0x00\n        /* \"#utility.yul\":9548:9557   */\n      dup4\n        /* \"#utility.yul\":9544:9561   */\n      add\n        /* \"#utility.yul\":9535:9541   */\n      dup5\n        /* \"#utility.yul\":9476:9562   */\n      tag_166\n      jump\t// in\n    tag_293:\n        /* \"#utility.yul\":9317:9569   */\n      swap3\n      swap2\n      pop\n      pop\n      jump\t// out\n        /* \"#utility.yul\":9575:9744   */\n    tag_167:\n        /* \"#utility.yul\":9659:9670   */\n      0x00\n        /* \"#utility.yul\":9693:9699   */\n      dup3\n        /* \"#utility.yul\":9688:9691   */\n      dup3\n        /* \"#utility.yul\":9681:9700   */\n      mstore\n        /* \"#utility.yul\":9733:9737   */\n      0x20\n        /* \"#utility.yul\":9728:9731   */\n      dup3\n        /* \"#utility.yul\":9724:9738   */\n      add\n        /* \"#utility.yul\":9709:9738   */\n      swap1\n      pop\n        /* \"#utility.yul\":9575:9744   */\n      swap3\n      swap2\n      pop\n      pop\n      jump\t// out\n        /* \"#utility.yul\":9750:9928   */\n    tag_168:\n        /* \"#utility.yul\":9890:9920   */\n      0x7072696365206d7573742062652067726561746572207468616e203000000000\n        /* \"#utility.yul\":9886:9887   */\n      0x00\n        /* \"#utility.yul\":9878:9884   */\n      dup3\n        /* \"#utility.yul\":9874:9888   */\n      add\n        /* \"#utility.yul\":9867:9921   */\n      mstore\n        /* \"#utility.yul\":9750:9928   */\n      pop\n      jump\t// out\n        /* \"#utility.yul\":9934:10300   */\n    tag_169:\n        /* \"#utility.yul\":10076:10079   */\n      0x00\n        /* \"#utility.yul\":10097:10164   */\n      tag_297\n        /* \"#utility.yul\":10161:10163   */\n      0x1c\n        /* \"#utility.yul\":10156:10159   */\n      dup4\n        /* \"#utility.yul\":10097:10164   */\n      tag_167\n      jump\t// in\n    tag_297:\n        /* \"#utility.yul\":10090:10164   */\n      swap2\n      pop\n        /* \"#utility.yul\":10173:10266   */\n      tag_298\n        /* \"#utility.yul\":10262:10265   */\n      dup3\n        /* \"#utility.yul\":10173:10266   */\n      tag_168\n      jump\t// in\n    tag_298:\n        /* \"#utility.yul\":10291:10293   */\n      0x20\n        /* \"#utility.yul\":10286:10289   */\n      dup3\n        /* \"#utility.yul\":10282:10294   */\n      add\n        /* \"#utility.yul\":10275:10294   */\n      swap1\n      pop\n        /* \"#utility.yul\":9934:10300   */\n      swap2\n      swap1\n      pop\n      jump\t// out\n        /* \"#utility.yul\":10306:10725   */\n    tag_62:\n        /* \"#utility.yul\":10472:10476   */\n      0x00\n        /* \"#utility.yul\":10510:10512   */\n      0x20\n        /* \"#utility.yul\":10499:10508   */\n      dup3\n        /* \"#utility.yul\":10495:10513   */\n      add\n        /* \"#utility.yul\":10487:10513   */\n      swap1\n      pop\n        /* \"#utility.yul\":10559:10568   */\n      dup2\n        /* \"#utility.yul\":10553:10557   */\n      dup2\n        /* \"#utility.yul\":10549:10569   */\n      sub\n        /* \"#utility.yul\":10545:10546   */\n      0x00\n        /* \"#utility.yul\":10534:10543   */\n      dup4\n        /* \"#utility.yul\":10530:10547   */\n      add\n        /* \"#utility.yul\":10523:10570   */\n      mstore\n        /* \"#utility.yul\":10587:10718   */\n      tag_300\n        /* \"#utility.yul\":10713:10717   */\n      dup2\n        /* \"#utility.yul\":10587:10718   */\n      tag_169\n      jump\t// in\n    tag_300:\n        /* \"#utility.yul\":10579:10718   */\n      swap1\n      pop\n        /* \"#utility.yul\":10306:10725   */\n      swap2\n      swap1\n      pop\n      jump\t// out\n        /* \"#utility.yul\":10731:10911   */\n    tag_170:\n        /* \"#utility.yul\":10779:10856   */\n      0x4e487b7100000000000000000000000000000000000000000000000000000000\n        /* \"#utility.yul\":10776:10777   */\n      0x00\n        /* \"#utility.yul\":10769:10857   */\n      mstore\n        /* \"#utility.yul\":10876:10880   */\n      0x11\n        /* \"#utility.yul\":10873:10874   */\n      0x04\n        /* \"#utility.yul\":10866:10881   */\n      mstore\n        /* \"#utility.yul\":10900:10904   */\n      0x24\n        /* \"#utility.yul\":10897:10898   */\n      0x00\n        /* \"#utility.yul\":10890:10905   */\n      revert\n        /* \"#utility.yul\":10917:11111   */\n    tag_65:\n        /* \"#utility.yul\":10957:10961   */\n      0x00\n        /* \"#utility.yul\":10977:10997   */\n      tag_303\n        /* \"#utility.yul\":10995:10996   */\n      dup3\n        /* \"#utility.yul\":10977:10997   */\n      tag_140\n      jump\t// in\n    tag_303:\n        /* \"#utility.yul\":10972:10997   */\n      swap2\n      pop\n        /* \"#utility.yul\":11011:11031   */\n      tag_304\n        /* \"#utility.yul\":11029:11030   */\n      dup4\n        /* \"#utility.yul\":11011:11031   */\n      tag_140\n      jump\t// in\n    tag_304:\n        /* \"#utility.yul\":11006:11031   */\n      swap3\n      pop\n        /* \"#utility.yul\":11055:11056   */\n      dup3\n        /* \"#utility.yul\":11052:11053   */\n      dup3\n        /* \"#utility.yul\":11048:11057   */\n      sub\n        /* \"#utility.yul\":11040:11057   */\n      swap1\n      pop\n        /* \"#utility.yul\":11079:11080   */\n      dup2\n        /* \"#utility.yul\":11073:11077   */\n      dup2\n        /* \"#utility.yul\":11070:11081   */\n      gt\n        /* \"#utility.yul\":11067:11104   */\n      iszero\n      tag_305\n      jumpi\n        /* \"#utility.yul\":11084:11102   */\n      tag_306\n      tag_170\n      jump\t// in\n    tag_306:\n        /* \"#utility.yul\":11067:11104   */\n    tag_305:\n        /* \"#utility.yul\":10917:11111   */\n      swap3\n      swap2\n      pop\n      pop\n      jump\t// out\n        /* \"#utility.yul\":11117:11281   */\n    tag_171:\n        /* \"#utility.yul\":11257:11273   */\n      0x6e6f74207468652073656c6c6572000000000000000000000000000000000000\n        /* \"#utility.yul\":11253:11254   */\n      0x00\n        /* \"#utility.yul\":11245:11251   */\n      dup3\n        /* \"#utility.yul\":11241:11255   */\n      add\n        /* \"#utility.yul\":11234:11274   */\n      mstore\n        /* \"#utility.yul\":11117:11281   */\n      pop\n      jump\t// out\n        /* \"#utility.yul\":11287:11653   */\n    tag_172:\n        /* \"#utility.yul\":11429:11432   */\n      0x00\n        /* \"#utility.yul\":11450:11517   */\n      tag_309\n        /* \"#utility.yul\":11514:11516   */\n      0x0e\n        /* \"#utility.yul\":11509:11512   */\n      dup4\n        /* \"#utility.yul\":11450:11517   */\n      tag_167\n      jump\t// in\n    tag_309:\n        /* \"#utility.yul\":11443:11517   */\n      swap2\n      pop\n        /* \"#utility.yul\":11526:11619   */\n      tag_310\n        /* \"#utility.yul\":11615:11618   */\n      dup3\n        /* \"#utility.yul\":11526:11619   */\n      tag_171\n      jump\t// in\n    tag_310:\n        /* \"#utility.yul\":11644:11646   */\n      0x20\n        /* \"#utility.yul\":11639:11642   */\n      dup3\n        /* \"#utility.yul\":11635:11647   */\n      add\n        /* \"#utility.yul\":11628:11647   */\n      swap1\n      pop\n        /* \"#utility.yul\":11287:11653   */\n      swap2\n      swap1\n      pop\n      jump\t// out\n        /* \"#utility.yul\":11659:12078   */\n    tag_70:\n        /* \"#utility.yul\":11825:11829   */\n      0x00\n        /* \"#utility.yul\":11863:11865   */\n      0x20\n        /* \"#utility.yul\":11852:11861   */\n      dup3\n        /* \"#utility.yul\":11848:11866   */\n      add\n        /* \"#utility.yul\":11840:11866   */\n      swap1\n      pop\n        /* \"#utility.yul\":11912:11921   */\n      dup2\n        /* \"#utility.yul\":11906:11910   */\n      dup2\n        /* \"#utility.yul\":11902:11922   */\n      sub\n        /* \"#utility.yul\":11898:11899   */\n      0x00\n        /* \"#utility.yul\":11887:11896   */\n      dup4\n        /* \"#utility.yul\":11883:11900   */\n      add\n        /* \"#utility.yul\":11876:11923   */\n      mstore\n        /* \"#utility.yul\":11940:12071   */\n      tag_312\n        /* \"#utility.yul\":12066:12070   */\n      dup2\n        /* \"#utility.yul\":11940:12071   */\n      tag_172\n      jump\t// in\n    tag_312:\n        /* \"#utility.yul\":11932:12071   */\n      swap1\n      pop\n        /* \"#utility.yul\":11659:12078   */\n      swap2\n      swap1\n      pop\n      jump\t// out\n        /* \"#utility.yul\":12084:12526   */\n    tag_72:\n        /* \"#utility.yul\":12233:12237   */\n      0x00\n        /* \"#utility.yul\":12271:12273   */\n      0x60\n        /* \"#utility.yul\":12260:12269   */\n      dup3\n        /* \"#utility.yul\":12256:12274   */\n      add\n        /* \"#utility.yul\":12248:12274   */\n      swap1\n      pop\n        /* \"#utility.yul\":12284:12355   */\n      tag_314\n        /* \"#utility.yul\":12352:12353   */\n      0x00\n        /* \"#utility.yul\":12341:12350   */\n      dup4\n        /* \"#utility.yul\":12337:12354   */\n      add\n        /* \"#utility.yul\":12328:12334   */\n      dup7\n        /* \"#utility.yul\":12284:12355   */\n      tag_149\n      jump\t// in\n    tag_314:\n        /* \"#utility.yul\":12365:12437   */\n      tag_315\n        /* \"#utility.yul\":12433:12435   */\n      0x20\n        /* \"#utility.yul\":12422:12431   */\n      dup4\n        /* \"#utility.yul\":12418:12436   */\n      add\n        /* \"#utility.yul\":12409:12415   */\n      dup6\n        /* \"#utility.yul\":12365:12437   */\n      tag_149\n      jump\t// in\n    tag_315:\n        /* \"#utility.yul\":12447:12519   */\n      tag_316\n        /* \"#utility.yul\":12515:12517   */\n      0x40\n        /* \"#utility.yul\":12504:12513   */\n      dup4\n        /* \"#utility.yul\":12500:12518   */\n      add\n        /* \"#utility.yul\":12491:12497   */\n      dup5\n        /* \"#utility.yul\":12447:12519   */\n      tag_150\n      jump\t// in\n    tag_316:\n        /* \"#utility.yul\":12084:12526   */\n      swap5\n      swap4\n      pop\n      pop\n      pop\n      pop\n      jump\t// out\n        /* \"#utility.yul\":12532:12864   */\n    tag_79:\n        /* \"#utility.yul\":12653:12657   */\n      0x00\n        /* \"#utility.yul\":12691:12693   */\n      0x40\n        /* \"#utility.yul\":12680:12689   */\n      dup3\n        /* \"#utility.yul\":12676:12694   */\n      add\n        /* \"#utility.yul\":12668:12694   */\n      swap1\n      pop\n        /* \"#utility.yul\":12704:12775   */\n      tag_318\n        /* \"#utility.yul\":12772:12773   */\n      0x00\n        /* \"#utility.yul\":12761:12770   */\n      dup4\n        /* \"#utility.yul\":12757:12774   */\n      add\n        /* \"#utility.yul\":12748:12754   */\n      dup6\n        /* \"#utility.yul\":12704:12775   */\n      tag_149\n      jump\t// in\n    tag_318:\n        /* \"#utility.yul\":12785:12857   */\n      tag_319\n        /* \"#utility.yul\":12853:12855   */\n      0x20\n        /* \"#utility.yul\":12842:12851   */\n      dup4\n        /* \"#utility.yul\":12838:12856   */\n      add\n        /* \"#utility.yul\":12829:12835   */\n      dup5\n        /* \"#utility.yul\":12785:12857   */\n      tag_150\n      jump\t// in\n    tag_319:\n        /* \"#utility.yul\":12532:12864   */\n      swap4\n      swap3\n      pop\n      pop\n      pop\n      jump\t// out\n        /* \"#utility.yul\":12870:13050   */\n    tag_89:\n        /* \"#utility.yul\":12918:12995   */\n      0x4e487b7100000000000000000000000000000000000000000000000000000000\n        /* \"#utility.yul\":12915:12916   */\n      0x00\n        /* \"#utility.yul\":12908:12996   */\n      mstore\n        /* \"#utility.yul\":13015:13019   */\n      0x32\n        /* \"#utility.yul\":13012:13013   */\n      0x04\n        /* \"#utility.yul\":13005:13020   */\n      mstore\n        /* \"#utility.yul\":13039:13043   */\n      0x24\n        /* \"#utility.yul\":13036:13037   */\n      0x00\n        /* \"#utility.yul\":13029:13044   */\n      revert\n        /* \"#utility.yul\":13056:13609   */\n    tag_92:\n        /* \"#utility.yul\":13233:13237   */\n      0x00\n        /* \"#utility.yul\":13271:13274   */\n      0x80\n        /* \"#utility.yul\":13260:13269   */\n      dup3\n        /* \"#utility.yul\":13256:13275   */\n      add\n        /* \"#utility.yul\":13248:13275   */\n      swap1\n      pop\n        /* \"#utility.yul\":13285:13356   */\n      tag_322\n        /* \"#utility.yul\":13353:13354   */\n      0x00\n        /* \"#utility.yul\":13342:13351   */\n      dup4\n        /* \"#utility.yul\":13338:13355   */\n      add\n        /* \"#utility.yul\":13329:13335   */\n      dup8\n        /* \"#utility.yul\":13285:13356   */\n      tag_149\n      jump\t// in\n    tag_322:\n        /* \"#utility.yul\":13366:13438   */\n      tag_323\n        /* \"#utility.yul\":13434:13436   */\n      0x20\n        /* \"#utility.yul\":13423:13432   */\n      dup4\n        /* \"#utility.yul\":13419:13437   */\n      add\n        /* \"#utility.yul\":13410:13416   */\n      dup7\n        /* \"#utility.yul\":13366:13438   */\n      tag_150\n      jump\t// in\n    tag_323:\n        /* \"#utility.yul\":13448:13520   */\n      tag_324\n        /* \"#utility.yul\":13516:13518   */\n      0x40\n        /* \"#utility.yul\":13505:13514   */\n      dup4\n        /* \"#utility.yul\":13501:13519   */\n      add\n        /* \"#utility.yul\":13492:13498   */\n      dup6\n        /* \"#utility.yul\":13448:13520   */\n      tag_150\n      jump\t// in\n    tag_324:\n        /* \"#utility.yul\":13530:13602   */\n      tag_325\n        /* \"#utility.yul\":13598:13600   */\n      0x60\n        /* \"#utility.yul\":13587:13596   */\n      dup4\n        /* \"#utility.yul\":13583:13601   */\n      add\n        /* \"#utility.yul\":13574:13580   */\n      dup5\n        /* \"#utility.yul\":13530:13602   */\n      tag_150\n      jump\t// in\n    tag_325:\n        /* \"#utility.yul\":13056:13609   */\n      swap6\n      swap5\n      pop\n      pop\n      pop\n      pop\n      pop\n      jump\t// out\n        /* \"#utility.yul\":13615:13806   */\n    tag_96:\n        /* \"#utility.yul\":13655:13658   */\n      0x00\n        /* \"#utility.yul\":13674:13694   */\n      tag_327\n        /* \"#utility.yul\":13692:13693   */\n      dup3\n        /* \"#utility.yul\":13674:13694   */\n      tag_140\n      jump\t// in\n    tag_327:\n        /* \"#utility.yul\":13669:13694   */\n      swap2\n      pop\n        /* \"#utility.yul\":13708:13728   */\n      tag_328\n        /* \"#utility.yul\":13726:13727   */\n      dup4\n        /* \"#utility.yul\":13708:13728   */\n      tag_140\n      jump\t// in\n    tag_328:\n        /* \"#utility.yul\":13703:13728   */\n      swap3\n      pop\n        /* \"#utility.yul\":13751:13752   */\n      dup3\n        /* \"#utility.yul\":13748:13749   */\n      dup3\n        /* \"#utility.yul\":13744:13753   */\n      add\n        /* \"#utility.yul\":13737:13753   */\n      swap1\n      pop\n        /* \"#utility.yul\":13772:13775   */\n      dup1\n        /* \"#utility.yul\":13769:13770   */\n      dup3\n        /* \"#utility.yul\":13766:13776   */\n      gt\n        /* \"#utility.yul\":13763:13799   */\n      iszero\n      tag_329\n      jumpi\n        /* \"#utility.yul\":13779:13797   */\n      tag_330\n      tag_170\n      jump\t// in\n    tag_330:\n        /* \"#utility.yul\":13763:13799   */\n    tag_329:\n        /* \"#utility.yul\":13615:13806   */\n      swap3\n      swap2\n      pop\n      pop\n      jump\t// out\n        /* \"#utility.yul\":13812:13988   */\n    tag_173:\n        /* \"#utility.yul\":13952:13980   */\n      0x4d61726b65743a20746f55696e743235365f6f766572666c6f77000000000000\n        /* \"#utility.yul\":13948:13949   */\n      0x00\n        /* \"#utility.yul\":13940:13946   */\n      dup3\n        /* \"#utility.yul\":13936:13950   */\n      add\n        /* \"#utility.yul\":13929:13981   */\n      mstore\n        /* \"#utility.yul\":13812:13988   */\n      pop\n      jump\t// out\n        /* \"#utility.yul\":13994:14360   */\n    tag_174:\n        /* \"#utility.yul\":14136:14139   */\n      0x00\n        /* \"#utility.yul\":14157:14224   */\n      tag_333\n        /* \"#utility.yul\":14221:14223   */\n      0x1a\n        /* \"#utility.yul\":14216:14219   */\n      dup4\n        /* \"#utility.yul\":14157:14224   */\n      tag_167\n      jump\t// in\n    tag_333:\n        /* \"#utility.yul\":14150:14224   */\n      swap2\n      pop\n        /* \"#utility.yul\":14233:14326   */\n      tag_334\n        /* \"#utility.yul\":14322:14325   */\n      dup3\n        /* \"#utility.yul\":14233:14326   */\n      tag_173\n      jump\t// in\n    tag_334:\n        /* \"#utility.yul\":14351:14353   */\n      0x20\n        /* \"#utility.yul\":14346:14349   */\n      dup3\n        /* \"#utility.yul\":14342:14354   */\n      add\n        /* \"#utility.yul\":14335:14354   */\n      swap1\n      pop\n        /* \"#utility.yul\":13994:14360   */\n      swap2\n      swap1\n      pop\n      jump\t// out\n        /* \"#utility.yul\":14366:14785   */\n    tag_99:\n        /* \"#utility.yul\":14532:14536   */\n      0x00\n        /* \"#utility.yul\":14570:14572   */\n      0x20\n        /* \"#utility.yul\":14559:14568   */\n      dup3\n        /* \"#utility.yul\":14555:14573   */\n      add\n        /* \"#utility.yul\":14547:14573   */\n      swap1\n      pop\n        /* \"#utility.yul\":14619:14628   */\n      dup2\n        /* \"#utility.yul\":14613:14617   */\n      dup2\n        /* \"#utility.yul\":14609:14629   */\n      sub\n        /* \"#utility.yul\":14605:14606   */\n      0x00\n        /* \"#utility.yul\":14594:14603   */\n      dup4\n        /* \"#utility.yul\":14590:14607   */\n      add\n        /* \"#utility.yul\":14583:14630   */\n      mstore\n        /* \"#utility.yul\":14647:14778   */\n      tag_336\n        /* \"#utility.yul\":14773:14777   */\n      dup2\n        /* \"#utility.yul\":14647:14778   */\n      tag_174\n      jump\t// in\n    tag_336:\n        /* \"#utility.yul\":14639:14778   */\n      swap1\n      pop\n        /* \"#utility.yul\":14366:14785   */\n      swap2\n      swap1\n      pop\n      jump\t// out\n        /* \"#utility.yul\":14791:14970   */\n    tag_175:\n        /* \"#utility.yul\":14931:14962   */\n      0x4d61726b65743a20746f55696e743235365f6f75744f66426f756e6473000000\n        /* \"#utility.yul\":14927:14928   */\n      0x00\n        /* \"#utility.yul\":14919:14925   */\n      dup3\n        /* \"#utility.yul\":14915:14929   */\n      add\n        /* \"#utility.yul\":14908:14963   */\n      mstore\n        /* \"#utility.yul\":14791:14970   */\n      pop\n      jump\t// out\n        /* \"#utility.yul\":14976:15342   */\n    tag_176:\n        /* \"#utility.yul\":15118:15121   */\n      0x00\n        /* \"#utility.yul\":15139:15206   */\n      tag_339\n        /* \"#utility.yul\":15203:15205   */\n      0x1d\n        /* \"#utility.yul\":15198:15201   */\n      dup4\n        /* \"#utility.yul\":15139:15206   */\n      tag_167\n      jump\t// in\n    tag_339:\n        /* \"#utility.yul\":15132:15206   */\n      swap2\n      pop\n        /* \"#utility.yul\":15215:15308   */\n      tag_340\n        /* \"#utility.yul\":15304:15307   */\n      dup3\n        /* \"#utility.yul\":15215:15308   */\n      tag_175\n      jump\t// in\n    tag_340:\n        /* \"#utility.yul\":15333:15335   */\n      0x20\n        /* \"#utility.yul\":15328:15331   */\n      dup3\n        /* \"#utility.yul\":15324:15336   */\n      add\n        /* \"#utility.yul\":15317:15336   */\n      swap1\n      pop\n        /* \"#utility.yul\":14976:15342   */\n      swap2\n      swap1\n      pop\n      jump\t// out\n        /* \"#utility.yul\":15348:15767   */\n    tag_103:\n        /* \"#utility.yul\":15514:15518   */\n      0x00\n        /* \"#utility.yul\":15552:15554   */\n      0x20\n        /* \"#utility.yul\":15541:15550   */\n      dup3\n        /* \"#utility.yul\":15537:15555   */\n      add\n        /* \"#utility.yul\":15529:15555   */\n      swap1\n      pop\n        /* \"#utility.yul\":15601:15610   */\n      dup2\n        /* \"#utility.yul\":15595:15599   */\n      dup2\n        /* \"#utility.yul\":15591:15611   */\n      sub\n        /* \"#utility.yul\":15587:15588   */\n      0x00\n        /* \"#utility.yul\":15576:15585   */\n      dup4\n        /* \"#utility.yul\":15572:15589   */\n      add\n        /* \"#utility.yul\":15565:15612   */\n      mstore\n        /* \"#utility.yul\":15629:15760   */\n      tag_342\n        /* \"#utility.yul\":15755:15759   */\n      dup2\n        /* \"#utility.yul\":15629:15760   */\n      tag_176\n      jump\t// in\n    tag_342:\n        /* \"#utility.yul\":15621:15760   */\n      swap1\n      pop\n        /* \"#utility.yul\":15348:15767   */\n      swap2\n      swap1\n      pop\n      jump\t// out\n        /* \"#utility.yul\":15773:15863   */\n    tag_177:\n        /* \"#utility.yul\":15807:15814   */\n      0x00\n        /* \"#utility.yul\":15850:15855   */\n      dup2\n        /* \"#utility.yul\":15843:15856   */\n      iszero\n        /* \"#utility.yul\":15836:15857   */\n      iszero\n        /* \"#utility.yul\":15825:15857   */\n      swap1\n      pop\n        /* \"#utility.yul\":15773:15863   */\n      swap2\n      swap1\n      pop\n      jump\t// out\n        /* \"#utility.yul\":15869:15985   */\n    tag_178:\n        /* \"#utility.yul\":15939:15960   */\n      tag_345\n        /* \"#utility.yul\":15954:15959   */\n      dup2\n        /* \"#utility.yul\":15939:15960   */\n      tag_177\n      jump\t// in\n    tag_345:\n        /* \"#utility.yul\":15932:15937   */\n      dup2\n        /* \"#utility.yul\":15929:15961   */\n      eq\n        /* \"#utility.yul\":15919:15979   */\n      tag_346\n      jumpi\n        /* \"#utility.yul\":15975:15976   */\n      0x00\n        /* \"#utility.yul\":15972:15973   */\n      dup1\n        /* \"#utility.yul\":15965:15977   */\n      revert\n        /* \"#utility.yul\":15919:15979   */\n    tag_346:\n        /* \"#utility.yul\":15869:15985   */\n      pop\n      jump\t// out\n        /* \"#utility.yul\":15991:16128   */\n    tag_179:\n        /* \"#utility.yul\":16045:16050   */\n      0x00\n        /* \"#utility.yul\":16076:16082   */\n      dup2\n        /* \"#utility.yul\":16070:16083   */\n      mload\n        /* \"#utility.yul\":16061:16083   */\n      swap1\n      pop\n        /* \"#utility.yul\":16092:16122   */\n      tag_348\n        /* \"#utility.yul\":16116:16121   */\n      dup2\n        /* \"#utility.yul\":16092:16122   */\n      tag_178\n      jump\t// in\n    tag_348:\n        /* \"#utility.yul\":15991:16128   */\n      swap3\n      swap2\n      pop\n      pop\n      jump\t// out\n        /* \"#utility.yul\":16134:16479   */\n    tag_109:\n        /* \"#utility.yul\":16201:16207   */\n      0x00\n        /* \"#utility.yul\":16250:16252   */\n      0x20\n        /* \"#utility.yul\":16238:16247   */\n      dup3\n        /* \"#utility.yul\":16229:16236   */\n      dup5\n        /* \"#utility.yul\":16225:16248   */\n      sub\n        /* \"#utility.yul\":16221:16253   */\n      slt\n        /* \"#utility.yul\":16218:16337   */\n      iszero\n      tag_350\n      jumpi\n        /* \"#utility.yul\":16256:16335   */\n      tag_351\n      tag_134\n      jump\t// in\n    tag_351:\n        /* \"#utility.yul\":16218:16337   */\n    tag_350:\n        /* \"#utility.yul\":16376:16377   */\n      0x00\n        /* \"#utility.yul\":16401:16462   */\n      tag_352\n        /* \"#utility.yul\":16454:16461   */\n      dup5\n        /* \"#utility.yul\":16445:16451   */\n      dup3\n        /* \"#utility.yul\":16434:16443   */\n      dup6\n        /* \"#utility.yul\":16430:16452   */\n      add\n        /* \"#utility.yul\":16401:16462   */\n      tag_179\n      jump\t// in\n    tag_352:\n        /* \"#utility.yul\":16391:16462   */\n      swap2\n      pop\n        /* \"#utility.yul\":16347:16472   */\n      pop\n        /* \"#utility.yul\":16134:16479   */\n      swap3\n      swap2\n      pop\n      pop\n      jump\t// out\n        /* \"#utility.yul\":16485:16658   */\n    tag_180:\n        /* \"#utility.yul\":16625:16650   */\n      0x7472616e73666572206e6f74207375636365737366756c000000000000000000\n        /* \"#utility.yul\":16621:16622   */\n      0x00\n        /* \"#utility.yul\":16613:16619   */\n      dup3\n        /* \"#utility.yul\":16609:16623   */\n      add\n        /* \"#utility.yul\":16602:16651   */\n      mstore\n        /* \"#utility.yul\":16485:16658   */\n      pop\n      jump\t// out\n        /* \"#utility.yul\":16664:17030   */\n    tag_181:\n        /* \"#utility.yul\":16806:16809   */\n      0x00\n        /* \"#utility.yul\":16827:16894   */\n      tag_355\n        /* \"#utility.yul\":16891:16893   */\n      0x17\n        /* \"#utility.yul\":16886:16889   */\n      dup4\n        /* \"#utility.yul\":16827:16894   */\n      tag_167\n      jump\t// in\n    tag_355:\n        /* \"#utility.yul\":16820:16894   */\n      swap2\n      pop\n        /* \"#utility.yul\":16903:16996   */\n      tag_356\n        /* \"#utility.yul\":16992:16995   */\n      dup3\n        /* \"#utility.yul\":16903:16996   */\n      tag_180\n      jump\t// in\n    tag_356:\n        /* \"#utility.yul\":17021:17023   */\n      0x20\n        /* \"#utility.yul\":17016:17019   */\n      dup3\n        /* \"#utility.yul\":17012:17024   */\n      add\n        /* \"#utility.yul\":17005:17024   */\n      swap1\n      pop\n        /* \"#utility.yul\":16664:17030   */\n      swap2\n      swap1\n      pop\n      jump\t// out\n        /* \"#utility.yul\":17036:17455   */\n    tag_112:\n        /* \"#utility.yul\":17202:17206   */\n      0x00\n        /* \"#utility.yul\":17240:17242   */\n      0x20\n        /* \"#utility.yul\":17229:17238   */\n      dup3\n        /* \"#utility.yul\":17225:17243   */\n      add\n        /* \"#utility.yul\":17217:17243   */\n      swap1\n      pop\n        /* \"#utility.yul\":17289:17298   */\n      dup2\n        /* \"#utility.yul\":17283:17287   */\n      dup2\n        /* \"#utility.yul\":17279:17299   */\n      sub\n        /* \"#utility.yul\":17275:17276   */\n      0x00\n        /* \"#utility.yul\":17264:17273   */\n      dup4\n        /* \"#utility.yul\":17260:17277   */\n      add\n        /* \"#utility.yul\":17253:17300   */\n      mstore\n        /* \"#utility.yul\":17317:17448   */\n      tag_358\n        /* \"#utility.yul\":17443:17447   */\n      dup2\n        /* \"#utility.yul\":17317:17448   */\n      tag_181\n      jump\t// in\n    tag_358:\n        /* \"#utility.yul\":17309:17448   */\n      swap1\n      pop\n        /* \"#utility.yul\":17036:17455   */\n      swap2\n      swap1\n      pop\n      jump\t// out\n        /* \"#utility.yul\":17461:18014   */\n    tag_119:\n        /* \"#utility.yul\":17638:17642   */\n      0x00\n        /* \"#utility.yul\":17676:17679   */\n      0x80\n        /* \"#utility.yul\":17665:17674   */\n      dup3\n        /* \"#utility.yul\":17661:17680   */\n      add\n        /* \"#utility.yul\":17653:17680   */\n      swap1\n      pop\n        /* \"#utility.yul\":17690:17761   */\n      tag_360\n        /* \"#utility.yul\":17758:17759   */\n      0x00\n        /* \"#utility.yul\":17747:17756   */\n      dup4\n        /* \"#utility.yul\":17743:17760   */\n      add\n        /* \"#utility.yul\":17734:17740   */\n      dup8\n        /* \"#utility.yul\":17690:17761   */\n      tag_149\n      jump\t// in\n    tag_360:\n        /* \"#utility.yul\":17771:17843   */\n      tag_361\n        /* \"#utility.yul\":17839:17841   */\n      0x20\n        /* \"#utility.yul\":17828:17837   */\n      dup4\n        /* \"#utility.yul\":17824:17842   */\n      add\n        /* \"#utility.yul\":17815:17821   */\n      dup7\n        /* \"#utility.yul\":17771:17843   */\n      tag_149\n      jump\t// in\n    tag_361:\n        /* \"#utility.yul\":17853:17925   */\n      tag_362\n        /* \"#utility.yul\":17921:17923   */\n      0x40\n        /* \"#utility.yul\":17910:17919   */\n      dup4\n        /* \"#utility.yul\":17906:17924   */\n      add\n        /* \"#utility.yul\":17897:17903   */\n      dup6\n        /* \"#utility.yul\":17853:17925   */\n      tag_150\n      jump\t// in\n    tag_362:\n        /* \"#utility.yul\":17935:18007   */\n      tag_363\n        /* \"#utility.yul\":18003:18005   */\n      0x60\n        /* \"#utility.yul\":17992:18001   */\n      dup4\n        /* \"#utility.yul\":17988:18006   */\n      add\n        /* \"#utility.yul\":17979:17985   */\n      dup5\n        /* \"#utility.yul\":17935:18007   */\n      tag_150\n      jump\t// in\n    tag_363:\n        /* \"#utility.yul\":17461:18014   */\n      swap6\n      swap5\n      pop\n      pop\n      pop\n      pop\n      pop\n      jump\t// out\n        /* \"#utility.yul\":18020:18200   */\n    tag_131:\n        /* \"#utility.yul\":18068:18145   */\n      0x4e487b7100000000000000000000000000000000000000000000000000000000\n        /* \"#utility.yul\":18065:18066   */\n      0x00\n        /* \"#utility.yul\":18058:18146   */\n      mstore\n        /* \"#utility.yul\":18165:18169   */\n      0x31\n        /* \"#utility.yul\":18162:18163   */\n      0x04\n        /* \"#utility.yul\":18155:18170   */\n      mstore\n        /* \"#utility.yul\":18189:18193   */\n      0x24\n        /* \"#utility.yul\":18186:18187   */\n      0x00\n        /* \"#utility.yul\":18179:18194   */\n      revert\n\n    auxdata: 0xa26469706673582212207a3e28868ab36294352dbf9ff31bc0d847088830f37b3a411435ee383f8dfe4e64736f6c63430008190033\n}\n",
				"bytecode": {
					"linkReferences": {},
					"object": "608060405234801561000f575f80fd5b5060405161198c38038061198c833981810160405281019061003191906101f1565b5f73ffffffffffffffffffffffffffffffffffffffff168273ffffffffffffffffffffffffffffffffffffffff160361009f576040517f08c379a000000000000000000000000000000000000000000000000000000000815260040161009690610289565b60405180910390fd5b5f73ffffffffffffffffffffffffffffffffffffffff168173ffffffffffffffffffffffffffffffffffffffff160361010d576040517f08c379a000000000000000000000000000000000000000000000000000000000815260040161010490610289565b60405180910390fd5b815f806101000a81548173ffffffffffffffffffffffffffffffffffffffff021916908373ffffffffffffffffffffffffffffffffffffffff1602179055508060015f6101000a81548173ffffffffffffffffffffffffffffffffffffffff021916908373ffffffffffffffffffffffffffffffffffffffff16021790555050506102a7565b5f80fd5b5f73ffffffffffffffffffffffffffffffffffffffff82169050919050565b5f6101c082610197565b9050919050565b6101d0816101b6565b81146101da575f80fd5b50565b5f815190506101eb816101c7565b92915050565b5f806040838503121561020757610206610193565b5b5f610214858286016101dd565b9250506020610225858286016101dd565b9150509250929050565b5f82825260208201905092915050565b7f7a65726f206164647265737300000000000000000000000000000000000000005f82015250565b5f610273600c8361022f565b915061027e8261023f565b602082019050919050565b5f6020820190508181035f8301526102a081610267565b9050919050565b6116d8806102b45f395ff3fe608060405234801561000f575f80fd5b506004361061009c575f3560e01c8063b3de019c11610064578063b3de019c1461016e578063b5cdf9241461018a578063bca6ce64146101ba578063d96a094a146101d8578063da694df0146101f45761009c565b8063150b7a02146100a0578063394a9077146100d0578063514fcac714610102578063785e9e861461011e578063a85c38ef1461013c575b5f80fd5b6100ba60048036038101906100b59190610e70565b610224565b6040516100c79190610f2e565b60405180910390f35b6100ea60048036038101906100e59190610f47565b6104b2565b6040516100f993929190610f90565b60405180910390f35b61011c60048036038101906101179190610f47565b6104f7565b005b61012661066c565b6040516101339190611020565b60405180910390f35b61015660048036038101906101519190610f47565b61068f565b60405161016593929190610f90565b60405180910390f35b61018860048036038101906101839190611039565b6106e3565b005b6101a4600480360381019061019f91906111af565b6108b8565b6040516101b19190611209565b60405180910390f35b6101c261096c565b6040516101cf9190611242565b60405180910390f35b6101f260048036038101906101ed9190610f47565b610991565b005b61020e60048036038101906102099190610f47565b610b95565b60405161021b9190611209565b60405180910390f35b5f8061027384848080601f0160208091040260200160405190810160405280939291908181526020018383808284375f81840152601f19601f820116905080830192505050505050505f6108b8565b90505f81116102b7576040517f08c379a00000000000000000000000000000000000000000000000000000000081526004016102ae906112b5565b60405180910390fd5b5f60405180606001604052808873ffffffffffffffffffffffffffffffffffffffff168152602001878152602001838152509050600360405180606001604052808973ffffffffffffffffffffffffffffffffffffffff16815260200188815260200184815250908060018154018082558091505060019003905f5260205f2090600302015f909190919091505f820151815f015f6101000a81548173ffffffffffffffffffffffffffffffffffffffff021916908373ffffffffffffffffffffffffffffffffffffffff1602179055506020820151816001015560408201518160020155505060405180606001604052808873ffffffffffffffffffffffffffffffffffffffff1681526020018781526020018381525060025f8881526020019081526020015f205f820151815f015f6101000a81548173ffffffffffffffffffffffffffffffffffffffff021916908373ffffffffffffffffffffffffffffffffffffffff1602179055506020820151816001015560408201518160020155905050600160038054905061044d9190611300565b60045f8881526020019081526020015f20819055507fd5b509e657d5ec37ae4bdcab658b7340c0453bb630516d26623359a34c1cecf387878460405161049593929190610f90565b60405180910390a163150b7a0260e01b9250505095945050505050565b6002602052805f5260405f205f91509050805f015f9054906101000a900473ffffffffffffffffffffffffffffffffffffffff16908060010154908060020154905083565b5f60025f8381526020019081526020015f205f015f9054906101000a900473ffffffffffffffffffffffffffffffffffffffff1690508073ffffffffffffffffffffffffffffffffffffffff163373ffffffffffffffffffffffffffffffffffffffff161461059b576040517f08c379a00000000000000000000000000000000000000000000000000000000081526004016105929061137d565b60405180910390fd5b60015f9054906101000a900473ffffffffffffffffffffffffffffffffffffffff1673ffffffffffffffffffffffffffffffffffffffff166342842e0e3083856040518463ffffffff1660e01b81526004016105f99392919061139b565b5f604051808303815f87803b158015610610575f80fd5b505af1158015610622573d5f803e3d5ffd5b5050505061062f82610baa565b7fdd003742fb214507783ce004fe55f5ac14f89c6de4a7cd7487e47eb091c6226581836040516106609291906113d0565b60405180910390a15050565b5f8054906101000a900473ffffffffffffffffffffffffffffffffffffffff1681565b6003818154811061069e575f80fd5b905f5260205f2090600302015f91509050805f015f9054906101000a900473ffffffffffffffffffffffffffffffffffffffff16908060010154908060020154905083565b5f60025f8481526020019081526020015f205f015f9054906101000a900473ffffffffffffffffffffffffffffffffffffffff1690508073ffffffffffffffffffffffffffffffffffffffff163373ffffffffffffffffffffffffffffffffffffffff1614610787576040517f08c379a000000000000000000000000000000000000000000000000000000000815260040161077e9061137d565b60405180910390fd5b5f82116107c9576040517f08c379a00000000000000000000000000000000000000000000000000000000081526004016107c0906112b5565b60405180910390fd5b5f60025f8581526020019081526020015f206002015490508260025f8681526020019081526020015f20600201819055505f600360045f8781526020019081526020015f2054815481106108205761081f6113f7565b5b905f5260205f20906003020190507fdac6aecd066304d15a41e8e590fc5ab5bf93634f43cba363f743d5e158d79988838684876040516108639493929190611424565b60405180910390a18381600201819055507fdac6aecd066304d15a41e8e590fc5ab5bf93634f43cba363f743d5e158d79988838684876040516108a99493929190611424565b60405180910390a15050505050565b5f816020836108c79190611467565b1015610908576040517f08c379a00000000000000000000000000000000000000000000000000000000081526004016108ff906114e4565b60405180910390fd5b6020826109159190611467565b83511015610958576040517f08c379a000000000000000000000000000000000000000000000000000000000815260040161094f9061154c565b60405180910390fd5b5f8260208501015190508091505092915050565b60015f9054906101000a900473ffffffffffffffffffffffffffffffffffffffff1681565b5f60025f8381526020019081526020015f205f015f9054906101000a900473ffffffffffffffffffffffffffffffffffffffff1690505f3390505f60025f8581526020019081526020015f206002015490505f8054906101000a900473ffffffffffffffffffffffffffffffffffffffff1673ffffffffffffffffffffffffffffffffffffffff166323b872dd8385846040518463ffffffff1660e01b8152600401610a3f9392919061139b565b6020604051808303815f875af1158015610a5b573d5f803e3d5ffd5b505050506040513d601f19601f82011682018060405250810190610a7f919061159f565b610abe576040517f08c379a0000000000000000000000000000000000000000000000000000000008152600401610ab590611614565b60405180910390fd5b60015f9054906101000a900473ffffffffffffffffffffffffffffffffffffffff1673ffffffffffffffffffffffffffffffffffffffff166342842e0e3084876040518463ffffffff1660e01b8152600401610b1c9392919061139b565b5f604051808303815f87803b158015610b33575f80fd5b505af1158015610b45573d5f803e3d5ffd5b50505050610b5284610baa565b7f424d5e5f0192c7dacdbe646ca31b00299146d883d76a95ef5cddbac7cd342eab83838684604051610b879493929190611632565b60405180910390a150505050565b6004602052805f5260405f205f915090505481565b5f60045f8381526020019081526020015f205490505f6001600380549050610bd29190611300565b9050808214610cb5575f60038281548110610bf057610bef6113f7565b5b905f5260205f20906003020190508060038481548110610c1357610c126113f7565b5b905f5260205f2090600302015f82015f9054906101000a900473ffffffffffffffffffffffffffffffffffffffff16815f015f6101000a81548173ffffffffffffffffffffffffffffffffffffffff021916908373ffffffffffffffffffffffffffffffffffffffff16021790555060018201548160010155600282015481600201559050508260045f836001015481526020019081526020015f2081905550505b6003805480610cc757610cc6611675565b5b600190038181905f5260205f2090600302015f8082015f6101000a81549073ffffffffffffffffffffffffffffffffffffffff0219169055600182015f9055600282015f90555050905560025f8481526020019081526020015f205f8082015f6101000a81549073ffffffffffffffffffffffffffffffffffffffff0219169055600182015f9055600282015f9055505060045f8481526020019081526020015f205f9055505050565b5f604051905090565b5f80fd5b5f80fd5b5f73ffffffffffffffffffffffffffffffffffffffff82169050919050565b5f610dab82610d82565b9050919050565b610dbb81610da1565b8114610dc5575f80fd5b50565b5f81359050610dd681610db2565b92915050565b5f819050919050565b610dee81610ddc565b8114610df8575f80fd5b50565b5f81359050610e0981610de5565b92915050565b5f80fd5b5f80fd5b5f80fd5b5f8083601f840112610e3057610e2f610e0f565b5b8235905067ffffffffffffffff811115610e4d57610e4c610e13565b5b602083019150836001820283011115610e6957610e68610e17565b5b9250929050565b5f805f805f60808688031215610e8957610e88610d7a565b5b5f610e9688828901610dc8565b9550506020610ea788828901610dc8565b9450506040610eb888828901610dfb565b935050606086013567ffffffffffffffff811115610ed957610ed8610d7e565b5b610ee588828901610e1b565b92509250509295509295909350565b5f7fffffffff0000000000000000000000000000000000000000000000000000000082169050919050565b610f2881610ef4565b82525050565b5f602082019050610f415f830184610f1f565b92915050565b5f60208284031215610f5c57610f5b610d7a565b5b5f610f6984828501610dfb565b91505092915050565b610f7b81610da1565b82525050565b610f8a81610ddc565b82525050565b5f606082019050610fa35f830186610f72565b610fb06020830185610f81565b610fbd6040830184610f81565b949350505050565b5f819050919050565b5f610fe8610fe3610fde84610d82565b610fc5565b610d82565b9050919050565b5f610ff982610fce565b9050919050565b5f61100a82610fef565b9050919050565b61101a81611000565b82525050565b5f6020820190506110335f830184611011565b92915050565b5f806040838503121561104f5761104e610d7a565b5b5f61105c85828601610dfb565b925050602061106d85828601610dfb565b9150509250929050565b5f80fd5b5f601f19601f8301169050919050565b7f4e487b71000000000000000000000000000000000000000000000000000000005f52604160045260245ffd5b6110c18261107b565b810181811067ffffffffffffffff821117156110e0576110df61108b565b5b80604052505050565b5f6110f2610d71565b90506110fe82826110b8565b919050565b5f67ffffffffffffffff82111561111d5761111c61108b565b5b6111268261107b565b9050602081019050919050565b828183375f83830152505050565b5f61115361114e84611103565b6110e9565b90508281526020810184848401111561116f5761116e611077565b5b61117a848285611133565b509392505050565b5f82601f83011261119657611195610e0f565b5b81356111a6848260208601611141565b91505092915050565b5f80604083850312156111c5576111c4610d7a565b5b5f83013567ffffffffffffffff8111156111e2576111e1610d7e565b5b6111ee85828601611182565b92505060206111ff85828601610dfb565b9150509250929050565b5f60208201905061121c5f830184610f81565b92915050565b5f61122c82610fef565b9050919050565b61123c81611222565b82525050565b5f6020820190506112555f830184611233565b92915050565b5f82825260208201905092915050565b7f7072696365206d7573742062652067726561746572207468616e2030000000005f82015250565b5f61129f601c8361125b565b91506112aa8261126b565b602082019050919050565b5f6020820190508181035f8301526112cc81611293565b9050919050565b7f4e487b71000000000000000000000000000000000000000000000000000000005f52601160045260245ffd5b5f61130a82610ddc565b915061131583610ddc565b925082820390508181111561132d5761132c6112d3565b5b92915050565b7f6e6f74207468652073656c6c65720000000000000000000000000000000000005f82015250565b5f611367600e8361125b565b915061137282611333565b602082019050919050565b5f6020820190508181035f8301526113948161135b565b9050919050565b5f6060820190506113ae5f830186610f72565b6113bb6020830185610f72565b6113c86040830184610f81565b949350505050565b5f6040820190506113e35f830185610f72565b6113f06020830184610f81565b9392505050565b7f4e487b71000000000000000000000000000000000000000000000000000000005f52603260045260245ffd5b5f6080820190506114375f830187610f72565b6114446020830186610f81565b6114516040830185610f81565b61145e6060830184610f81565b95945050505050565b5f61147182610ddc565b915061147c83610ddc565b9250828201905080821115611494576114936112d3565b5b92915050565b7f4d61726b65743a20746f55696e743235365f6f766572666c6f770000000000005f82015250565b5f6114ce601a8361125b565b91506114d98261149a565b602082019050919050565b5f6020820190508181035f8301526114fb816114c2565b9050919050565b7f4d61726b65743a20746f55696e743235365f6f75744f66426f756e64730000005f82015250565b5f611536601d8361125b565b915061154182611502565b602082019050919050565b5f6020820190508181035f8301526115638161152a565b9050919050565b5f8115159050919050565b61157e8161156a565b8114611588575f80fd5b50565b5f8151905061159981611575565b92915050565b5f602082840312156115b4576115b3610d7a565b5b5f6115c18482850161158b565b91505092915050565b7f7472616e73666572206e6f74207375636365737366756c0000000000000000005f82015250565b5f6115fe60178361125b565b9150611609826115ca565b602082019050919050565b5f6020820190508181035f83015261162b816115f2565b9050919050565b5f6080820190506116455f830187610f72565b6116526020830186610f72565b61165f6040830185610f81565b61166c6060830184610f81565b95945050505050565b7f4e487b71000000000000000000000000000000000000000000000000000000005f52603160045260245ffdfea26469706673582212207a3e28868ab36294352dbf9ff31bc0d847088830f37b3a411435ee383f8dfe4e64736f6c63430008190033",
					"opcodes": "PUSH1 0x80 PUSH1 0x40 MSTORE CALLVALUE DUP1 ISZERO PUSH2 0xF JUMPI PUSH0 DUP1 REVERT JUMPDEST POP PUSH1 0x40 MLOAD PUSH2 0x198C CODESIZE SUB DUP1 PUSH2 0x198C DUP4 CODECOPY DUP2 DUP2 ADD PUSH1 0x40 MSTORE DUP2 ADD SWAP1 PUSH2 0x31 SWAP2 SWAP1 PUSH2 0x1F1 JUMP JUMPDEST PUSH0 PUSH20 0xFFFFFFFFFFFFFFFFFFFFFFFFFFFFFFFFFFFFFFFF AND DUP3 PUSH20 0xFFFFFFFFFFFFFFFFFFFFFFFFFFFFFFFFFFFFFFFF AND SUB PUSH2 0x9F JUMPI PUSH1 0x40 MLOAD PUSH32 0x8C379A000000000000000000000000000000000000000000000000000000000 DUP2 MSTORE PUSH1 0x4 ADD PUSH2 0x96 SWAP1 PUSH2 0x289 JUMP JUMPDEST PUSH1 0x40 MLOAD DUP1 SWAP2 SUB SWAP1 REVERT JUMPDEST PUSH0 PUSH20 0xFFFFFFFFFFFFFFFFFFFFFFFFFFFFFFFFFFFFFFFF AND DUP2 PUSH20 0xFFFFFFFFFFFFFFFFFFFFFFFFFFFFFFFFFFFFFFFF AND SUB PUSH2 0x10D JUMPI PUSH1 0x40 MLOAD PUSH32 0x8C379A000000000000000000000000000000000000000000000000000000000 DUP2 MSTORE PUSH1 0x4 ADD PUSH2 0x104 SWAP1 PUSH2 0x289 JUMP JUMPDEST PUSH1 0x40 MLOAD DUP1 SWAP2 SUB SWAP1 REVERT JUMPDEST DUP2 PUSH0 DUP1 PUSH2 0x100 EXP DUP2 SLOAD DUP2 PUSH20 0xFFFFFFFFFFFFFFFFFFFFFFFFFFFFFFFFFFFFFFFF MUL NOT AND SWAP1 DUP4 PUSH20 0xFFFFFFFFFFFFFFFFFFFFFFFFFFFFFFFFFFFFFFFF AND MUL OR SWAP1 SSTORE POP DUP1 PUSH1 0x1 PUSH0 PUSH2 0x100 EXP DUP2 SLOAD DUP2 PUSH20 0xFFFFFFFFFFFFFFFFFFFFFFFFFFFFFFFFFFFFFFFF MUL NOT AND SWAP1 DUP4 PUSH20 0xFFFFFFFFFFFFFFFFFFFFFFFFFFFFFFFFFFFFFFFF AND MUL OR SWAP1 SSTORE POP POP POP PUSH2 0x2A7 JUMP JUMPDEST PUSH0 DUP1 REVERT JUMPDEST PUSH0 PUSH20 0xFFFFFFFFFFFFFFFFFFFFFFFFFFFFFFFFFFFFFFFF DUP3 AND SWAP1 POP SWAP2 SWAP1 POP JUMP JUMPDEST PUSH0 PUSH2 0x1C0 DUP3 PUSH2 0x197 JUMP JUMPDEST SWAP1 POP SWAP2 SWAP1 POP JUMP JUMPDEST PUSH2 0x1D0 DUP2 PUSH2 0x1B6 JUMP JUMPDEST DUP2 EQ PUSH2 0x1DA JUMPI PUSH0 DUP1 REVERT JUMPDEST POP JUMP JUMPDEST PUSH0 DUP2 MLOAD SWAP1 POP PUSH2 0x1EB DUP2 PUSH2 0x1C7 JUMP JUMPDEST SWAP3 SWAP2 POP POP JUMP JUMPDEST PUSH0 DUP1 PUSH1 0x40 DUP4 DUP6 SUB SLT ISZERO PUSH2 0x207 JUMPI PUSH2 0x206 PUSH2 0x193 JUMP JUMPDEST JUMPDEST PUSH0 PUSH2 0x214 DUP6 DUP3 DUP7 ADD PUSH2 0x1DD JUMP JUMPDEST SWAP3 POP POP PUSH1 0x20 PUSH2 0x225 DUP6 DUP3 DUP7 ADD PUSH2 0x1DD JUMP JUMPDEST SWAP2 POP POP SWAP3 POP SWAP3 SWAP1 POP JUMP JUMPDEST PUSH0 DUP3 DUP3 MSTORE PUSH1 0x20 DUP3 ADD SWAP1 POP SWAP3 SWAP2 POP POP JUMP JUMPDEST PUSH32 0x7A65726F20616464726573730000000000000000000000000000000000000000 PUSH0 DUP3 ADD MSTORE POP JUMP JUMPDEST PUSH0 PUSH2 0x273 PUSH1 0xC DUP4 PUSH2 0x22F JUMP JUMPDEST SWAP2 POP PUSH2 0x27E DUP3 PUSH2 0x23F JUMP JUMPDEST PUSH1 0x20 DUP3 ADD SWAP1 POP SWAP2 SWAP1 POP JUMP JUMPDEST PUSH0 PUSH1 0x20 DUP3 ADD SWAP1 POP DUP2 DUP2 SUB PUSH0 DUP4 ADD MSTORE PUSH2 0x2A0 DUP2 PUSH2 0x267 JUMP JUMPDEST SWAP1 POP SWAP2 SWAP1 POP JUMP JUMPDEST PUSH2 0x16D8 DUP1 PUSH2 0x2B4 PUSH0 CODECOPY PUSH0 RETURN INVALID PUSH1 0x80 PUSH1 0x40 MSTORE CALLVALUE DUP1 ISZERO PUSH2 0xF JUMPI PUSH0 DUP1 REVERT JUMPDEST POP PUSH1 0x4 CALLDATASIZE LT PUSH2 0x9C JUMPI PUSH0 CALLDATALOAD PUSH1 0xE0 SHR DUP1 PUSH4 0xB3DE019C GT PUSH2 0x64 JUMPI DUP1 PUSH4 0xB3DE019C EQ PUSH2 0x16E JUMPI DUP1 PUSH4 0xB5CDF924 EQ PUSH2 0x18A JUMPI DUP1 PUSH4 0xBCA6CE64 EQ PUSH2 0x1BA JUMPI DUP1 PUSH4 0xD96A094A EQ PUSH2 0x1D8 JUMPI DUP1 PUSH4 0xDA694DF0 EQ PUSH2 0x1F4 JUMPI PUSH2 0x9C JUMP JUMPDEST DUP1 PUSH4 0x150B7A02 EQ PUSH2 0xA0 JUMPI DUP1 PUSH4 0x394A9077 EQ PUSH2 0xD0 JUMPI DUP1 PUSH4 0x514FCAC7 EQ PUSH2 0x102 JUMPI DUP1 PUSH4 0x785E9E86 EQ PUSH2 0x11E JUMPI DUP1 PUSH4 0xA85C38EF EQ PUSH2 0x13C JUMPI JUMPDEST PUSH0 DUP1 REVERT JUMPDEST PUSH2 0xBA PUSH1 0x4 DUP1 CALLDATASIZE SUB DUP2 ADD SWAP1 PUSH2 0xB5 SWAP2 SWAP1 PUSH2 0xE70 JUMP JUMPDEST PUSH2 0x224 JUMP JUMPDEST PUSH1 0x40 MLOAD PUSH2 0xC7 SWAP2 SWAP1 PUSH2 0xF2E JUMP JUMPDEST PUSH1 0x40 MLOAD DUP1 SWAP2 SUB SWAP1 RETURN JUMPDEST PUSH2 0xEA PUSH1 0x4 DUP1 CALLDATASIZE SUB DUP2 ADD SWAP1 PUSH2 0xE5 SWAP2 SWAP1 PUSH2 0xF47 JUMP JUMPDEST PUSH2 0x4B2 JUMP JUMPDEST PUSH1 0x40 MLOAD PUSH2 0xF9 SWAP4 SWAP3 SWAP2 SWAP1 PUSH2 0xF90 JUMP JUMPDEST PUSH1 0x40 MLOAD DUP1 SWAP2 SUB SWAP1 RETURN JUMPDEST PUSH2 0x11C PUSH1 0x4 DUP1 CALLDATASIZE SUB DUP2 ADD SWAP1 PUSH2 0x117 SWAP2 SWAP1 PUSH2 0xF47 JUMP JUMPDEST PUSH2 0x4F7 JUMP JUMPDEST STOP JUMPDEST PUSH2 0x126 PUSH2 0x66C JUMP JUMPDEST PUSH1 0x40 MLOAD PUSH2 0x133 SWAP2 SWAP1 PUSH2 0x1020 JUMP JUMPDEST PUSH1 0x40 MLOAD DUP1 SWAP2 SUB SWAP1 RETURN JUMPDEST PUSH2 0x156 PUSH1 0x4 DUP1 CALLDATASIZE SUB DUP2 ADD SWAP1 PUSH2 0x151 SWAP2 SWAP1 PUSH2 0xF47 JUMP JUMPDEST PUSH2 0x68F JUMP JUMPDEST PUSH1 0x40 MLOAD PUSH2 0x165 SWAP4 SWAP3 SWAP2 SWAP1 PUSH2 0xF90 JUMP JUMPDEST PUSH1 0x40 MLOAD DUP1 SWAP2 SUB SWAP1 RETURN JUMPDEST PUSH2 0x188 PUSH1 0x4 DUP1 CALLDATASIZE SUB DUP2 ADD SWAP1 PUSH2 0x183 SWAP2 SWAP1 PUSH2 0x1039 JUMP JUMPDEST PUSH2 0x6E3 JUMP JUMPDEST STOP JUMPDEST PUSH2 0x1A4 PUSH1 0x4 DUP1 CALLDATASIZE SUB DUP2 ADD SWAP1 PUSH2 0x19F SWAP2 SWAP1 PUSH2 0x11AF JUMP JUMPDEST PUSH2 0x8B8 JUMP JUMPDEST PUSH1 0x40 MLOAD PUSH2 0x1B1 SWAP2 SWAP1 PUSH2 0x1209 JUMP JUMPDEST PUSH1 0x40 MLOAD DUP1 SWAP2 SUB SWAP1 RETURN JUMPDEST PUSH2 0x1C2 PUSH2 0x96C JUMP JUMPDEST PUSH1 0x40 MLOAD PUSH2 0x1CF SWAP2 SWAP1 PUSH2 0x1242 JUMP JUMPDEST PUSH1 0x40 MLOAD DUP1 SWAP2 SUB SWAP1 RETURN JUMPDEST PUSH2 0x1F2 PUSH1 0x4 DUP1 CALLDATASIZE SUB DUP2 ADD SWAP1 PUSH2 0x1ED SWAP2 SWAP1 PUSH2 0xF47 JUMP JUMPDEST PUSH2 0x991 JUMP JUMPDEST STOP JUMPDEST PUSH2 0x20E PUSH1 0x4 DUP1 CALLDATASIZE SUB DUP2 ADD SWAP1 PUSH2 0x209 SWAP2 SWAP1 PUSH2 0xF47 JUMP JUMPDEST PUSH2 0xB95 JUMP JUMPDEST PUSH1 0x40 MLOAD PUSH2 0x21B SWAP2 SWAP1 PUSH2 0x1209 JUMP JUMPDEST PUSH1 0x40 MLOAD DUP1 SWAP2 SUB SWAP1 RETURN JUMPDEST PUSH0 DUP1 PUSH2 0x273 DUP5 DUP5 DUP1 DUP1 PUSH1 0x1F ADD PUSH1 0x20 DUP1 SWAP2 DIV MUL PUSH1 0x20 ADD PUSH1 0x40 MLOAD SWAP1 DUP2 ADD PUSH1 0x40 MSTORE DUP1 SWAP4 SWAP3 SWAP2 SWAP1 DUP2 DUP2 MSTORE PUSH1 0x20 ADD DUP4 DUP4 DUP1 DUP3 DUP5 CALLDATACOPY PUSH0 DUP2 DUP5 ADD MSTORE PUSH1 0x1F NOT PUSH1 0x1F DUP3 ADD AND SWAP1 POP DUP1 DUP4 ADD SWAP3 POP POP POP POP POP POP POP PUSH0 PUSH2 0x8B8 JUMP JUMPDEST SWAP1 POP PUSH0 DUP2 GT PUSH2 0x2B7 JUMPI PUSH1 0x40 MLOAD PUSH32 0x8C379A000000000000000000000000000000000000000000000000000000000 DUP2 MSTORE PUSH1 0x4 ADD PUSH2 0x2AE SWAP1 PUSH2 0x12B5 JUMP JUMPDEST PUSH1 0x40 MLOAD DUP1 SWAP2 SUB SWAP1 REVERT JUMPDEST PUSH0 PUSH1 0x40 MLOAD DUP1 PUSH1 0x60 ADD PUSH1 0x40 MSTORE DUP1 DUP9 PUSH20 0xFFFFFFFFFFFFFFFFFFFFFFFFFFFFFFFFFFFFFFFF AND DUP2 MSTORE PUSH1 0x20 ADD DUP8 DUP2 MSTORE PUSH1 0x20 ADD DUP4 DUP2 MSTORE POP SWAP1 POP PUSH1 0x3 PUSH1 0x40 MLOAD DUP1 PUSH1 0x60 ADD PUSH1 0x40 MSTORE DUP1 DUP10 PUSH20 0xFFFFFFFFFFFFFFFFFFFFFFFFFFFFFFFFFFFFFFFF AND DUP2 MSTORE PUSH1 0x20 ADD DUP9 DUP2 MSTORE PUSH1 0x20 ADD DUP5 DUP2 MSTORE POP SWAP1 DUP1 PUSH1 0x1 DUP2 SLOAD ADD DUP1 DUP3 SSTORE DUP1 SWAP2 POP POP PUSH1 0x1 SWAP1 SUB SWAP1 PUSH0 MSTORE PUSH1 0x20 PUSH0 KECCAK256 SWAP1 PUSH1 0x3 MUL ADD PUSH0 SWAP1 SWAP2 SWAP1 SWAP2 SWAP1 SWAP2 POP PUSH0 DUP3 ADD MLOAD DUP2 PUSH0 ADD PUSH0 PUSH2 0x100 EXP DUP2 SLOAD DUP2 PUSH20 0xFFFFFFFFFFFFFFFFFFFFFFFFFFFFFFFFFFFFFFFF MUL NOT AND SWAP1 DUP4 PUSH20 0xFFFFFFFFFFFFFFFFFFFFFFFFFFFFFFFFFFFFFFFF AND MUL OR SWAP1 SSTORE POP PUSH1 0x20 DUP3 ADD MLOAD DUP2 PUSH1 0x1 ADD SSTORE PUSH1 0x40 DUP3 ADD MLOAD DUP2 PUSH1 0x2 ADD SSTORE POP POP PUSH1 0x40 MLOAD DUP1 PUSH1 0x60 ADD PUSH1 0x40 MSTORE DUP1 DUP9 PUSH20 0xFFFFFFFFFFFFFFFFFFFFFFFFFFFFFFFFFFFFFFFF AND DUP2 MSTORE PUSH1 0x20 ADD DUP8 DUP2 MSTORE PUSH1 0x20 ADD DUP4 DUP2 MSTORE POP PUSH1 0x2 PUSH0 DUP9 DUP2 MSTORE PUSH1 0x20 ADD SWAP1 DUP2 MSTORE PUSH1 0x20 ADD PUSH0 KECCAK256 PUSH0 DUP3 ADD MLOAD DUP2 PUSH0 ADD PUSH0 PUSH2 0x100 EXP DUP2 SLOAD DUP2 PUSH20 0xFFFFFFFFFFFFFFFFFFFFFFFFFFFFFFFFFFFFFFFF MUL NOT AND SWAP1 DUP4 PUSH20 0xFFFFFFFFFFFFFFFFFFFFFFFFFFFFFFFFFFFFFFFF AND MUL OR SWAP1 SSTORE POP PUSH1 0x20 DUP3 ADD MLOAD DUP2 PUSH1 0x1 ADD SSTORE PUSH1 0x40 DUP3 ADD MLOAD DUP2 PUSH1 0x2 ADD SSTORE SWAP1 POP POP PUSH1 0x1 PUSH1 0x3 DUP1 SLOAD SWAP1 POP PUSH2 0x44D SWAP2 SWAP1 PUSH2 0x1300 JUMP JUMPDEST PUSH1 0x4 PUSH0 DUP9 DUP2 MSTORE PUSH1 0x20 ADD SWAP1 DUP2 MSTORE PUSH1 0x20 ADD PUSH0 KECCAK256 DUP2 SWAP1 SSTORE POP PUSH32 0xD5B509E657D5EC37AE4BDCAB658B7340C0453BB630516D26623359A34C1CECF3 DUP8 DUP8 DUP5 PUSH1 0x40 MLOAD PUSH2 0x495 SWAP4 SWAP3 SWAP2 SWAP1 PUSH2 0xF90 JUMP JUMPDEST PUSH1 0x40 MLOAD DUP1 SWAP2 SUB SWAP1 LOG1 PUSH4 0x150B7A02 PUSH1 0xE0 SHL SWAP3 POP POP POP SWAP6 SWAP5 POP POP POP POP POP JUMP JUMPDEST PUSH1 0x2 PUSH1 0x20 MSTORE DUP1 PUSH0 MSTORE PUSH1 0x40 PUSH0 KECCAK256 PUSH0 SWAP2 POP SWAP1 POP DUP1 PUSH0 ADD PUSH0 SWAP1 SLOAD SWAP1 PUSH2 0x100 EXP SWAP1 DIV PUSH20 0xFFFFFFFFFFFFFFFFFFFFFFFFFFFFFFFFFFFFFFFF AND SWAP1 DUP1 PUSH1 0x1 ADD SLOAD SWAP1 DUP1 PUSH1 0x2 ADD SLOAD SWAP1 POP DUP4 JUMP JUMPDEST PUSH0 PUSH1 0x2 PUSH0 DUP4 DUP2 MSTORE PUSH1 0x20 ADD SWAP1 DUP2 MSTORE PUSH1 0x20 ADD PUSH0 KECCAK256 PUSH0 ADD PUSH0 SWAP1 SLOAD SWAP1 PUSH2 0x100 EXP SWAP1 DIV PUSH20 0xFFFFFFFFFFFFFFFFFFFFFFFFFFFFFFFFFFFFFFFF AND SWAP1 POP DUP1 PUSH20 0xFFFFFFFFFFFFFFFFFFFFFFFFFFFFFFFFFFFFFFFF AND CALLER PUSH20 0xFFFFFFFFFFFFFFFFFFFFFFFFFFFFFFFFFFFFFFFF AND EQ PUSH2 0x59B JUMPI PUSH1 0x40 MLOAD PUSH32 0x8C379A000000000000000000000000000000000000000000000000000000000 DUP2 MSTORE PUSH1 0x4 ADD PUSH2 0x592 SWAP1 PUSH2 0x137D JUMP JUMPDEST PUSH1 0x40 MLOAD DUP1 SWAP2 SUB SWAP1 REVERT JUMPDEST PUSH1 0x1 PUSH0 SWAP1 SLOAD SWAP1 PUSH2 0x100 EXP SWAP1 DIV PUSH20 0xFFFFFFFFFFFFFFFFFFFFFFFFFFFFFFFFFFFFFFFF AND PUSH20 0xFFFFFFFFFFFFFFFFFFFFFFFFFFFFFFFFFFFFFFFF AND PUSH4 0x42842E0E ADDRESS DUP4 DUP6 PUSH1 0x40 MLOAD DUP5 PUSH4 0xFFFFFFFF AND PUSH1 0xE0 SHL DUP2 MSTORE PUSH1 0x4 ADD PUSH2 0x5F9 SWAP4 SWAP3 SWAP2 SWAP1 PUSH2 0x139B JUMP JUMPDEST PUSH0 PUSH1 0x40 MLOAD DUP1 DUP4 SUB DUP2 PUSH0 DUP8 DUP1 EXTCODESIZE ISZERO DUP1 ISZERO PUSH2 0x610 JUMPI PUSH0 DUP1 REVERT JUMPDEST POP GAS CALL ISZERO DUP1 ISZERO PUSH2 0x622 JUMPI RETURNDATASIZE PUSH0 DUP1 RETURNDATACOPY RETURNDATASIZE PUSH0 REVERT JUMPDEST POP POP POP POP PUSH2 0x62F DUP3 PUSH2 0xBAA JUMP JUMPDEST PUSH32 0xDD003742FB214507783CE004FE55F5AC14F89C6DE4A7CD7487E47EB091C62265 DUP2 DUP4 PUSH1 0x40 MLOAD PUSH2 0x660 SWAP3 SWAP2 SWAP1 PUSH2 0x13D0 JUMP JUMPDEST PUSH1 0x40 MLOAD DUP1 SWAP2 SUB SWAP1 LOG1 POP POP JUMP JUMPDEST PUSH0 DUP1 SLOAD SWAP1 PUSH2 0x100 EXP SWAP1 DIV PUSH20 0xFFFFFFFFFFFFFFFFFFFFFFFFFFFFFFFFFFFFFFFF AND DUP2 JUMP JUMPDEST PUSH1 0x3 DUP2 DUP2 SLOAD DUP2 LT PUSH2 0x69E JUMPI PUSH0 DUP1 REVERT JUMPDEST SWAP1 PUSH0 MSTORE PUSH1 0x20 PUSH0 KECCAK256 SWAP1 PUSH1 0x3 MUL ADD PUSH0 SWAP2 POP SWAP1 POP DUP1 PUSH0 ADD PUSH0 SWAP1 SLOAD SWAP1 PUSH2 0x100 EXP SWAP1 DIV PUSH20 0xFFFFFFFFFFFFFFFFFFFFFFFFFFFFFFFFFFFFFFFF AND SWAP1 DUP1 PUSH1 0x1 ADD SLOAD SWAP1 DUP1 PUSH1 0x2 ADD SLOAD SWAP1 POP DUP4 JUMP JUMPDEST PUSH0 PUSH1 0x2 PUSH0 DUP5 DUP2 MSTORE PUSH1 0x20 ADD SWAP1 DUP2 MSTORE PUSH1 0x20 ADD PUSH0 KECCAK256 PUSH0 ADD PUSH0 SWAP1 SLOAD SWAP1 PUSH2 0x100 EXP SWAP1 DIV PUSH20 0xFFFFFFFFFFFFFFFFFFFFFFFFFFFFFFFFFFFFFFFF AND SWAP1 POP DUP1 PUSH20 0xFFFFFFFFFFFFFFFFFFFFFFFFFFFFFFFFFFFFFFFF AND CALLER PUSH20 0xFFFFFFFFFFFFFFFFFFFFFFFFFFFFFFFFFFFFFFFF AND EQ PUSH2 0x787 JUMPI PUSH1 0x40 MLOAD PUSH32 0x8C379A000000000000000000000000000000000000000000000000000000000 DUP2 MSTORE PUSH1 0x4 ADD PUSH2 0x77E SWAP1 PUSH2 0x137D JUMP JUMPDEST PUSH1 0x40 MLOAD DUP1 SWAP2 SUB SWAP1 REVERT JUMPDEST PUSH0 DUP3 GT PUSH2 0x7C9 JUMPI PUSH1 0x40 MLOAD PUSH32 0x8C379A000000000000000000000000000000000000000000000000000000000 DUP2 MSTORE PUSH1 0x4 ADD PUSH2 0x7C0 SWAP1 PUSH2 0x12B5 JUMP JUMPDEST PUSH1 0x40 MLOAD DUP1 SWAP2 SUB SWAP1 REVERT JUMPDEST PUSH0 PUSH1 0x2 PUSH0 DUP6 DUP2 MSTORE PUSH1 0x20 ADD SWAP1 DUP2 MSTORE PUSH1 0x20 ADD PUSH0 KECCAK256 PUSH1 0x2 ADD SLOAD SWAP1 POP DUP3 PUSH1 0x2 PUSH0 DUP7 DUP2 MSTORE PUSH1 0x20 ADD SWAP1 DUP2 MSTORE PUSH1 0x20 ADD PUSH0 KECCAK256 PUSH1 0x2 ADD DUP2 SWAP1 SSTORE POP PUSH0 PUSH1 0x3 PUSH1 0x4 PUSH0 DUP8 DUP2 MSTORE PUSH1 0x20 ADD SWAP1 DUP2 MSTORE PUSH1 0x20 ADD PUSH0 KECCAK256 SLOAD DUP2 SLOAD DUP2 LT PUSH2 0x820 JUMPI PUSH2 0x81F PUSH2 0x13F7 JUMP JUMPDEST JUMPDEST SWAP1 PUSH0 MSTORE PUSH1 0x20 PUSH0 KECCAK256 SWAP1 PUSH1 0x3 MUL ADD SWAP1 POP PUSH32 0xDAC6AECD066304D15A41E8E590FC5AB5BF93634F43CBA363F743D5E158D79988 DUP4 DUP7 DUP5 DUP8 PUSH1 0x40 MLOAD PUSH2 0x863 SWAP5 SWAP4 SWAP3 SWAP2 SWAP1 PUSH2 0x1424 JUMP JUMPDEST PUSH1 0x40 MLOAD DUP1 SWAP2 SUB SWAP1 LOG1 DUP4 DUP2 PUSH1 0x2 ADD DUP2 SWAP1 SSTORE POP PUSH32 0xDAC6AECD066304D15A41E8E590FC5AB5BF93634F43CBA363F743D5E158D79988 DUP4 DUP7 DUP5 DUP8 PUSH1 0x40 MLOAD PUSH2 0x8A9 SWAP5 SWAP4 SWAP3 SWAP2 SWAP1 PUSH2 0x1424 JUMP JUMPDEST PUSH1 0x40 MLOAD DUP1 SWAP2 SUB SWAP1 LOG1 POP POP POP POP POP JUMP JUMPDEST PUSH0 DUP2 PUSH1 0x20 DUP4 PUSH2 0x8C7 SWAP2 SWAP1 PUSH2 0x1467 JUMP JUMPDEST LT ISZERO PUSH2 0x908 JUMPI PUSH1 0x40 MLOAD PUSH32 0x8C379A000000000000000000000000000000000000000000000000000000000 DUP2 MSTORE PUSH1 0x4 ADD PUSH2 0x8FF SWAP1 PUSH2 0x14E4 JUMP JUMPDEST PUSH1 0x40 MLOAD DUP1 SWAP2 SUB SWAP1 REVERT JUMPDEST PUSH1 0x20 DUP3 PUSH2 0x915 SWAP2 SWAP1 PUSH2 0x1467 JUMP JUMPDEST DUP4 MLOAD LT ISZERO PUSH2 0x958 JUMPI PUSH1 0x40 MLOAD PUSH32 0x8C379A000000000000000000000000000000000000000000000000000000000 DUP2 MSTORE PUSH1 0x4 ADD PUSH2 0x94F SWAP1 PUSH2 0x154C JUMP JUMPDEST PUSH1 0x40 MLOAD DUP1 SWAP2 SUB SWAP1 REVERT JUMPDEST PUSH0 DUP3 PUSH1 0x20 DUP6 ADD ADD MLOAD SWAP1 POP DUP1 SWAP2 POP POP SWAP3 SWAP2 POP POP JUMP JUMPDEST PUSH1 0x1 PUSH0 SWAP1 SLOAD SWAP1 PUSH2 0x100 EXP SWAP1 DIV PUSH20 0xFFFFFFFFFFFFFFFFFFFFFFFFFFFFFFFFFFFFFFFF AND DUP2 JUMP JUMPDEST PUSH0 PUSH1 0x2 PUSH0 DUP4 DUP2 MSTORE PUSH1 0x20 ADD SWAP1 DUP2 MSTORE PUSH1 0x20 ADD PUSH0 KECCAK256 PUSH0 ADD PUSH0 SWAP1 SLOAD SWAP1 PUSH2 0x100 EXP SWAP1 DIV PUSH20 0xFFFFFFFFFFFFFFFFFFFFFFFFFFFFFFFFFFFFFFFF AND SWAP1 POP PUSH0 CALLER SWAP1 POP PUSH0 PUSH1 0x2 PUSH0 DUP6 DUP2 MSTORE PUSH1 0x20 ADD SWAP1 DUP2 MSTORE PUSH1 0x20 ADD PUSH0 KECCAK256 PUSH1 0x2 ADD SLOAD SWAP1 POP PUSH0 DUP1 SLOAD SWAP1 PUSH2 0x100 EXP SWAP1 DIV PUSH20 0xFFFFFFFFFFFFFFFFFFFFFFFFFFFFFFFFFFFFFFFF AND PUSH20 0xFFFFFFFFFFFFFFFFFFFFFFFFFFFFFFFFFFFFFFFF AND PUSH4 0x23B872DD DUP4 DUP6 DUP5 PUSH1 0x40 MLOAD DUP5 PUSH4 0xFFFFFFFF AND PUSH1 0xE0 SHL DUP2 MSTORE PUSH1 0x4 ADD PUSH2 0xA3F SWAP4 SWAP3 SWAP2 SWAP1 PUSH2 0x139B JUMP JUMPDEST PUSH1 0x20 PUSH1 0x40 MLOAD DUP1 DUP4 SUB DUP2 PUSH0 DUP8 GAS CALL ISZERO DUP1 ISZERO PUSH2 0xA5B JUMPI RETURNDATASIZE PUSH0 DUP1 RETURNDATACOPY RETURNDATASIZE PUSH0 REVERT JUMPDEST POP POP POP POP PUSH1 0x40 MLOAD RETURNDATASIZE PUSH1 0x1F NOT PUSH1 0x1F DUP3 ADD AND DUP3 ADD DUP1 PUSH1 0x40 MSTORE POP DUP2 ADD SWAP1 PUSH2 0xA7F SWAP2 SWAP1 PUSH2 0x159F JUMP JUMPDEST PUSH2 0xABE JUMPI PUSH1 0x40 MLOAD PUSH32 0x8C379A000000000000000000000000000000000000000000000000000000000 DUP2 MSTORE PUSH1 0x4 ADD PUSH2 0xAB5 SWAP1 PUSH2 0x1614 JUMP JUMPDEST PUSH1 0x40 MLOAD DUP1 SWAP2 SUB SWAP1 REVERT JUMPDEST PUSH1 0x1 PUSH0 SWAP1 SLOAD SWAP1 PUSH2 0x100 EXP SWAP1 DIV PUSH20 0xFFFFFFFFFFFFFFFFFFFFFFFFFFFFFFFFFFFFFFFF AND PUSH20 0xFFFFFFFFFFFFFFFFFFFFFFFFFFFFFFFFFFFFFFFF AND PUSH4 0x42842E0E ADDRESS DUP5 DUP8 PUSH1 0x40 MLOAD DUP5 PUSH4 0xFFFFFFFF AND PUSH1 0xE0 SHL DUP2 MSTORE PUSH1 0x4 ADD PUSH2 0xB1C SWAP4 SWAP3 SWAP2 SWAP1 PUSH2 0x139B JUMP JUMPDEST PUSH0 PUSH1 0x40 MLOAD DUP1 DUP4 SUB DUP2 PUSH0 DUP8 DUP1 EXTCODESIZE ISZERO DUP1 ISZERO PUSH2 0xB33 JUMPI PUSH0 DUP1 REVERT JUMPDEST POP GAS CALL ISZERO DUP1 ISZERO PUSH2 0xB45 JUMPI RETURNDATASIZE PUSH0 DUP1 RETURNDATACOPY RETURNDATASIZE PUSH0 REVERT JUMPDEST POP POP POP POP PUSH2 0xB52 DUP5 PUSH2 0xBAA JUMP JUMPDEST PUSH32 0x424D5E5F0192C7DACDBE646CA31B00299146D883D76A95EF5CDDBAC7CD342EAB DUP4 DUP4 DUP7 DUP5 PUSH1 0x40 MLOAD PUSH2 0xB87 SWAP5 SWAP4 SWAP3 SWAP2 SWAP1 PUSH2 0x1632 JUMP JUMPDEST PUSH1 0x40 MLOAD DUP1 SWAP2 SUB SWAP1 LOG1 POP POP POP POP JUMP JUMPDEST PUSH1 0x4 PUSH1 0x20 MSTORE DUP1 PUSH0 MSTORE PUSH1 0x40 PUSH0 KECCAK256 PUSH0 SWAP2 POP SWAP1 POP SLOAD DUP2 JUMP JUMPDEST PUSH0 PUSH1 0x4 PUSH0 DUP4 DUP2 MSTORE PUSH1 0x20 ADD SWAP1 DUP2 MSTORE PUSH1 0x20 ADD PUSH0 KECCAK256 SLOAD SWAP1 POP PUSH0 PUSH1 0x1 PUSH1 0x3 DUP1 SLOAD SWAP1 POP PUSH2 0xBD2 SWAP2 SWAP1 PUSH2 0x1300 JUMP JUMPDEST SWAP1 POP DUP1 DUP3 EQ PUSH2 0xCB5 JUMPI PUSH0 PUSH1 0x3 DUP3 DUP2 SLOAD DUP2 LT PUSH2 0xBF0 JUMPI PUSH2 0xBEF PUSH2 0x13F7 JUMP JUMPDEST JUMPDEST SWAP1 PUSH0 MSTORE PUSH1 0x20 PUSH0 KECCAK256 SWAP1 PUSH1 0x3 MUL ADD SWAP1 POP DUP1 PUSH1 0x3 DUP5 DUP2 SLOAD DUP2 LT PUSH2 0xC13 JUMPI PUSH2 0xC12 PUSH2 0x13F7 JUMP JUMPDEST JUMPDEST SWAP1 PUSH0 MSTORE PUSH1 0x20 PUSH0 KECCAK256 SWAP1 PUSH1 0x3 MUL ADD PUSH0 DUP3 ADD PUSH0 SWAP1 SLOAD SWAP1 PUSH2 0x100 EXP SWAP1 DIV PUSH20 0xFFFFFFFFFFFFFFFFFFFFFFFFFFFFFFFFFFFFFFFF AND DUP2 PUSH0 ADD PUSH0 PUSH2 0x100 EXP DUP2 SLOAD DUP2 PUSH20 0xFFFFFFFFFFFFFFFFFFFFFFFFFFFFFFFFFFFFFFFF MUL NOT AND SWAP1 DUP4 PUSH20 0xFFFFFFFFFFFFFFFFFFFFFFFFFFFFFFFFFFFFFFFF AND MUL OR SWAP1 SSTORE POP PUSH1 0x1 DUP3 ADD SLOAD DUP2 PUSH1 0x1 ADD SSTORE PUSH1 0x2 DUP3 ADD SLOAD DUP2 PUSH1 0x2 ADD SSTORE SWAP1 POP POP DUP3 PUSH1 0x4 PUSH0 DUP4 PUSH1 0x1 ADD SLOAD DUP2 MSTORE PUSH1 0x20 ADD SWAP1 DUP2 MSTORE PUSH1 0x20 ADD PUSH0 KECCAK256 DUP2 SWAP1 SSTORE POP POP JUMPDEST PUSH1 0x3 DUP1 SLOAD DUP1 PUSH2 0xCC7 JUMPI PUSH2 0xCC6 PUSH2 0x1675 JUMP JUMPDEST JUMPDEST PUSH1 0x1 SWAP1 SUB DUP2 DUP2 SWAP1 PUSH0 MSTORE PUSH1 0x20 PUSH0 KECCAK256 SWAP1 PUSH1 0x3 MUL ADD PUSH0 DUP1 DUP3 ADD PUSH0 PUSH2 0x100 EXP DUP2 SLOAD SWAP1 PUSH20 0xFFFFFFFFFFFFFFFFFFFFFFFFFFFFFFFFFFFFFFFF MUL NOT AND SWAP1 SSTORE PUSH1 0x1 DUP3 ADD PUSH0 SWAP1 SSTORE PUSH1 0x2 DUP3 ADD PUSH0 SWAP1 SSTORE POP POP SWAP1 SSTORE PUSH1 0x2 PUSH0 DUP5 DUP2 MSTORE PUSH1 0x20 ADD SWAP1 DUP2 MSTORE PUSH1 0x20 ADD PUSH0 KECCAK256 PUSH0 DUP1 DUP3 ADD PUSH0 PUSH2 0x100 EXP DUP2 SLOAD SWAP1 PUSH20 0xFFFFFFFFFFFFFFFFFFFFFFFFFFFFFFFFFFFFFFFF MUL NOT AND SWAP1 SSTORE PUSH1 0x1 DUP3 ADD PUSH0 SWAP1 SSTORE PUSH1 0x2 DUP3 ADD PUSH0 SWAP1 SSTORE POP POP PUSH1 0x4 PUSH0 DUP5 DUP2 MSTORE PUSH1 0x20 ADD SWAP1 DUP2 MSTORE PUSH1 0x20 ADD PUSH0 KECCAK256 PUSH0 SWAP1 SSTORE POP POP POP JUMP JUMPDEST PUSH0 PUSH1 0x40 MLOAD SWAP1 POP SWAP1 JUMP JUMPDEST PUSH0 DUP1 REVERT JUMPDEST PUSH0 DUP1 REVERT JUMPDEST PUSH0 PUSH20 0xFFFFFFFFFFFFFFFFFFFFFFFFFFFFFFFFFFFFFFFF DUP3 AND SWAP1 POP SWAP2 SWAP1 POP JUMP JUMPDEST PUSH0 PUSH2 0xDAB DUP3 PUSH2 0xD82 JUMP JUMPDEST SWAP1 POP SWAP2 SWAP1 POP JUMP JUMPDEST PUSH2 0xDBB DUP2 PUSH2 0xDA1 JUMP JUMPDEST DUP2 EQ PUSH2 0xDC5 JUMPI PUSH0 DUP1 REVERT JUMPDEST POP JUMP JUMPDEST PUSH0 DUP2 CALLDATALOAD SWAP1 POP PUSH2 0xDD6 DUP2 PUSH2 0xDB2 JUMP JUMPDEST SWAP3 SWAP2 POP POP JUMP JUMPDEST PUSH0 DUP2 SWAP1 POP SWAP2 SWAP1 POP JUMP JUMPDEST PUSH2 0xDEE DUP2 PUSH2 0xDDC JUMP JUMPDEST DUP2 EQ PUSH2 0xDF8 JUMPI PUSH0 DUP1 REVERT JUMPDEST POP JUMP JUMPDEST PUSH0 DUP2 CALLDATALOAD SWAP1 POP PUSH2 0xE09 DUP2 PUSH2 0xDE5 JUMP JUMPDEST SWAP3 SWAP2 POP POP JUMP JUMPDEST PUSH0 DUP1 REVERT JUMPDEST PUSH0 DUP1 REVERT JUMPDEST PUSH0 DUP1 REVERT JUMPDEST PUSH0 DUP1 DUP4 PUSH1 0x1F DUP5 ADD SLT PUSH2 0xE30 JUMPI PUSH2 0xE2F PUSH2 0xE0F JUMP JUMPDEST JUMPDEST DUP3 CALLDATALOAD SWAP1 POP PUSH8 0xFFFFFFFFFFFFFFFF DUP2 GT ISZERO PUSH2 0xE4D JUMPI PUSH2 0xE4C PUSH2 0xE13 JUMP JUMPDEST JUMPDEST PUSH1 0x20 DUP4 ADD SWAP2 POP DUP4 PUSH1 0x1 DUP3 MUL DUP4 ADD GT ISZERO PUSH2 0xE69 JUMPI PUSH2 0xE68 PUSH2 0xE17 JUMP JUMPDEST JUMPDEST SWAP3 POP SWAP3 SWAP1 POP JUMP JUMPDEST PUSH0 DUP1 PUSH0 DUP1 PUSH0 PUSH1 0x80 DUP7 DUP9 SUB SLT ISZERO PUSH2 0xE89 JUMPI PUSH2 0xE88 PUSH2 0xD7A JUMP JUMPDEST JUMPDEST PUSH0 PUSH2 0xE96 DUP9 DUP3 DUP10 ADD PUSH2 0xDC8 JUMP JUMPDEST SWAP6 POP POP PUSH1 0x20 PUSH2 0xEA7 DUP9 DUP3 DUP10 ADD PUSH2 0xDC8 JUMP JUMPDEST SWAP5 POP POP PUSH1 0x40 PUSH2 0xEB8 DUP9 DUP3 DUP10 ADD PUSH2 0xDFB JUMP JUMPDEST SWAP4 POP POP PUSH1 0x60 DUP7 ADD CALLDATALOAD PUSH8 0xFFFFFFFFFFFFFFFF DUP2 GT ISZERO PUSH2 0xED9 JUMPI PUSH2 0xED8 PUSH2 0xD7E JUMP JUMPDEST JUMPDEST PUSH2 0xEE5 DUP9 DUP3 DUP10 ADD PUSH2 0xE1B JUMP JUMPDEST SWAP3 POP SWAP3 POP POP SWAP3 SWAP6 POP SWAP3 SWAP6 SWAP1 SWAP4 POP JUMP JUMPDEST PUSH0 PUSH32 0xFFFFFFFF00000000000000000000000000000000000000000000000000000000 DUP3 AND SWAP1 POP SWAP2 SWAP1 POP JUMP JUMPDEST PUSH2 0xF28 DUP2 PUSH2 0xEF4 JUMP JUMPDEST DUP3 MSTORE POP POP JUMP JUMPDEST PUSH0 PUSH1 0x20 DUP3 ADD SWAP1 POP PUSH2 0xF41 PUSH0 DUP4 ADD DUP5 PUSH2 0xF1F JUMP JUMPDEST SWAP3 SWAP2 POP POP JUMP JUMPDEST PUSH0 PUSH1 0x20 DUP3 DUP5 SUB SLT ISZERO PUSH2 0xF5C JUMPI PUSH2 0xF5B PUSH2 0xD7A JUMP JUMPDEST JUMPDEST PUSH0 PUSH2 0xF69 DUP5 DUP3 DUP6 ADD PUSH2 0xDFB JUMP JUMPDEST SWAP2 POP POP SWAP3 SWAP2 POP POP JUMP JUMPDEST PUSH2 0xF7B DUP2 PUSH2 0xDA1 JUMP JUMPDEST DUP3 MSTORE POP POP JUMP JUMPDEST PUSH2 0xF8A DUP2 PUSH2 0xDDC JUMP JUMPDEST DUP3 MSTORE POP POP JUMP JUMPDEST PUSH0 PUSH1 0x60 DUP3 ADD SWAP1 POP PUSH2 0xFA3 PUSH0 DUP4 ADD DUP7 PUSH2 0xF72 JUMP JUMPDEST PUSH2 0xFB0 PUSH1 0x20 DUP4 ADD DUP6 PUSH2 0xF81 JUMP JUMPDEST PUSH2 0xFBD PUSH1 0x40 DUP4 ADD DUP5 PUSH2 0xF81 JUMP JUMPDEST SWAP5 SWAP4 POP POP POP POP JUMP JUMPDEST PUSH0 DUP2 SWAP1 POP SWAP2 SWAP1 POP JUMP JUMPDEST PUSH0 PUSH2 0xFE8 PUSH2 0xFE3 PUSH2 0xFDE DUP5 PUSH2 0xD82 JUMP JUMPDEST PUSH2 0xFC5 JUMP JUMPDEST PUSH2 0xD82 JUMP JUMPDEST SWAP1 POP SWAP2 SWAP1 POP JUMP JUMPDEST PUSH0 PUSH2 0xFF9 DUP3 PUSH2 0xFCE JUMP JUMPDEST SWAP1 POP SWAP2 SWAP1 POP JUMP JUMPDEST PUSH0 PUSH2 0x100A DUP3 PUSH2 0xFEF JUMP JUMPDEST SWAP1 POP SWAP2 SWAP1 POP JUMP JUMPDEST PUSH2 0x101A DUP2 PUSH2 0x1000 JUMP JUMPDEST DUP3 MSTORE POP POP JUMP JUMPDEST PUSH0 PUSH1 0x20 DUP3 ADD SWAP1 POP PUSH2 0x1033 PUSH0 DUP4 ADD DUP5 PUSH2 0x1011 JUMP JUMPDEST SWAP3 SWAP2 POP POP JUMP JUMPDEST PUSH0 DUP1 PUSH1 0x40 DUP4 DUP6 SUB SLT ISZERO PUSH2 0x104F JUMPI PUSH2 0x104E PUSH2 0xD7A JUMP JUMPDEST JUMPDEST PUSH0 PUSH2 0x105C DUP6 DUP3 DUP7 ADD PUSH2 0xDFB JUMP JUMPDEST SWAP3 POP POP PUSH1 0x20 PUSH2 0x106D DUP6 DUP3 DUP7 ADD PUSH2 0xDFB JUMP JUMPDEST SWAP2 POP POP SWAP3 POP SWAP3 SWAP1 POP JUMP JUMPDEST PUSH0 DUP1 REVERT JUMPDEST PUSH0 PUSH1 0x1F NOT PUSH1 0x1F DUP4 ADD AND SWAP1 POP SWAP2 SWAP1 POP JUMP JUMPDEST PUSH32 0x4E487B7100000000000000000000000000000000000000000000000000000000 PUSH0 MSTORE PUSH1 0x41 PUSH1 0x4 MSTORE PUSH1 0x24 PUSH0 REVERT JUMPDEST PUSH2 0x10C1 DUP3 PUSH2 0x107B JUMP JUMPDEST DUP2 ADD DUP2 DUP2 LT PUSH8 0xFFFFFFFFFFFFFFFF DUP3 GT OR ISZERO PUSH2 0x10E0 JUMPI PUSH2 0x10DF PUSH2 0x108B JUMP JUMPDEST JUMPDEST DUP1 PUSH1 0x40 MSTORE POP POP POP JUMP JUMPDEST PUSH0 PUSH2 0x10F2 PUSH2 0xD71 JUMP JUMPDEST SWAP1 POP PUSH2 0x10FE DUP3 DUP3 PUSH2 0x10B8 JUMP JUMPDEST SWAP2 SWAP1 POP JUMP JUMPDEST PUSH0 PUSH8 0xFFFFFFFFFFFFFFFF DUP3 GT ISZERO PUSH2 0x111D JUMPI PUSH2 0x111C PUSH2 0x108B JUMP JUMPDEST JUMPDEST PUSH2 0x1126 DUP3 PUSH2 0x107B JUMP JUMPDEST SWAP1 POP PUSH1 0x20 DUP2 ADD SWAP1 POP SWAP2 SWAP1 POP JUMP JUMPDEST DUP3 DUP2 DUP4 CALLDATACOPY PUSH0 DUP4 DUP4 ADD MSTORE POP POP POP JUMP JUMPDEST PUSH0 PUSH2 0x1153 PUSH2 0x114E DUP5 PUSH2 0x1103 JUMP JUMPDEST PUSH2 0x10E9 JUMP JUMPDEST SWAP1 POP DUP3 DUP2 MSTORE PUSH1 0x20 DUP2 ADD DUP5 DUP5 DUP5 ADD GT ISZERO PUSH2 0x116F JUMPI PUSH2 0x116E PUSH2 0x1077 JUMP JUMPDEST JUMPDEST PUSH2 0x117A DUP5 DUP3 DUP6 PUSH2 0x1133 JUMP JUMPDEST POP SWAP4 SWAP3 POP POP POP JUMP JUMPDEST PUSH0 DUP3 PUSH1 0x1F DUP4 ADD SLT PUSH2 0x1196 JUMPI PUSH2 0x1195 PUSH2 0xE0F JUMP JUMPDEST JUMPDEST DUP2 CALLDATALOAD PUSH2 0x11A6 DUP5 DUP3 PUSH1 0x20 DUP7 ADD PUSH2 0x1141 JUMP JUMPDEST SWAP2 POP POP SWAP3 SWAP2 POP POP JUMP JUMPDEST PUSH0 DUP1 PUSH1 0x40 DUP4 DUP6 SUB SLT ISZERO PUSH2 0x11C5 JUMPI PUSH2 0x11C4 PUSH2 0xD7A JUMP JUMPDEST JUMPDEST PUSH0 DUP4 ADD CALLDATALOAD PUSH8 0xFFFFFFFFFFFFFFFF DUP2 GT ISZERO PUSH2 0x11E2 JUMPI PUSH2 0x11E1 PUSH2 0xD7E JUMP JUMPDEST JUMPDEST PUSH2 0x11EE DUP6 DUP3 DUP7 ADD PUSH2 0x1182 JUMP JUMPDEST SWAP3 POP POP PUSH1 0x20 PUSH2 0x11FF DUP6 DUP3 DUP7 ADD PUSH2 0xDFB JUMP JUMPDEST SWAP2 POP POP SWAP3 POP SWAP3 SWAP1 POP JUMP JUMPDEST PUSH0 PUSH1 0x20 DUP3 ADD SWAP1 POP PUSH2 0x121C PUSH0 DUP4 ADD DUP5 PUSH2 0xF81 JUMP JUMPDEST SWAP3 SWAP2 POP POP JUMP JUMPDEST PUSH0 PUSH2 0x122C DUP3 PUSH2 0xFEF JUMP JUMPDEST SWAP1 POP SWAP2 SWAP1 POP JUMP JUMPDEST PUSH2 0x123C DUP2 PUSH2 0x1222 JUMP JUMPDEST DUP3 MSTORE POP POP JUMP JUMPDEST PUSH0 PUSH1 0x20 DUP3 ADD SWAP1 POP PUSH2 0x1255 PUSH0 DUP4 ADD DUP5 PUSH2 0x1233 JUMP JUMPDEST SWAP3 SWAP2 POP POP JUMP JUMPDEST PUSH0 DUP3 DUP3 MSTORE PUSH1 0x20 DUP3 ADD SWAP1 POP SWAP3 SWAP2 POP POP JUMP JUMPDEST PUSH32 0x7072696365206D7573742062652067726561746572207468616E203000000000 PUSH0 DUP3 ADD MSTORE POP JUMP JUMPDEST PUSH0 PUSH2 0x129F PUSH1 0x1C DUP4 PUSH2 0x125B JUMP JUMPDEST SWAP2 POP PUSH2 0x12AA DUP3 PUSH2 0x126B JUMP JUMPDEST PUSH1 0x20 DUP3 ADD SWAP1 POP SWAP2 SWAP1 POP JUMP JUMPDEST PUSH0 PUSH1 0x20 DUP3 ADD SWAP1 POP DUP2 DUP2 SUB PUSH0 DUP4 ADD MSTORE PUSH2 0x12CC DUP2 PUSH2 0x1293 JUMP JUMPDEST SWAP1 POP SWAP2 SWAP1 POP JUMP JUMPDEST PUSH32 0x4E487B7100000000000000000000000000000000000000000000000000000000 PUSH0 MSTORE PUSH1 0x11 PUSH1 0x4 MSTORE PUSH1 0x24 PUSH0 REVERT JUMPDEST PUSH0 PUSH2 0x130A DUP3 PUSH2 0xDDC JUMP JUMPDEST SWAP2 POP PUSH2 0x1315 DUP4 PUSH2 0xDDC JUMP JUMPDEST SWAP3 POP DUP3 DUP3 SUB SWAP1 POP DUP2 DUP2 GT ISZERO PUSH2 0x132D JUMPI PUSH2 0x132C PUSH2 0x12D3 JUMP JUMPDEST JUMPDEST SWAP3 SWAP2 POP POP JUMP JUMPDEST PUSH32 0x6E6F74207468652073656C6C6572000000000000000000000000000000000000 PUSH0 DUP3 ADD MSTORE POP JUMP JUMPDEST PUSH0 PUSH2 0x1367 PUSH1 0xE DUP4 PUSH2 0x125B JUMP JUMPDEST SWAP2 POP PUSH2 0x1372 DUP3 PUSH2 0x1333 JUMP JUMPDEST PUSH1 0x20 DUP3 ADD SWAP1 POP SWAP2 SWAP1 POP JUMP JUMPDEST PUSH0 PUSH1 0x20 DUP3 ADD SWAP1 POP DUP2 DUP2 SUB PUSH0 DUP4 ADD MSTORE PUSH2 0x1394 DUP2 PUSH2 0x135B JUMP JUMPDEST SWAP1 POP SWAP2 SWAP1 POP JUMP JUMPDEST PUSH0 PUSH1 0x60 DUP3 ADD SWAP1 POP PUSH2 0x13AE PUSH0 DUP4 ADD DUP7 PUSH2 0xF72 JUMP JUMPDEST PUSH2 0x13BB PUSH1 0x20 DUP4 ADD DUP6 PUSH2 0xF72 JUMP JUMPDEST PUSH2 0x13C8 PUSH1 0x40 DUP4 ADD DUP5 PUSH2 0xF81 JUMP JUMPDEST SWAP5 SWAP4 POP POP POP POP JUMP JUMPDEST PUSH0 PUSH1 0x40 DUP3 ADD SWAP1 POP PUSH2 0x13E3 PUSH0 DUP4 ADD DUP6 PUSH2 0xF72 JUMP JUMPDEST PUSH2 0x13F0 PUSH1 0x20 DUP4 ADD DUP5 PUSH2 0xF81 JUMP JUMPDEST SWAP4 SWAP3 POP POP POP JUMP JUMPDEST PUSH32 0x4E487B7100000000000000000000000000000000000000000000000000000000 PUSH0 MSTORE PUSH1 0x32 PUSH1 0x4 MSTORE PUSH1 0x24 PUSH0 REVERT JUMPDEST PUSH0 PUSH1 0x80 DUP3 ADD SWAP1 POP PUSH2 0x1437 PUSH0 DUP4 ADD DUP8 PUSH2 0xF72 JUMP JUMPDEST PUSH2 0x1444 PUSH1 0x20 DUP4 ADD DUP7 PUSH2 0xF81 JUMP JUMPDEST PUSH2 0x1451 PUSH1 0x40 DUP4 ADD DUP6 PUSH2 0xF81 JUMP JUMPDEST PUSH2 0x145E PUSH1 0x60 DUP4 ADD DUP5 PUSH2 0xF81 JUMP JUMPDEST SWAP6 SWAP5 POP POP POP POP POP JUMP JUMPDEST PUSH0 PUSH2 0x1471 DUP3 PUSH2 0xDDC JUMP JUMPDEST SWAP2 POP PUSH2 0x147C DUP4 PUSH2 0xDDC JUMP JUMPDEST SWAP3 POP DUP3 DUP3 ADD SWAP1 POP DUP1 DUP3 GT ISZERO PUSH2 0x1494 JUMPI PUSH2 0x1493 PUSH2 0x12D3 JUMP JUMPDEST JUMPDEST SWAP3 SWAP2 POP POP JUMP JUMPDEST PUSH32 0x4D61726B65743A20746F55696E743235365F6F766572666C6F77000000000000 PUSH0 DUP3 ADD MSTORE POP JUMP JUMPDEST PUSH0 PUSH2 0x14CE PUSH1 0x1A DUP4 PUSH2 0x125B JUMP JUMPDEST SWAP2 POP PUSH2 0x14D9 DUP3 PUSH2 0x149A JUMP JUMPDEST PUSH1 0x20 DUP3 ADD SWAP1 POP SWAP2 SWAP1 POP JUMP JUMPDEST PUSH0 PUSH1 0x20 DUP3 ADD SWAP1 POP DUP2 DUP2 SUB PUSH0 DUP4 ADD MSTORE PUSH2 0x14FB DUP2 PUSH2 0x14C2 JUMP JUMPDEST SWAP1 POP SWAP2 SWAP1 POP JUMP JUMPDEST PUSH32 0x4D61726B65743A20746F55696E743235365F6F75744F66426F756E6473000000 PUSH0 DUP3 ADD MSTORE POP JUMP JUMPDEST PUSH0 PUSH2 0x1536 PUSH1 0x1D DUP4 PUSH2 0x125B JUMP JUMPDEST SWAP2 POP PUSH2 0x1541 DUP3 PUSH2 0x1502 JUMP JUMPDEST PUSH1 0x20 DUP3 ADD SWAP1 POP SWAP2 SWAP1 POP JUMP JUMPDEST PUSH0 PUSH1 0x20 DUP3 ADD SWAP1 POP DUP2 DUP2 SUB PUSH0 DUP4 ADD MSTORE PUSH2 0x1563 DUP2 PUSH2 0x152A JUMP JUMPDEST SWAP1 POP SWAP2 SWAP1 POP JUMP JUMPDEST PUSH0 DUP2 ISZERO ISZERO SWAP1 POP SWAP2 SWAP1 POP JUMP JUMPDEST PUSH2 0x157E DUP2 PUSH2 0x156A JUMP JUMPDEST DUP2 EQ PUSH2 0x1588 JUMPI PUSH0 DUP1 REVERT JUMPDEST POP JUMP JUMPDEST PUSH0 DUP2 MLOAD SWAP1 POP PUSH2 0x1599 DUP2 PUSH2 0x1575 JUMP JUMPDEST SWAP3 SWAP2 POP POP JUMP JUMPDEST PUSH0 PUSH1 0x20 DUP3 DUP5 SUB SLT ISZERO PUSH2 0x15B4 JUMPI PUSH2 0x15B3 PUSH2 0xD7A JUMP JUMPDEST JUMPDEST PUSH0 PUSH2 0x15C1 DUP5 DUP3 DUP6 ADD PUSH2 0x158B JUMP JUMPDEST SWAP2 POP POP SWAP3 SWAP2 POP POP JUMP JUMPDEST PUSH32 0x7472616E73666572206E6F74207375636365737366756C000000000000000000 PUSH0 DUP3 ADD MSTORE POP JUMP JUMPDEST PUSH0 PUSH2 0x15FE PUSH1 0x17 DUP4 PUSH2 0x125B JUMP JUMPDEST SWAP2 POP PUSH2 0x1609 DUP3 PUSH2 0x15CA JUMP JUMPDEST PUSH1 0x20 DUP3 ADD SWAP1 POP SWAP2 SWAP1 POP JUMP JUMPDEST PUSH0 PUSH1 0x20 DUP3 ADD SWAP1 POP DUP2 DUP2 SUB PUSH0 DUP4 ADD MSTORE PUSH2 0x162B DUP2 PUSH2 0x15F2 JUMP JUMPDEST SWAP1 POP SWAP2 SWAP1 POP JUMP JUMPDEST PUSH0 PUSH1 0x80 DUP3 ADD SWAP1 POP PUSH2 0x1645 PUSH0 DUP4 ADD DUP8 PUSH2 0xF72 JUMP JUMPDEST PUSH2 0x1652 PUSH1 0x20 DUP4 ADD DUP7 PUSH2 0xF72 JUMP JUMPDEST PUSH2 0x165F PUSH1 0x40 DUP4 ADD DUP6 PUSH2 0xF81 JUMP JUMPDEST PUSH2 0x166C PUSH1 0x60 DUP4 ADD DUP5 PUSH2 0xF81 JUMP JUMPDEST SWAP6 SWAP5 POP POP POP POP POP JUMP JUMPDEST PUSH32 0x4E487B7100000000000000000000000000000000000000000000000000000000 PUSH0 MSTORE PUSH1 0x31 PUSH1 0x4 MSTORE PUSH1 0x24 PUSH0 REVERT INVALID LOG2 PUSH5 0x6970667358 0x22 SLT KECCAK256 PUSH27 0x3E28868AB36294352DBF9FF31BC0D847088830F37B3A411435EE38 EXTCODEHASH DUP14 INVALID 0x4E PUSH5 0x736F6C6343 STOP ADDMOD NOT STOP CALLER "
				},
				"gasEstimates": {
					"creation": {
						"codeDepositCost": "1169600",
						"executionCost": "infinite",
						"totalCost": "infinite"
					},
					"external": {
						"buy(uint256)": "infinite",
						"cancelOrder(uint256)": "infinite",
						"changePrice(uint256,uint256)": "infinite",
						"erc20()": "infinite",
						"erc721()": "infinite",
						"idToOrderIndex(uint256)": "infinite",
						"onERC721Received(address,address,uint256,bytes)": "infinite",
						"orderOfId(uint256)": "infinite",
						"orders(uint256)": "infinite",
						"toUint256(bytes,uint256)": "infinite"
					},
					"internal": {
						"removeOrder(uint256)": "infinite"
					}
				},
				"methodIdentifiers": {
					"buy(uint256)": "d96a094a",
					"cancelOrder(uint256)": "514fcac7",
					"changePrice(uint256,uint256)": "b3de019c",
					"erc20()": "785e9e86",
					"erc721()": "bca6ce64",
					"idToOrderIndex(uint256)": "da694df0",
					"onERC721Received(address,address,uint256,bytes)": "150b7a02",
					"orderOfId(uint256)": "394a9077",
					"orders(uint256)": "a85c38ef",
					"toUint256(bytes,uint256)": "b5cdf924"
				}
			},
			"storageLayout": {
				"storage": [
					{
						"astId": 221,
						"contract": "contracts/nft-market.sol:Market",
						"label": "erc20",
						"offset": 0,
						"slot": "0",
						"type": "t_contract(IERC20)85"
					},
					{
						"astId": 224,
						"contract": "contracts/nft-market.sol:Market",
						"label": "erc721",
						"offset": 0,
						"slot": "1",
						"type": "t_contract(IERC721)202"
					},
					{
						"astId": 239,
						"contract": "contracts/nft-market.sol:Market",
						"label": "orderOfId",
						"offset": 0,
						"slot": "2",
						"type": "t_mapping(t_uint256,t_struct(Order)234_storage)"
					},
					{
						"astId": 243,
						"contract": "contracts/nft-market.sol:Market",
						"label": "orders",
						"offset": 0,
						"slot": "3",
						"type": "t_array(t_struct(Order)234_storage)dyn_storage"
					},
					{
						"astId": 247,
						"contract": "contracts/nft-market.sol:Market",
						"label": "idToOrderIndex",
						"offset": 0,
						"slot": "4",
						"type": "t_mapping(t_uint256,t_uint256)"
					}
				],
				"types": {
					"t_address": {
						"encoding": "inplace",
						"label": "address",
						"numberOfBytes": "20"
					},
					"t_array(t_struct(Order)234_storage)dyn_storage": {
						"base": "t_struct(Order)234_storage",
						"encoding": "dynamic_array",
						"label": "struct Market.Order[]",
						"numberOfBytes": "32"
					},
					"t_contract(IERC20)85": {
						"encoding": "inplace",
						"label": "contract IERC20",
						"numberOfBytes": "20"
					},
					"t_contract(IERC721)202": {
						"encoding": "inplace",
						"label": "contract IERC721",
						"numberOfBytes": "20"
					},
					"t_mapping(t_uint256,t_struct(Order)234_storage)": {
						"encoding": "mapping",
						"key": "t_uint256",
						"label": "mapping(uint256 => struct Market.Order)",
						"numberOfBytes": "32",
						"value": "t_struct(Order)234_storage"
					},
					"t_mapping(t_uint256,t_uint256)": {
						"encoding": "mapping",
						"key": "t_uint256",
						"label": "mapping(uint256 => uint256)",
						"numberOfBytes": "32",
						"value": "t_uint256"
					},
					"t_struct(Order)234_storage": {
						"encoding": "inplace",
						"label": "struct Market.Order",
						"members": [
							{
								"astId": 229,
								"contract": "contracts/nft-market.sol:Market",
								"label": "seller",
								"offset": 0,
								"slot": "0",
								"type": "t_address"
							},
							{
								"astId": 231,
								"contract": "contracts/nft-market.sol:Market",
								"label": "tokenId",
								"offset": 0,
								"slot": "1",
								"type": "t_uint256"
							},
							{
								"astId": 233,
								"contract": "contracts/nft-market.sol:Market",
								"label": "price",
								"offset": 0,
								"slot": "2",
								"type": "t_uint256"
							}
						],
						"numberOfBytes": "96"
					},
					"t_uint256": {
						"encoding": "inplace",
						"label": "uint256",
						"numberOfBytes": "32"
					}
				}
			},
			"userdoc": {
				"kind": "user",
				"methods": {},
				"version": 1
			}
		}
	}
}