{
	"data": {
		"bytecode": {
			"linkReferences": {},
			"object": "608060405234801561000f575f80fd5b5060405161198c38038061198c833981810160405281019061003191906101f1565b5f73ffffffffffffffffffffffffffffffffffffffff168273ffffffffffffffffffffffffffffffffffffffff160361009f576040517f08c379a000000000000000000000000000000000000000000000000000000000815260040161009690610289565b60405180910390fd5b5f73ffffffffffffffffffffffffffffffffffffffff168173ffffffffffffffffffffffffffffffffffffffff160361010d576040517f08c379a000000000000000000000000000000000000000000000000000000000815260040161010490610289565b60405180910390fd5b815f806101000a81548173ffffffffffffffffffffffffffffffffffffffff021916908373ffffffffffffffffffffffffffffffffffffffff1602179055508060015f6101000a81548173ffffffffffffffffffffffffffffffffffffffff021916908373ffffffffffffffffffffffffffffffffffffffff16021790555050506102a7565b5f80fd5b5f73ffffffffffffffffffffffffffffffffffffffff82169050919050565b5f6101c082610197565b9050919050565b6101d0816101b6565b81146101da575f80fd5b50565b5f815190506101eb816101c7565b92915050565b5f806040838503121561020757610206610193565b5b5f610214858286016101dd565b9250506020610225858286016101dd565b9150509250929050565b5f82825260208201905092915050565b7f7a65726f206164647265737300000000000000000000000000000000000000005f82015250565b5f610273600c8361022f565b915061027e8261023f565b602082019050919050565b5f6020820190508181035f8301526102a081610267565b9050919050565b6116d8806102b45f395ff3fe608060405234801561000f575f80fd5b506004361061009c575f3560e01c8063b3de019c11610064578063b3de019c1461016e578063b5cdf9241461018a578063bca6ce64146101ba578063d96a094a146101d8578063da694df0146101f45761009c565b8063150b7a02146100a0578063394a9077146100d0578063514fcac714610102578063785e9e861461011e578063a85c38ef1461013c575b5f80fd5b6100ba60048036038101906100b59190610e70565b610224565b6040516100c79190610f2e565b60405180910390f35b6100ea60048036038101906100e59190610f47565b6104b2565b6040516100f993929190610f90565b60405180910390f35b61011c60048036038101906101179190610f47565b6104f7565b005b61012661066c565b6040516101339190611020565b60405180910390f35b61015660048036038101906101519190610f47565b61068f565b60405161016593929190610f90565b60405180910390f35b61018860048036038101906101839190611039565b6106e3565b005b6101a4600480360381019061019f91906111af565b6108b8565b6040516101b19190611209565b60405180910390f35b6101c261096c565b6040516101cf9190611242565b60405180910390f35b6101f260048036038101906101ed9190610f47565b610991565b005b61020e60048036038101906102099190610f47565b610b95565b60405161021b9190611209565b60405180910390f35b5f8061027384848080601f0160208091040260200160405190810160405280939291908181526020018383808284375f81840152601f19601f820116905080830192505050505050505f6108b8565b90505f81116102b7576040517f08c379a00000000000000000000000000000000000000000000000000000000081526004016102ae906112b5565b60405180910390fd5b5f60405180606001604052808873ffffffffffffffffffffffffffffffffffffffff168152602001878152602001838152509050600360405180606001604052808973ffffffffffffffffffffffffffffffffffffffff16815260200188815260200184815250908060018154018082558091505060019003905f5260205f2090600302015f909190919091505f820151815f015f6101000a81548173ffffffffffffffffffffffffffffffffffffffff021916908373ffffffffffffffffffffffffffffffffffffffff1602179055506020820151816001015560408201518160020155505060405180606001604052808873ffffffffffffffffffffffffffffffffffffffff1681526020018781526020018381525060025f8881526020019081526020015f205f820151815f015f6101000a81548173ffffffffffffffffffffffffffffffffffffffff021916908373ffffffffffffffffffffffffffffffffffffffff1602179055506020820151816001015560408201518160020155905050600160038054905061044d9190611300565b60045f8881526020019081526020015f20819055507fd5b509e657d5ec37ae4bdcab658b7340c0453bb630516d26623359a34c1cecf387878460405161049593929190610f90565b60405180910390a163150b7a0260e01b9250505095945050505050565b6002602052805f5260405f205f91509050805f015f9054906101000a900473ffffffffffffffffffffffffffffffffffffffff16908060010154908060020154905083565b5f60025f8381526020019081526020015f205f015f9054906101000a900473ffffffffffffffffffffffffffffffffffffffff1690508073ffffffffffffffffffffffffffffffffffffffff163373ffffffffffffffffffffffffffffffffffffffff161461059b576040517f08c379a00000000000000000000000000000000000000000000000000000000081526004016105929061137d565b60405180910390fd5b60015f9054906101000a900473ffffffffffffffffffffffffffffffffffffffff1673ffffffffffffffffffffffffffffffffffffffff166342842e0e3083856040518463ffffffff1660e01b81526004016105f99392919061139b565b5f604051808303815f87803b158015610610575f80fd5b505af1158015610622573d5f803e3d5ffd5b5050505061062f82610baa565b7fdd003742fb214507783ce004fe55f5ac14f89c6de4a7cd7487e47eb091c6226581836040516106609291906113d0565b60405180910390a15050565b5f8054906101000a900473ffffffffffffffffffffffffffffffffffffffff1681565b6003818154811061069e575f80fd5b905f5260205f2090600302015f91509050805f015f9054906101000a900473ffffffffffffffffffffffffffffffffffffffff16908060010154908060020154905083565b5f60025f8481526020019081526020015f205f015f9054906101000a900473ffffffffffffffffffffffffffffffffffffffff1690508073ffffffffffffffffffffffffffffffffffffffff163373ffffffffffffffffffffffffffffffffffffffff1614610787576040517f08c379a000000000000000000000000000000000000000000000000000000000815260040161077e9061137d565b60405180910390fd5b5f82116107c9576040517f08c379a00000000000000000000000000000000000000000000000000000000081526004016107c0906112b5565b60405180910390fd5b5f60025f8581526020019081526020015f206002015490508260025f8681526020019081526020015f20600201819055505f600360045f8781526020019081526020015f2054815481106108205761081f6113f7565b5b905f5260205f20906003020190507fdac6aecd066304d15a41e8e590fc5ab5bf93634f43cba363f743d5e158d79988838684876040516108639493929190611424565b60405180910390a18381600201819055507fdac6aecd066304d15a41e8e590fc5ab5bf93634f43cba363f743d5e158d79988838684876040516108a99493929190611424565b60405180910390a15050505050565b5f816020836108c79190611467565b1015610908576040517f08c379a00000000000000000000000000000000000000000000000000000000081526004016108ff906114e4565b60405180910390fd5b6020826109159190611467565b83511015610958576040517f08c379a000000000000000000000000000000000000000000000000000000000815260040161094f9061154c565b60405180910390fd5b5f8260208501015190508091505092915050565b60015f9054906101000a900473ffffffffffffffffffffffffffffffffffffffff1681565b5f60025f8381526020019081526020015f205f015f9054906101000a900473ffffffffffffffffffffffffffffffffffffffff1690505f3390505f60025f8581526020019081526020015f206002015490505f8054906101000a900473ffffffffffffffffffffffffffffffffffffffff1673ffffffffffffffffffffffffffffffffffffffff166323b872dd8385846040518463ffffffff1660e01b8152600401610a3f9392919061139b565b6020604051808303815f875af1158015610a5b573d5f803e3d5ffd5b505050506040513d601f19601f82011682018060405250810190610a7f919061159f565b610abe576040517f08c379a0000000000000000000000000000000000000000000000000000000008152600401610ab590611614565b60405180910390fd5b60015f9054906101000a900473ffffffffffffffffffffffffffffffffffffffff1673ffffffffffffffffffffffffffffffffffffffff166342842e0e3084876040518463ffffffff1660e01b8152600401610b1c9392919061139b565b5f604051808303815f87803b158015610b33575f80fd5b505af1158015610b45573d5f803e3d5ffd5b50505050610b5284610baa565b7f424d5e5f0192c7dacdbe646ca31b00299146d883d76a95ef5cddbac7cd342eab83838684604051610b879493929190611632565b60405180910390a150505050565b6004602052805f5260405f205f915090505481565b5f60045f8381526020019081526020015f205490505f6001600380549050610bd29190611300565b9050808214610cb5575f60038281548110610bf057610bef6113f7565b5b905f5260205f20906003020190508060038481548110610c1357610c126113f7565b5b905f5260205f2090600302015f82015f9054906101000a900473ffffffffffffffffffffffffffffffffffffffff16815f015f6101000a81548173ffffffffffffffffffffffffffffffffffffffff021916908373ffffffffffffffffffffffffffffffffffffffff16021790555060018201548160010155600282015481600201559050508260045f836001015481526020019081526020015f2081905550505b6003805480610cc757610cc6611675565b5b600190038181905f5260205f2090600302015f8082015f6101000a81549073ffffffffffffffffffffffffffffffffffffffff0219169055600182015f9055600282015f90555050905560025f8481526020019081526020015f205f8082015f6101000a81549073ffffffffffffffffffffffffffffffffffffffff0219169055600182015f9055600282015f9055505060045f8481526020019081526020015f205f9055505050565b5f604051905090565b5f80fd5b5f80fd5b5f73ffffffffffffffffffffffffffffffffffffffff82169050919050565b5f610dab82610d82565b9050919050565b610dbb81610da1565b8114610dc5575f80fd5b50565b5f81359050610dd681610db2565b92915050565b5f819050919050565b610dee81610ddc565b8114610df8575f80fd5b50565b5f81359050610e0981610de5565b92915050565b5f80fd5b5f80fd5b5f80fd5b5f8083601f840112610e3057610e2f610e0f565b5b8235905067ffffffffffffffff811115610e4d57610e4c610e13565b5b602083019150836001820283011115610e6957610e68610e17565b5b9250929050565b5f805f805f60808688031215610e8957610e88610d7a565b5b5f610e9688828901610dc8565b9550506020610ea788828901610dc8565b9450506040610eb888828901610dfb565b935050606086013567ffffffffffffffff811115610ed957610ed8610d7e565b5b610ee588828901610e1b565b92509250509295509295909350565b5f7fffffffff0000000000000000000000000000000000000000000000000000000082169050919050565b610f2881610ef4565b82525050565b5f602082019050610f415f830184610f1f565b92915050565b5f60208284031215610f5c57610f5b610d7a565b5b5f610f6984828501610dfb565b91505092915050565b610f7b81610da1565b82525050565b610f8a81610ddc565b82525050565b5f606082019050610fa35f830186610f72565b610fb06020830185610f81565b610fbd6040830184610f81565b949350505050565b5f819050919050565b5f610fe8610fe3610fde84610d82565b610fc5565b610d82565b9050919050565b5f610ff982610fce565b9050919050565b5f61100a82610fef565b9050919050565b61101a81611000565b82525050565b5f6020820190506110335f830184611011565b92915050565b5f806040838503121561104f5761104e610d7a565b5b5f61105c85828601610dfb565b925050602061106d85828601610dfb565b9150509250929050565b5f80fd5b5f601f19601f8301169050919050565b7f4e487b71000000000000000000000000000000000000000000000000000000005f52604160045260245ffd5b6110c18261107b565b810181811067ffffffffffffffff821117156110e0576110df61108b565b5b80604052505050565b5f6110f2610d71565b90506110fe82826110b8565b919050565b5f67ffffffffffffffff82111561111d5761111c61108b565b5b6111268261107b565b9050602081019050919050565b828183375f83830152505050565b5f61115361114e84611103565b6110e9565b90508281526020810184848401111561116f5761116e611077565b5b61117a848285611133565b509392505050565b5f82601f83011261119657611195610e0f565b5b81356111a6848260208601611141565b91505092915050565b5f80604083850312156111c5576111c4610d7a565b5b5f83013567ffffffffffffffff8111156111e2576111e1610d7e565b5b6111ee85828601611182565b92505060206111ff85828601610dfb565b9150509250929050565b5f60208201905061121c5f830184610f81565b92915050565b5f61122c82610fef565b9050919050565b61123c81611222565b82525050565b5f6020820190506112555f830184611233565b92915050565b5f82825260208201905092915050565b7f7072696365206d7573742062652067726561746572207468616e2030000000005f82015250565b5f61129f601c8361125b565b91506112aa8261126b565b602082019050919050565b5f6020820190508181035f8301526112cc81611293565b9050919050565b7f4e487b71000000000000000000000000000000000000000000000000000000005f52601160045260245ffd5b5f61130a82610ddc565b915061131583610ddc565b925082820390508181111561132d5761132c6112d3565b5b92915050565b7f6e6f74207468652073656c6c65720000000000000000000000000000000000005f82015250565b5f611367600e8361125b565b915061137282611333565b602082019050919050565b5f6020820190508181035f8301526113948161135b565b9050919050565b5f6060820190506113ae5f830186610f72565b6113bb6020830185610f72565b6113c86040830184610f81565b949350505050565b5f6040820190506113e35f830185610f72565b6113f06020830184610f81565b9392505050565b7f4e487b71000000000000000000000000000000000000000000000000000000005f52603260045260245ffd5b5f6080820190506114375f830187610f72565b6114446020830186610f81565b6114516040830185610f81565b61145e6060830184610f81565b95945050505050565b5f61147182610ddc565b915061147c83610ddc565b9250828201905080821115611494576114936112d3565b5b92915050565b7f4d61726b65743a20746f55696e743235365f6f766572666c6f770000000000005f82015250565b5f6114ce601a8361125b565b91506114d98261149a565b602082019050919050565b5f6020820190508181035f8301526114fb816114c2565b9050919050565b7f4d61726b65743a20746f55696e743235365f6f75744f66426f756e64730000005f82015250565b5f611536601d8361125b565b915061154182611502565b602082019050919050565b5f6020820190508181035f8301526115638161152a565b9050919050565b5f8115159050919050565b61157e8161156a565b8114611588575f80fd5b50565b5f8151905061159981611575565b92915050565b5f602082840312156115b4576115b3610d7a565b5b5f6115c18482850161158b565b91505092915050565b7f7472616e73666572206e6f74207375636365737366756c0000000000000000005f82015250565b5f6115fe60178361125b565b9150611609826115ca565b602082019050919050565b5f6020820190508181035f83015261162b816115f2565b9050919050565b5f6080820190506116455f830187610f72565b6116526020830186610f72565b61165f6040830185610f81565b61166c6060830184610f81565b95945050505050565b7f4e487b71000000000000000000000000000000000000000000000000000000005f52603160045260245ffdfea26469706673582212207a3e28868ab36294352dbf9ff31bc0d847088830f37b3a411435ee383f8dfe4e64736f6c63430008190033",
			"opcodes": "PUSH1 0x80 PUSH1 0x40 MSTORE CALLVALUE DUP1 ISZERO PUSH2 0xF JUMPI PUSH0 DUP1 REVERT JUMPDEST POP PUSH1 0x40 MLOAD PUSH2 0x198C CODESIZE SUB DUP1 PUSH2 0x198C DUP4 CODECOPY DUP2 DUP2 ADD PUSH1 0x40 MSTORE DUP2 ADD SWAP1 PUSH2 0x31 SWAP2 SWAP1 PUSH2 0x1F1 JUMP JUMPDEST PUSH0 PUSH20 0xFFFFFFFFFFFFFFFFFFFFFFFFFFFFFFFFFFFFFFFF AND DUP3 PUSH20 0xFFFFFFFFFFFFFFFFFFFFFFFFFFFFFFFFFFFFFFFF AND SUB PUSH2 0x9F JUMPI PUSH1 0x40 MLOAD PUSH32 0x8C379A000000000000000000000000000000000000000000000000000000000 DUP2 MSTORE PUSH1 0x4 ADD PUSH2 0x96 SWAP1 PUSH2 0x289 JUMP JUMPDEST PUSH1 0x40 MLOAD DUP1 SWAP2 SUB SWAP1 REVERT JUMPDEST PUSH0 PUSH20 0xFFFFFFFFFFFFFFFFFFFFFFFFFFFFFFFFFFFFFFFF AND DUP2 PUSH20 0xFFFFFFFFFFFFFFFFFFFFFFFFFFFFFFFFFFFFFFFF AND SUB PUSH2 0x10D JUMPI PUSH1 0x40 MLOAD PUSH32 0x8C379A000000000000000000000000000000000000000000000000000000000 DUP2 MSTORE PUSH1 0x4 ADD PUSH2 0x104 SWAP1 PUSH2 0x289 JUMP JUMPDEST PUSH1 0x40 MLOAD DUP1 SWAP2 SUB SWAP1 REVERT JUMPDEST DUP2 PUSH0 DUP1 PUSH2 0x100 EXP DUP2 SLOAD DUP2 PUSH20 0xFFFFFFFFFFFFFFFFFFFFFFFFFFFFFFFFFFFFFFFF MUL NOT AND SWAP1 DUP4 PUSH20 0xFFFFFFFFFFFFFFFFFFFFFFFFFFFFFFFFFFFFFFFF AND MUL OR SWAP1 SSTORE POP DUP1 PUSH1 0x1 PUSH0 PUSH2 0x100 EXP DUP2 SLOAD DUP2 PUSH20 0xFFFFFFFFFFFFFFFFFFFFFFFFFFFFFFFFFFFFFFFF MUL NOT AND SWAP1 DUP4 PUSH20 0xFFFFFFFFFFFFFFFFFFFFFFFFFFFFFFFFFFFFFFFF AND MUL OR SWAP1 SSTORE POP POP POP PUSH2 0x2A7 JUMP JUMPDEST PUSH0 DUP1 REVERT JUMPDEST PUSH0 PUSH20 0xFFFFFFFFFFFFFFFFFFFFFFFFFFFFFFFFFFFFFFFF DUP3 AND SWAP1 POP SWAP2 SWAP1 POP JUMP JUMPDEST PUSH0 PUSH2 0x1C0 DUP3 PUSH2 0x197 JUMP JUMPDEST SWAP1 POP SWAP2 SWAP1 POP JUMP JUMPDEST PUSH2 0x1D0 DUP2 PUSH2 0x1B6 JUMP JUMPDEST DUP2 EQ PUSH2 0x1DA JUMPI PUSH0 DUP1 REVERT JUMPDEST POP JUMP JUMPDEST PUSH0 DUP2 MLOAD SWAP1 POP PUSH2 0x1EB DUP2 PUSH2 0x1C7 JUMP JUMPDEST SWAP3 SWAP2 POP POP JUMP JUMPDEST PUSH0 DUP1 PUSH1 0x40 DUP4 DUP6 SUB SLT ISZERO PUSH2 0x207 JUMPI PUSH2 0x206 PUSH2 0x193 JUMP JUMPDEST JUMPDEST PUSH0 PUSH2 0x214 DUP6 DUP3 DUP7 ADD PUSH2 0x1DD JUMP JUMPDEST SWAP3 POP POP PUSH1 0x20 PUSH2 0x225 DUP6 DUP3 DUP7 ADD PUSH2 0x1DD JUMP JUMPDEST SWAP2 POP POP SWAP3 POP SWAP3 SWAP1 POP JUMP JUMPDEST PUSH0 DUP3 DUP3 MSTORE PUSH1 0x20 DUP3 ADD SWAP1 POP SWAP3 SWAP2 POP POP JUMP JUMPDEST PUSH32 0x7A65726F20616464726573730000000000000000000000000000000000000000 PUSH0 DUP3 ADD MSTORE POP JUMP JUMPDEST PUSH0 PUSH2 0x273 PUSH1 0xC DUP4 PUSH2 0x22F JUMP JUMPDEST SWAP2 POP PUSH2 0x27E DUP3 PUSH2 0x23F JUMP JUMPDEST PUSH1 0x20 DUP3 ADD SWAP1 POP SWAP2 SWAP1 POP JUMP JUMPDEST PUSH0 PUSH1 0x20 DUP3 ADD SWAP1 POP DUP2 DUP2 SUB PUSH0 DUP4 ADD MSTORE PUSH2 0x2A0 DUP2 PUSH2 0x267 JUMP JUMPDEST SWAP1 POP SWAP2 SWAP1 POP JUMP JUMPDEST PUSH2 0x16D8 DUP1 PUSH2 0x2B4 PUSH0 CODECOPY PUSH0 RETURN INVALID PUSH1 0x80 PUSH1 0x40 MSTORE CALLVALUE DUP1 ISZERO PUSH2 0xF JUMPI PUSH0 DUP1 REVERT JUMPDEST POP PUSH1 0x4 CALLDATASIZE LT PUSH2 0x9C JUMPI PUSH0 CALLDATALOAD PUSH1 0xE0 SHR DUP1 PUSH4 0xB3DE019C GT PUSH2 0x64 JUMPI DUP1 PUSH4 0xB3DE019C EQ PUSH2 0x16E JUMPI DUP1 PUSH4 0xB5CDF924 EQ PUSH2 0x18A JUMPI DUP1 PUSH4 0xBCA6CE64 EQ PUSH2 0x1BA JUMPI DUP1 PUSH4 0xD96A094A EQ PUSH2 0x1D8 JUMPI DUP1 PUSH4 0xDA694DF0 EQ PUSH2 0x1F4 JUMPI PUSH2 0x9C JUMP JUMPDEST DUP1 PUSH4 0x150B7A02 EQ PUSH2 0xA0 JUMPI DUP1 PUSH4 0x394A9077 EQ PUSH2 0xD0 JUMPI DUP1 PUSH4 0x514FCAC7 EQ PUSH2 0x102 JUMPI DUP1 PUSH4 0x785E9E86 EQ PUSH2 0x11E JUMPI DUP1 PUSH4 0xA85C38EF EQ PUSH2 0x13C JUMPI JUMPDEST PUSH0 DUP1 REVERT JUMPDEST PUSH2 0xBA PUSH1 0x4 DUP1 CALLDATASIZE SUB DUP2 ADD SWAP1 PUSH2 0xB5 SWAP2 SWAP1 PUSH2 0xE70 JUMP JUMPDEST PUSH2 0x224 JUMP JUMPDEST PUSH1 0x40 MLOAD PUSH2 0xC7 SWAP2 SWAP1 PUSH2 0xF2E JUMP JUMPDEST PUSH1 0x40 MLOAD DUP1 SWAP2 SUB SWAP1 RETURN JUMPDEST PUSH2 0xEA PUSH1 0x4 DUP1 CALLDATASIZE SUB DUP2 ADD SWAP1 PUSH2 0xE5 SWAP2 SWAP1 PUSH2 0xF47 JUMP JUMPDEST PUSH2 0x4B2 JUMP JUMPDEST PUSH1 0x40 MLOAD PUSH2 0xF9 SWAP4 SWAP3 SWAP2 SWAP1 PUSH2 0xF90 JUMP JUMPDEST PUSH1 0x40 MLOAD DUP1 SWAP2 SUB SWAP1 RETURN JUMPDEST PUSH2 0x11C PUSH1 0x4 DUP1 CALLDATASIZE SUB DUP2 ADD SWAP1 PUSH2 0x117 SWAP2 SWAP1 PUSH2 0xF47 JUMP JUMPDEST PUSH2 0x4F7 JUMP JUMPDEST STOP JUMPDEST PUSH2 0x126 PUSH2 0x66C JUMP JUMPDEST PUSH1 0x40 MLOAD PUSH2 0x133 SWAP2 SWAP1 PUSH2 0x1020 JUMP JUMPDEST PUSH1 0x40 MLOAD DUP1 SWAP2 SUB SWAP1 RETURN JUMPDEST PUSH2 0x156 PUSH1 0x4 DUP1 CALLDATASIZE SUB DUP2 ADD SWAP1 PUSH2 0x151 SWAP2 SWAP1 PUSH2 0xF47 JUMP JUMPDEST PUSH2 0x68F JUMP JUMPDEST PUSH1 0x40 MLOAD PUSH2 0x165 SWAP4 SWAP3 SWAP2 SWAP1 PUSH2 0xF90 JUMP JUMPDEST PUSH1 0x40 MLOAD DUP1 SWAP2 SUB SWAP1 RETURN JUMPDEST PUSH2 0x188 PUSH1 0x4 DUP1 CALLDATASIZE SUB DUP2 ADD SWAP1 PUSH2 0x183 SWAP2 SWAP1 PUSH2 0x1039 JUMP JUMPDEST PUSH2 0x6E3 JUMP JUMPDEST STOP JUMPDEST PUSH2 0x1A4 PUSH1 0x4 DUP1 CALLDATASIZE SUB DUP2 ADD SWAP1 PUSH2 0x19F SWAP2 SWAP1 PUSH2 0x11AF JUMP JUMPDEST PUSH2 0x8B8 JUMP JUMPDEST PUSH1 0x40 MLOAD PUSH2 0x1B1 SWAP2 SWAP1 PUSH2 0x1209 JUMP JUMPDEST PUSH1 0x40 MLOAD DUP1 SWAP2 SUB SWAP1 RETURN JUMPDEST PUSH2 0x1C2 PUSH2 0x96C JUMP JUMPDEST PUSH1 0x40 MLOAD PUSH2 0x1CF SWAP2 SWAP1 PUSH2 0x1242 JUMP JUMPDEST PUSH1 0x40 MLOAD DUP1 SWAP2 SUB SWAP1 RETURN JUMPDEST PUSH2 0x1F2 PUSH1 0x4 DUP1 CALLDATASIZE SUB DUP2 ADD SWAP1 PUSH2 0x1ED SWAP2 SWAP1 PUSH2 0xF47 JUMP JUMPDEST PUSH2 0x991 JUMP JUMPDEST STOP JUMPDEST PUSH2 0x20E PUSH1 0x4 DUP1 CALLDATASIZE SUB DUP2 ADD SWAP1 PUSH2 0x209 SWAP2 SWAP1 PUSH2 0xF47 JUMP JUMPDEST PUSH2 0xB95 JUMP JUMPDEST PUSH1 0x40 MLOAD PUSH2 0x21B SWAP2 SWAP1 PUSH2 0x1209 JUMP JUMPDEST PUSH1 0x40 MLOAD DUP1 SWAP2 SUB SWAP1 RETURN JUMPDEST PUSH0 DUP1 PUSH2 0x273 DUP5 DUP5 DUP1 DUP1 PUSH1 0x1F ADD PUSH1 0x20 DUP1 SWAP2 DIV MUL PUSH1 0x20 ADD PUSH1 0x40 MLOAD SWAP1 DUP2 ADD PUSH1 0x40 MSTORE DUP1 SWAP4 SWAP3 SWAP2 SWAP1 DUP2 DUP2 MSTORE PUSH1 0x20 ADD DUP4 DUP4 DUP1 DUP3 DUP5 CALLDATACOPY PUSH0 DUP2 DUP5 ADD MSTORE PUSH1 0x1F NOT PUSH1 0x1F DUP3 ADD AND SWAP1 POP DUP1 DUP4 ADD SWAP3 POP POP POP POP POP POP POP PUSH0 PUSH2 0x8B8 JUMP JUMPDEST SWAP1 POP PUSH0 DUP2 GT PUSH2 0x2B7 JUMPI PUSH1 0x40 MLOAD PUSH32 0x8C379A000000000000000000000000000000000000000000000000000000000 DUP2 MSTORE PUSH1 0x4 ADD PUSH2 0x2AE SWAP1 PUSH2 0x12B5 JUMP JUMPDEST PUSH1 0x40 MLOAD DUP1 SWAP2 SUB SWAP1 REVERT JUMPDEST PUSH0 PUSH1 0x40 MLOAD DUP1 PUSH1 0x60 ADD PUSH1 0x40 MSTORE DUP1 DUP9 PUSH20 0xFFFFFFFFFFFFFFFFFFFFFFFFFFFFFFFFFFFFFFFF AND DUP2 MSTORE PUSH1 0x20 ADD DUP8 DUP2 MSTORE PUSH1 0x20 ADD DUP4 DUP2 MSTORE POP SWAP1 POP PUSH1 0x3 PUSH1 0x40 MLOAD DUP1 PUSH1 0x60 ADD PUSH1 0x40 MSTORE DUP1 DUP10 PUSH20 0xFFFFFFFFFFFFFFFFFFFFFFFFFFFFFFFFFFFFFFFF AND DUP2 MSTORE PUSH1 0x20 ADD DUP9 DUP2 MSTORE PUSH1 0x20 ADD DUP5 DUP2 MSTORE POP SWAP1 DUP1 PUSH1 0x1 DUP2 SLOAD ADD DUP1 DUP3 SSTORE DUP1 SWAP2 POP POP PUSH1 0x1 SWAP1 SUB SWAP1 PUSH0 MSTORE PUSH1 0x20 PUSH0 KECCAK256 SWAP1 PUSH1 0x3 MUL ADD PUSH0 SWAP1 SWAP2 SWAP1 SWAP2 SWAP1 SWAP2 POP PUSH0 DUP3 ADD MLOAD DUP2 PUSH0 ADD PUSH0 PUSH2 0x100 EXP DUP2 SLOAD DUP2 PUSH20 0xFFFFFFFFFFFFFFFFFFFFFFFFFFFFFFFFFFFFFFFF MUL NOT AND SWAP1 DUP4 PUSH20 0xFFFFFFFFFFFFFFFFFFFFFFFFFFFFFFFFFFFFFFFF AND MUL OR SWAP1 SSTORE POP PUSH1 0x20 DUP3 ADD MLOAD DUP2 PUSH1 0x1 ADD SSTORE PUSH1 0x40 DUP3 ADD MLOAD DUP2 PUSH1 0x2 ADD SSTORE POP POP PUSH1 0x40 MLOAD DUP1 PUSH1 0x60 ADD PUSH1 0x40 MSTORE DUP1 DUP9 PUSH20 0xFFFFFFFFFFFFFFFFFFFFFFFFFFFFFFFFFFFFFFFF AND DUP2 MSTORE PUSH1 0x20 ADD DUP8 DUP2 MSTORE PUSH1 0x20 ADD DUP4 DUP2 MSTORE POP PUSH1 0x2 PUSH0 DUP9 DUP2 MSTORE PUSH1 0x20 ADD SWAP1 DUP2 MSTORE PUSH1 0x20 ADD PUSH0 KECCAK256 PUSH0 DUP3 ADD MLOAD DUP2 PUSH0 ADD PUSH0 PUSH2 0x100 EXP DUP2 SLOAD DUP2 PUSH20 0xFFFFFFFFFFFFFFFFFFFFFFFFFFFFFFFFFFFFFFFF MUL NOT AND SWAP1 DUP4 PUSH20 0xFFFFFFFFFFFFFFFFFFFFFFFFFFFFFFFFFFFFFFFF AND MUL OR SWAP1 SSTORE POP PUSH1 0x20 DUP3 ADD MLOAD DUP2 PUSH1 0x1 ADD SSTORE PUSH1 0x40 DUP3 ADD MLOAD DUP2 PUSH1 0x2 ADD SSTORE SWAP1 POP POP PUSH1 0x1 PUSH1 0x3 DUP1 SLOAD SWAP1 POP PUSH2 0x44D SWAP2 SWAP1 PUSH2 0x1300 JUMP JUMPDEST PUSH1 0x4 PUSH0 DUP9 DUP2 MSTORE PUSH1 0x20 ADD SWAP1 DUP2 MSTORE PUSH1 0x20 ADD PUSH0 KECCAK256 DUP2 SWAP1 SSTORE POP PUSH32 0xD5B509E657D5EC37AE4BDCAB658B7340C0453BB630516D26623359A34C1CECF3 DUP8 DUP8 DUP5 PUSH1 0x40 MLOAD PUSH2 0x495 SWAP4 SWAP3 SWAP2 SWAP1 PUSH2 0xF90 JUMP JUMPDEST PUSH1 0x40 MLOAD DUP1 SWAP2 SUB SWAP1 LOG1 PUSH4 0x150B7A02 PUSH1 0xE0 SHL SWAP3 POP POP POP SWAP6 SWAP5 POP POP POP POP POP JUMP JUMPDEST PUSH1 0x2 PUSH1 0x20 MSTORE DUP1 PUSH0 MSTORE PUSH1 0x40 PUSH0 KECCAK256 PUSH0 SWAP2 POP SWAP1 POP DUP1 PUSH0 ADD PUSH0 SWAP1 SLOAD SWAP1 PUSH2 0x100 EXP SWAP1 DIV PUSH20 0xFFFFFFFFFFFFFFFFFFFFFFFFFFFFFFFFFFFFFFFF AND SWAP1 DUP1 PUSH1 0x1 ADD SLOAD SWAP1 DUP1 PUSH1 0x2 ADD SLOAD SWAP1 POP DUP4 JUMP JUMPDEST PUSH0 PUSH1 0x2 PUSH0 DUP4 DUP2 MSTORE PUSH1 0x20 ADD SWAP1 DUP2 MSTORE PUSH1 0x20 ADD PUSH0 KECCAK256 PUSH0 ADD PUSH0 SWAP1 SLOAD SWAP1 PUSH2 0x100 EXP SWAP1 DIV PUSH20 0xFFFFFFFFFFFFFFFFFFFFFFFFFFFFFFFFFFFFFFFF AND SWAP1 POP DUP1 PUSH20 0xFFFFFFFFFFFFFFFFFFFFFFFFFFFFFFFFFFFFFFFF AND CALLER PUSH20 0xFFFFFFFFFFFFFFFFFFFFFFFFFFFFFFFFFFFFFFFF AND EQ PUSH2 0x59B JUMPI PUSH1 0x40 MLOAD PUSH32 0x8C379A000000000000000000000000000000000000000000000000000000000 DUP2 MSTORE PUSH1 0x4 ADD PUSH2 0x592 SWAP1 PUSH2 0x137D JUMP JUMPDEST PUSH1 0x40 MLOAD DUP1 SWAP2 SUB SWAP1 REVERT JUMPDEST PUSH1 0x1 PUSH0 SWAP1 SLOAD SWAP1 PUSH2 0x100 EXP SWAP1 DIV PUSH20 0xFFFFFFFFFFFFFFFFFFFFFFFFFFFFFFFFFFFFFFFF AND PUSH20 0xFFFFFFFFFFFFFFFFFFFFFFFFFFFFFFFFFFFFFFFF AND PUSH4 0x42842E0E ADDRESS DUP4 DUP6 PUSH1 0x40 MLOAD DUP5 PUSH4 0xFFFFFFFF AND PUSH1 0xE0 SHL DUP2 MSTORE PUSH1 0x4 ADD PUSH2 0x5F9 SWAP4 SWAP3 SWAP2 SWAP1 PUSH2 0x139B JUMP JUMPDEST PUSH0 PUSH1 0x40 MLOAD DUP1 DUP4 SUB DUP2 PUSH0 DUP8 DUP1 EXTCODESIZE ISZERO DUP1 ISZERO PUSH2 0x610 JUMPI PUSH0 DUP1 REVERT JUMPDEST POP GAS CALL ISZERO DUP1 ISZERO PUSH2 0x622 JUMPI RETURNDATASIZE PUSH0 DUP1 RETURNDATACOPY RETURNDATASIZE PUSH0 REVERT JUMPDEST POP POP POP POP PUSH2 0x62F DUP3 PUSH2 0xBAA JUMP JUMPDEST PUSH32 0xDD003742FB214507783CE004FE55F5AC14F89C6DE4A7CD7487E47EB091C62265 DUP2 DUP4 PUSH1 0x40 MLOAD PUSH2 0x660 SWAP3 SWAP2 SWAP1 PUSH2 0x13D0 JUMP JUMPDEST PUSH1 0x40 MLOAD DUP1 SWAP2 SUB SWAP1 LOG1 POP POP JUMP JUMPDEST PUSH0 DUP1 SLOAD SWAP1 PUSH2 0x100 EXP SWAP1 DIV PUSH20 0xFFFFFFFFFFFFFFFFFFFFFFFFFFFFFFFFFFFFFFFF AND DUP2 JUMP JUMPDEST PUSH1 0x3 DUP2 DUP2 SLOAD DUP2 LT PUSH2 0x69E JUMPI PUSH0 DUP1 REVERT JUMPDEST SWAP1 PUSH0 MSTORE PUSH1 0x20 PUSH0 KECCAK256 SWAP1 PUSH1 0x3 MUL ADD PUSH0 SWAP2 POP SWAP1 POP DUP1 PUSH0 ADD PUSH0 SWAP1 SLOAD SWAP1 PUSH2 0x100 EXP SWAP1 DIV PUSH20 0xFFFFFFFFFFFFFFFFFFFFFFFFFFFFFFFFFFFFFFFF AND SWAP1 DUP1 PUSH1 0x1 ADD SLOAD SWAP1 DUP1 PUSH1 0x2 ADD SLOAD SWAP1 POP DUP4 JUMP JUMPDEST PUSH0 PUSH1 0x2 PUSH0 DUP5 DUP2 MSTORE PUSH1 0x20 ADD SWAP1 DUP2 MSTORE PUSH1 0x20 ADD PUSH0 KECCAK256 PUSH0 ADD PUSH0 SWAP1 SLOAD SWAP1 PUSH2 0x100 EXP SWAP1 DIV PUSH20 0xFFFFFFFFFFFFFFFFFFFFFFFFFFFFFFFFFFFFFFFF AND SWAP1 POP DUP1 PUSH20 0xFFFFFFFFFFFFFFFFFFFFFFFFFFFFFFFFFFFFFFFF AND CALLER PUSH20 0xFFFFFFFFFFFFFFFFFFFFFFFFFFFFFFFFFFFFFFFF AND EQ PUSH2 0x787 JUMPI PUSH1 0x40 MLOAD PUSH32 0x8C379A000000000000000000000000000000000000000000000000000000000 DUP2 MSTORE PUSH1 0x4 ADD PUSH2 0x77E SWAP1 PUSH2 0x137D JUMP JUMPDEST PUSH1 0x40 MLOAD DUP1 SWAP2 SUB SWAP1 REVERT JUMPDEST PUSH0 DUP3 GT PUSH2 0x7C9 JUMPI PUSH1 0x40 MLOAD PUSH32 0x8C379A000000000000000000000000000000000000000000000000000000000 DUP2 MSTORE PUSH1 0x4 ADD PUSH2 0x7C0 SWAP1 PUSH2 0x12B5 JUMP JUMPDEST PUSH1 0x40 MLOAD DUP1 SWAP2 SUB SWAP1 REVERT JUMPDEST PUSH0 PUSH1 0x2 PUSH0 DUP6 DUP2 MSTORE PUSH1 0x20 ADD SWAP1 DUP2 MSTORE PUSH1 0x20 ADD PUSH0 KECCAK256 PUSH1 0x2 ADD SLOAD SWAP1 POP DUP3 PUSH1 0x2 PUSH0 DUP7 DUP2 MSTORE PUSH1 0x20 ADD SWAP1 DUP2 MSTORE PUSH1 0x20 ADD PUSH0 KECCAK256 PUSH1 0x2 ADD DUP2 SWAP1 SSTORE POP PUSH0 PUSH1 0x3 PUSH1 0x4 PUSH0 DUP8 DUP2 MSTORE PUSH1 0x20 ADD SWAP1 DUP2 MSTORE PUSH1 0x20 ADD PUSH0 KECCAK256 SLOAD DUP2 SLOAD DUP2 LT PUSH2 0x820 JUMPI PUSH2 0x81F PUSH2 0x13F7 JUMP JUMPDEST JUMPDEST SWAP1 PUSH0 MSTORE PUSH1 0x20 PUSH0 KECCAK256 SWAP1 PUSH1 0x3 MUL ADD SWAP1 POP PUSH32 0xDAC6AECD066304D15A41E8E590FC5AB5BF93634F43CBA363F743D5E158D79988 DUP4 DUP7 DUP5 DUP8 PUSH1 0x40 MLOAD PUSH2 0x863 SWAP5 SWAP4 SWAP3 SWAP2 SWAP1 PUSH2 0x1424 JUMP JUMPDEST PUSH1 0x40 MLOAD DUP1 SWAP2 SUB SWAP1 LOG1 DUP4 DUP2 PUSH1 0x2 ADD DUP2 SWAP1 SSTORE POP PUSH32 0xDAC6AECD066304D15A41E8E590FC5AB5BF93634F43CBA363F743D5E158D79988 DUP4 DUP7 DUP5 DUP8 PUSH1 0x40 MLOAD PUSH2 0x8A9 SWAP5 SWAP4 SWAP3 SWAP2 SWAP1 PUSH2 0x1424 JUMP JUMPDEST PUSH1 0x40 MLOAD DUP1 SWAP2 SUB SWAP1 LOG1 POP POP POP POP POP JUMP JUMPDEST PUSH0 DUP2 PUSH1 0x20 DUP4 PUSH2 0x8C7 SWAP2 SWAP1 PUSH2 0x1467 JUMP JUMPDEST LT ISZERO PUSH2 0x908 JUMPI PUSH1 0x40 MLOAD PUSH32 0x8C379A000000000000000000000000000000000000000000000000000000000 DUP2 MSTORE PUSH1 0x4 ADD PUSH2 0x8FF SWAP1 PUSH2 0x14E4 JUMP JUMPDEST PUSH1 0x40 MLOAD DUP1 SWAP2 SUB SWAP1 REVERT JUMPDEST PUSH1 0x20 DUP3 PUSH2 0x915 SWAP2 SWAP1 PUSH2 0x1467 JUMP JUMPDEST DUP4 MLOAD LT ISZERO PUSH2 0x958 JUMPI PUSH1 0x40 MLOAD PUSH32 0x8C379A000000000000000000000000000000000000000000000000000000000 DUP2 MSTORE PUSH1 0x4 ADD PUSH2 0x94F SWAP1 PUSH2 0x154C JUMP JUMPDEST PUSH1 0x40 MLOAD DUP1 SWAP2 SUB SWAP1 REVERT JUMPDEST PUSH0 DUP3 PUSH1 0x20 DUP6 ADD ADD MLOAD SWAP1 POP DUP1 SWAP2 POP POP SWAP3 SWAP2 POP POP JUMP JUMPDEST PUSH1 0x1 PUSH0 SWAP1 SLOAD SWAP1 PUSH2 0x100 EXP SWAP1 DIV PUSH20 0xFFFFFFFFFFFFFFFFFFFFFFFFFFFFFFFFFFFFFFFF AND DUP2 JUMP JUMPDEST PUSH0 PUSH1 0x2 PUSH0 DUP4 DUP2 MSTORE PUSH1 0x20 ADD SWAP1 DUP2 MSTORE PUSH1 0x20 ADD PUSH0 KECCAK256 PUSH0 ADD PUSH0 SWAP1 SLOAD SWAP1 PUSH2 0x100 EXP SWAP1 DIV PUSH20 0xFFFFFFFFFFFFFFFFFFFFFFFFFFFFFFFFFFFFFFFF AND SWAP1 POP PUSH0 CALLER SWAP1 POP PUSH0 PUSH1 0x2 PUSH0 DUP6 DUP2 MSTORE PUSH1 0x20 ADD SWAP1 DUP2 MSTORE PUSH1 0x20 ADD PUSH0 KECCAK256 PUSH1 0x2 ADD SLOAD SWAP1 POP PUSH0 DUP1 SLOAD SWAP1 PUSH2 0x100 EXP SWAP1 DIV PUSH20 0xFFFFFFFFFFFFFFFFFFFFFFFFFFFFFFFFFFFFFFFF AND PUSH20 0xFFFFFFFFFFFFFFFFFFFFFFFFFFFFFFFFFFFFFFFF AND PUSH4 0x23B872DD DUP4 DUP6 DUP5 PUSH1 0x40 MLOAD DUP5 PUSH4 0xFFFFFFFF AND PUSH1 0xE0 SHL DUP2 MSTORE PUSH1 0x4 ADD PUSH2 0xA3F SWAP4 SWAP3 SWAP2 SWAP1 PUSH2 0x139B JUMP JUMPDEST PUSH1 0x20 PUSH1 0x40 MLOAD DUP1 DUP4 SUB DUP2 PUSH0 DUP8 GAS CALL ISZERO DUP1 ISZERO PUSH2 0xA5B JUMPI RETURNDATASIZE PUSH0 DUP1 RETURNDATACOPY RETURNDATASIZE PUSH0 REVERT JUMPDEST POP POP POP POP PUSH1 0x40 MLOAD RETURNDATASIZE PUSH1 0x1F NOT PUSH1 0x1F DUP3 ADD AND DUP3 ADD DUP1 PUSH1 0x40 MSTORE POP DUP2 ADD SWAP1 PUSH2 0xA7F SWAP2 SWAP1 PUSH2 0x159F JUMP JUMPDEST PUSH2 0xABE JUMPI PUSH1 0x40 MLOAD PUSH32 0x8C379A000000000000000000000000000000000000000000000000000000000 DUP2 MSTORE PUSH1 0x4 ADD PUSH2 0xAB5 SWAP1 PUSH2 0x1614 JUMP JUMPDEST PUSH1 0x40 MLOAD DUP1 SWAP2 SUB SWAP1 REVERT JUMPDEST PUSH1 0x1 PUSH0 SWAP1 SLOAD SWAP1 PUSH2 0x100 EXP SWAP1 DIV PUSH20 0xFFFFFFFFFFFFFFFFFFFFFFFFFFFFFFFFFFFFFFFF AND PUSH20 0xFFFFFFFFFFFFFFFFFFFFFFFFFFFFFFFFFFFFFFFF AND PUSH4 0x42842E0E ADDRESS DUP5 DUP8 PUSH1 0x40 MLOAD DUP5 PUSH4 0xFFFFFFFF AND PUSH1 0xE0 SHL DUP2 MSTORE PUSH1 0x4 ADD PUSH2 0xB1C SWAP4 SWAP3 SWAP2 SWAP1 PUSH2 0x139B JUMP JUMPDEST PUSH0 PUSH1 0x40 MLOAD DUP1 DUP4 SUB DUP2 PUSH0 DUP8 DUP1 EXTCODESIZE ISZERO DUP1 ISZERO PUSH2 0xB33 JUMPI PUSH0 DUP1 REVERT JUMPDEST POP GAS CALL ISZERO DUP1 ISZERO PUSH2 0xB45 JUMPI RETURNDATASIZE PUSH0 DUP1 RETURNDATACOPY RETURNDATASIZE PUSH0 REVERT JUMPDEST POP POP POP POP PUSH2 0xB52 DUP5 PUSH2 0xBAA JUMP JUMPDEST PUSH32 0x424D5E5F0192C7DACDBE646CA31B00299146D883D76A95EF5CDDBAC7CD342EAB DUP4 DUP4 DUP7 DUP5 PUSH1 0x40 MLOAD PUSH2 0xB87 SWAP5 SWAP4 SWAP3 SWAP2 SWAP1 PUSH2 0x1632 JUMP JUMPDEST PUSH1 0x40 MLOAD DUP1 SWAP2 SUB SWAP1 LOG1 POP POP POP POP JUMP JUMPDEST PUSH1 0x4 PUSH1 0x20 MSTORE DUP1 PUSH0 MSTORE PUSH1 0x40 PUSH0 KECCAK256 PUSH0 SWAP2 POP SWAP1 POP SLOAD DUP2 JUMP JUMPDEST PUSH0 PUSH1 0x4 PUSH0 DUP4 DUP2 MSTORE PUSH1 0x20 ADD SWAP1 DUP2 MSTORE PUSH1 0x20 ADD PUSH0 KECCAK256 SLOAD SWAP1 POP PUSH0 PUSH1 0x1 PUSH1 0x3 DUP1 SLOAD SWAP1 POP PUSH2 0xBD2 SWAP2 SWAP1 PUSH2 0x1300 JUMP JUMPDEST SWAP1 POP DUP1 DUP3 EQ PUSH2 0xCB5 JUMPI PUSH0 PUSH1 0x3 DUP3 DUP2 SLOAD DUP2 LT PUSH2 0xBF0 JUMPI PUSH2 0xBEF PUSH2 0x13F7 JUMP JUMPDEST JUMPDEST SWAP1 PUSH0 MSTORE PUSH1 0x20 PUSH0 KECCAK256 SWAP1 PUSH1 0x3 MUL ADD SWAP1 POP DUP1 PUSH1 0x3 DUP5 DUP2 SLOAD DUP2 LT PUSH2 0xC13 JUMPI PUSH2 0xC12 PUSH2 0x13F7 JUMP JUMPDEST JUMPDEST SWAP1 PUSH0 MSTORE PUSH1 0x20 PUSH0 KECCAK256 SWAP1 PUSH1 0x3 MUL ADD PUSH0 DUP3 ADD PUSH0 SWAP1 SLOAD SWAP1 PUSH2 0x100 EXP SWAP1 DIV PUSH20 0xFFFFFFFFFFFFFFFFFFFFFFFFFFFFFFFFFFFFFFFF AND DUP2 PUSH0 ADD PUSH0 PUSH2 0x100 EXP DUP2 SLOAD DUP2 PUSH20 0xFFFFFFFFFFFFFFFFFFFFFFFFFFFFFFFFFFFFFFFF MUL NOT AND SWAP1 DUP4 PUSH20 0xFFFFFFFFFFFFFFFFFFFFFFFFFFFFFFFFFFFFFFFF AND MUL OR SWAP1 SSTORE POP PUSH1 0x1 DUP3 ADD SLOAD DUP2 PUSH1 0x1 ADD SSTORE PUSH1 0x2 DUP3 ADD SLOAD DUP2 PUSH1 0x2 ADD SSTORE SWAP1 POP POP DUP3 PUSH1 0x4 PUSH0 DUP4 PUSH1 0x1 ADD SLOAD DUP2 MSTORE PUSH1 0x20 ADD SWAP1 DUP2 MSTORE PUSH1 0x20 ADD PUSH0 KECCAK256 DUP2 SWAP1 SSTORE POP POP JUMPDEST PUSH1 0x3 DUP1 SLOAD DUP1 PUSH2 0xCC7 JUMPI PUSH2 0xCC6 PUSH2 0x1675 JUMP JUMPDEST JUMPDEST PUSH1 0x1 SWAP1 SUB DUP2 DUP2 SWAP1 PUSH0 MSTORE PUSH1 0x20 PUSH0 KECCAK256 SWAP1 PUSH1 0x3 MUL ADD PUSH0 DUP1 DUP3 ADD PUSH0 PUSH2 0x100 EXP DUP2 SLOAD SWAP1 PUSH20 0xFFFFFFFFFFFFFFFFFFFFFFFFFFFFFFFFFFFFFFFF MUL NOT AND SWAP1 SSTORE PUSH1 0x1 DUP3 ADD PUSH0 SWAP1 SSTORE PUSH1 0x2 DUP3 ADD PUSH0 SWAP1 SSTORE POP POP SWAP1 SSTORE PUSH1 0x2 PUSH0 DUP5 DUP2 MSTORE PUSH1 0x20 ADD SWAP1 DUP2 MSTORE PUSH1 0x20 ADD PUSH0 KECCAK256 PUSH0 DUP1 DUP3 ADD PUSH0 PUSH2 0x100 EXP DUP2 SLOAD SWAP1 PUSH20 0xFFFFFFFFFFFFFFFFFFFFFFFFFFFFFFFFFFFFFFFF MUL NOT AND SWAP1 SSTORE PUSH1 0x1 DUP3 ADD PUSH0 SWAP1 SSTORE PUSH1 0x2 DUP3 ADD PUSH0 SWAP1 SSTORE POP POP PUSH1 0x4 PUSH0 DUP5 DUP2 MSTORE PUSH1 0x20 ADD SWAP1 DUP2 MSTORE PUSH1 0x20 ADD PUSH0 KECCAK256 PUSH0 SWAP1 SSTORE POP POP POP JUMP JUMPDEST PUSH0 PUSH1 0x40 MLOAD SWAP1 POP SWAP1 JUMP JUMPDEST PUSH0 DUP1 REVERT JUMPDEST PUSH0 DUP1 REVERT JUMPDEST PUSH0 PUSH20 0xFFFFFFFFFFFFFFFFFFFFFFFFFFFFFFFFFFFFFFFF DUP3 AND SWAP1 POP SWAP2 SWAP1 POP JUMP JUMPDEST PUSH0 PUSH2 0xDAB DUP3 PUSH2 0xD82 JUMP JUMPDEST SWAP1 POP SWAP2 SWAP1 POP JUMP JUMPDEST PUSH2 0xDBB DUP2 PUSH2 0xDA1 JUMP JUMPDEST DUP2 EQ PUSH2 0xDC5 JUMPI PUSH0 DUP1 REVERT JUMPDEST POP JUMP JUMPDEST PUSH0 DUP2 CALLDATALOAD SWAP1 POP PUSH2 0xDD6 DUP2 PUSH2 0xDB2 JUMP JUMPDEST SWAP3 SWAP2 POP POP JUMP JUMPDEST PUSH0 DUP2 SWAP1 POP SWAP2 SWAP1 POP JUMP JUMPDEST PUSH2 0xDEE DUP2 PUSH2 0xDDC JUMP JUMPDEST DUP2 EQ PUSH2 0xDF8 JUMPI PUSH0 DUP1 REVERT JUMPDEST POP JUMP JUMPDEST PUSH0 DUP2 CALLDATALOAD SWAP1 POP PUSH2 0xE09 DUP2 PUSH2 0xDE5 JUMP JUMPDEST SWAP3 SWAP2 POP POP JUMP JUMPDEST PUSH0 DUP1 REVERT JUMPDEST PUSH0 DUP1 REVERT JUMPDEST PUSH0 DUP1 REVERT JUMPDEST PUSH0 DUP1 DUP4 PUSH1 0x1F DUP5 ADD SLT PUSH2 0xE30 JUMPI PUSH2 0xE2F PUSH2 0xE0F JUMP JUMPDEST JUMPDEST DUP3 CALLDATALOAD SWAP1 POP PUSH8 0xFFFFFFFFFFFFFFFF DUP2 GT ISZERO PUSH2 0xE4D JUMPI PUSH2 0xE4C PUSH2 0xE13 JUMP JUMPDEST JUMPDEST PUSH1 0x20 DUP4 ADD SWAP2 POP DUP4 PUSH1 0x1 DUP3 MUL DUP4 ADD GT ISZERO PUSH2 0xE69 JUMPI PUSH2 0xE68 PUSH2 0xE17 JUMP JUMPDEST JUMPDEST SWAP3 POP SWAP3 SWAP1 POP JUMP JUMPDEST PUSH0 DUP1 PUSH0 DUP1 PUSH0 PUSH1 0x80 DUP7 DUP9 SUB SLT ISZERO PUSH2 0xE89 JUMPI PUSH2 0xE88 PUSH2 0xD7A JUMP JUMPDEST JUMPDEST PUSH0 PUSH2 0xE96 DUP9 DUP3 DUP10 ADD PUSH2 0xDC8 JUMP JUMPDEST SWAP6 POP POP PUSH1 0x20 PUSH2 0xEA7 DUP9 DUP3 DUP10 ADD PUSH2 0xDC8 JUMP JUMPDEST SWAP5 POP POP PUSH1 0x40 PUSH2 0xEB8 DUP9 DUP3 DUP10 ADD PUSH2 0xDFB JUMP JUMPDEST SWAP4 POP POP PUSH1 0x60 DUP7 ADD CALLDATALOAD PUSH8 0xFFFFFFFFFFFFFFFF DUP2 GT ISZERO PUSH2 0xED9 JUMPI PUSH2 0xED8 PUSH2 0xD7E JUMP JUMPDEST JUMPDEST PUSH2 0xEE5 DUP9 DUP3 DUP10 ADD PUSH2 0xE1B JUMP JUMPDEST SWAP3 POP SWAP3 POP POP SWAP3 SWAP6 POP SWAP3 SWAP6 SWAP1 SWAP4 POP JUMP JUMPDEST PUSH0 PUSH32 0xFFFFFFFF00000000000000000000000000000000000000000000000000000000 DUP3 AND SWAP1 POP SWAP2 SWAP1 POP JUMP JUMPDEST PUSH2 0xF28 DUP2 PUSH2 0xEF4 JUMP JUMPDEST DUP3 MSTORE POP POP JUMP JUMPDEST PUSH0 PUSH1 0x20 DUP3 ADD SWAP1 POP PUSH2 0xF41 PUSH0 DUP4 ADD DUP5 PUSH2 0xF1F JUMP JUMPDEST SWAP3 SWAP2 POP POP JUMP JUMPDEST PUSH0 PUSH1 0x20 DUP3 DUP5 SUB SLT ISZERO PUSH2 0xF5C JUMPI PUSH2 0xF5B PUSH2 0xD7A JUMP JUMPDEST JUMPDEST PUSH0 PUSH2 0xF69 DUP5 DUP3 DUP6 ADD PUSH2 0xDFB JUMP JUMPDEST SWAP2 POP POP SWAP3 SWAP2 POP POP JUMP JUMPDEST PUSH2 0xF7B DUP2 PUSH2 0xDA1 JUMP JUMPDEST DUP3 MSTORE POP POP JUMP JUMPDEST PUSH2 0xF8A DUP2 PUSH2 0xDDC JUMP JUMPDEST DUP3 MSTORE POP POP JUMP JUMPDEST PUSH0 PUSH1 0x60 DUP3 ADD SWAP1 POP PUSH2 0xFA3 PUSH0 DUP4 ADD DUP7 PUSH2 0xF72 JUMP JUMPDEST PUSH2 0xFB0 PUSH1 0x20 DUP4 ADD DUP6 PUSH2 0xF81 JUMP JUMPDEST PUSH2 0xFBD PUSH1 0x40 DUP4 ADD DUP5 PUSH2 0xF81 JUMP JUMPDEST SWAP5 SWAP4 POP POP POP POP JUMP JUMPDEST PUSH0 DUP2 SWAP1 POP SWAP2 SWAP1 POP JUMP JUMPDEST PUSH0 PUSH2 0xFE8 PUSH2 0xFE3 PUSH2 0xFDE DUP5 PUSH2 0xD82 JUMP JUMPDEST PUSH2 0xFC5 JUMP JUMPDEST PUSH2 0xD82 JUMP JUMPDEST SWAP1 POP SWAP2 SWAP1 POP JUMP JUMPDEST PUSH0 PUSH2 0xFF9 DUP3 PUSH2 0xFCE JUMP JUMPDEST SWAP1 POP SWAP2 SWAP1 POP JUMP JUMPDEST PUSH0 PUSH2 0x100A DUP3 PUSH2 0xFEF JUMP JUMPDEST SWAP1 POP SWAP2 SWAP1 POP JUMP JUMPDEST PUSH2 0x101A DUP2 PUSH2 0x1000 JUMP JUMPDEST DUP3 MSTORE POP POP JUMP JUMPDEST PUSH0 PUSH1 0x20 DUP3 ADD SWAP1 POP PUSH2 0x1033 PUSH0 DUP4 ADD DUP5 PUSH2 0x1011 JUMP JUMPDEST SWAP3 SWAP2 POP POP JUMP JUMPDEST PUSH0 DUP1 PUSH1 0x40 DUP4 DUP6 SUB SLT ISZERO PUSH2 0x104F JUMPI PUSH2 0x104E PUSH2 0xD7A JUMP JUMPDEST JUMPDEST PUSH0 PUSH2 0x105C DUP6 DUP3 DUP7 ADD PUSH2 0xDFB JUMP JUMPDEST SWAP3 POP POP PUSH1 0x20 PUSH2 0x106D DUP6 DUP3 DUP7 ADD PUSH2 0xDFB JUMP JUMPDEST SWAP2 POP POP SWAP3 POP SWAP3 SWAP1 POP JUMP JUMPDEST PUSH0 DUP1 REVERT JUMPDEST PUSH0 PUSH1 0x1F NOT PUSH1 0x1F DUP4 ADD AND SWAP1 POP SWAP2 SWAP1 POP JUMP JUMPDEST PUSH32 0x4E487B7100000000000000000000000000000000000000000000000000000000 PUSH0 MSTORE PUSH1 0x41 PUSH1 0x4 MSTORE PUSH1 0x24 PUSH0 REVERT JUMPDEST PUSH2 0x10C1 DUP3 PUSH2 0x107B JUMP JUMPDEST DUP2 ADD DUP2 DUP2 LT PUSH8 0xFFFFFFFFFFFFFFFF DUP3 GT OR ISZERO PUSH2 0x10E0 JUMPI PUSH2 0x10DF PUSH2 0x108B JUMP JUMPDEST JUMPDEST DUP1 PUSH1 0x40 MSTORE POP POP POP JUMP JUMPDEST PUSH0 PUSH2 0x10F2 PUSH2 0xD71 JUMP JUMPDEST SWAP1 POP PUSH2 0x10FE DUP3 DUP3 PUSH2 0x10B8 JUMP JUMPDEST SWAP2 SWAP1 POP JUMP JUMPDEST PUSH0 PUSH8 0xFFFFFFFFFFFFFFFF DUP3 GT ISZERO PUSH2 0x111D JUMPI PUSH2 0x111C PUSH2 0x108B JUMP JUMPDEST JUMPDEST PUSH2 0x1126 DUP3 PUSH2 0x107B JUMP JUMPDEST SWAP1 POP PUSH1 0x20 DUP2 ADD SWAP1 POP SWAP2 SWAP1 POP JUMP JUMPDEST DUP3 DUP2 DUP4 CALLDATACOPY PUSH0 DUP4 DUP4 ADD MSTORE POP POP POP JUMP JUMPDEST PUSH0 PUSH2 0x1153 PUSH2 0x114E DUP5 PUSH2 0x1103 JUMP JUMPDEST PUSH2 0x10E9 JUMP JUMPDEST SWAP1 POP DUP3 DUP2 MSTORE PUSH1 0x20 DUP2 ADD DUP5 DUP5 DUP5 ADD GT ISZERO PUSH2 0x116F JUMPI PUSH2 0x116E PUSH2 0x1077 JUMP JUMPDEST JUMPDEST PUSH2 0x117A DUP5 DUP3 DUP6 PUSH2 0x1133 JUMP JUMPDEST POP SWAP4 SWAP3 POP POP POP JUMP JUMPDEST PUSH0 DUP3 PUSH1 0x1F DUP4 ADD SLT PUSH2 0x1196 JUMPI PUSH2 0x1195 PUSH2 0xE0F JUMP JUMPDEST JUMPDEST DUP2 CALLDATALOAD PUSH2 0x11A6 DUP5 DUP3 PUSH1 0x20 DUP7 ADD PUSH2 0x1141 JUMP JUMPDEST SWAP2 POP POP SWAP3 SWAP2 POP POP JUMP JUMPDEST PUSH0 DUP1 PUSH1 0x40 DUP4 DUP6 SUB SLT ISZERO PUSH2 0x11C5 JUMPI PUSH2 0x11C4 PUSH2 0xD7A JUMP JUMPDEST JUMPDEST PUSH0 DUP4 ADD CALLDATALOAD PUSH8 0xFFFFFFFFFFFFFFFF DUP2 GT ISZERO PUSH2 0x11E2 JUMPI PUSH2 0x11E1 PUSH2 0xD7E JUMP JUMPDEST JUMPDEST PUSH2 0x11EE DUP6 DUP3 DUP7 ADD PUSH2 0x1182 JUMP JUMPDEST SWAP3 POP POP PUSH1 0x20 PUSH2 0x11FF DUP6 DUP3 DUP7 ADD PUSH2 0xDFB JUMP JUMPDEST SWAP2 POP POP SWAP3 POP SWAP3 SWAP1 POP JUMP JUMPDEST PUSH0 PUSH1 0x20 DUP3 ADD SWAP1 POP PUSH2 0x121C PUSH0 DUP4 ADD DUP5 PUSH2 0xF81 JUMP JUMPDEST SWAP3 SWAP2 POP POP JUMP JUMPDEST PUSH0 PUSH2 0x122C DUP3 PUSH2 0xFEF JUMP JUMPDEST SWAP1 POP SWAP2 SWAP1 POP JUMP JUMPDEST PUSH2 0x123C DUP2 PUSH2 0x1222 JUMP JUMPDEST DUP3 MSTORE POP POP JUMP JUMPDEST PUSH0 PUSH1 0x20 DUP3 ADD SWAP1 POP PUSH2 0x1255 PUSH0 DUP4 ADD DUP5 PUSH2 0x1233 JUMP JUMPDEST SWAP3 SWAP2 POP POP JUMP JUMPDEST PUSH0 DUP3 DUP3 MSTORE PUSH1 0x20 DUP3 ADD SWAP1 POP SWAP3 SWAP2 POP POP JUMP JUMPDEST PUSH32 0x7072696365206D7573742062652067726561746572207468616E203000000000 PUSH0 DUP3 ADD MSTORE POP JUMP JUMPDEST PUSH0 PUSH2 0x129F PUSH1 0x1C DUP4 PUSH2 0x125B JUMP JUMPDEST SWAP2 POP PUSH2 0x12AA DUP3 PUSH2 0x126B JUMP JUMPDEST PUSH1 0x20 DUP3 ADD SWAP1 POP SWAP2 SWAP1 POP JUMP JUMPDEST PUSH0 PUSH1 0x20 DUP3 ADD SWAP1 POP DUP2 DUP2 SUB PUSH0 DUP4 ADD MSTORE PUSH2 0x12CC DUP2 PUSH2 0x1293 JUMP JUMPDEST SWAP1 POP SWAP2 SWAP1 POP JUMP JUMPDEST PUSH32 0x4E487B7100000000000000000000000000000000000000000000000000000000 PUSH0 MSTORE PUSH1 0x11 PUSH1 0x4 MSTORE PUSH1 0x24 PUSH0 REVERT JUMPDEST PUSH0 PUSH2 0x130A DUP3 PUSH2 0xDDC JUMP JUMPDEST SWAP2 POP PUSH2 0x1315 DUP4 PUSH2 0xDDC JUMP JUMPDEST SWAP3 POP DUP3 DUP3 SUB SWAP1 POP DUP2 DUP2 GT ISZERO PUSH2 0x132D JUMPI PUSH2 0x132C PUSH2 0x12D3 JUMP JUMPDEST JUMPDEST SWAP3 SWAP2 POP POP JUMP JUMPDEST PUSH32 0x6E6F74207468652073656C6C6572000000000000000000000000000000000000 PUSH0 DUP3 ADD MSTORE POP JUMP JUMPDEST PUSH0 PUSH2 0x1367 PUSH1 0xE DUP4 PUSH2 0x125B JUMP JUMPDEST SWAP2 POP PUSH2 0x1372 DUP3 PUSH2 0x1333 JUMP JUMPDEST PUSH1 0x20 DUP3 ADD SWAP1 POP SWAP2 SWAP1 POP JUMP JUMPDEST PUSH0 PUSH1 0x20 DUP3 ADD SWAP1 POP DUP2 DUP2 SUB PUSH0 DUP4 ADD MSTORE PUSH2 0x1394 DUP2 PUSH2 0x135B JUMP JUMPDEST SWAP1 POP SWAP2 SWAP1 POP JUMP JUMPDEST PUSH0 PUSH1 0x60 DUP3 ADD SWAP1 POP PUSH2 0x13AE PUSH0 DUP4 ADD DUP7 PUSH2 0xF72 JUMP JUMPDEST PUSH2 0x13BB PUSH1 0x20 DUP4 ADD DUP6 PUSH2 0xF72 JUMP JUMPDEST PUSH2 0x13C8 PUSH1 0x40 DUP4 ADD DUP5 PUSH2 0xF81 JUMP JUMPDEST SWAP5 SWAP4 POP POP POP POP JUMP JUMPDEST PUSH0 PUSH1 0x40 DUP3 ADD SWAP1 POP PUSH2 0x13E3 PUSH0 DUP4 ADD DUP6 PUSH2 0xF72 JUMP JUMPDEST PUSH2 0x13F0 PUSH1 0x20 DUP4 ADD DUP5 PUSH2 0xF81 JUMP JUMPDEST SWAP4 SWAP3 POP POP POP JUMP JUMPDEST PUSH32 0x4E487B7100000000000000000000000000000000000000000000000000000000 PUSH0 MSTORE PUSH1 0x32 PUSH1 0x4 MSTORE PUSH1 0x24 PUSH0 REVERT JUMPDEST PUSH0 PUSH1 0x80 DUP3 ADD SWAP1 POP PUSH2 0x1437 PUSH0 DUP4 ADD DUP8 PUSH2 0xF72 JUMP JUMPDEST PUSH2 0x1444 PUSH1 0x20 DUP4 ADD DUP7 PUSH2 0xF81 JUMP JUMPDEST PUSH2 0x1451 PUSH1 0x40 DUP4 ADD DUP6 PUSH2 0xF81 JUMP JUMPDEST PUSH2 0x145E PUSH1 0x60 DUP4 ADD DUP5 PUSH2 0xF81 JUMP JUMPDEST SWAP6 SWAP5 POP POP POP POP POP JUMP JUMPDEST PUSH0 PUSH2 0x1471 DUP3 PUSH2 0xDDC JUMP JUMPDEST SWAP2 POP PUSH2 0x147C DUP4 PUSH2 0xDDC JUMP JUMPDEST SWAP3 POP DUP3 DUP3 ADD SWAP1 POP DUP1 DUP3 GT ISZERO PUSH2 0x1494 JUMPI PUSH2 0x1493 PUSH2 0x12D3 JUMP JUMPDEST JUMPDEST SWAP3 SWAP2 POP POP JUMP JUMPDEST PUSH32 0x4D61726B65743A20746F55696E743235365F6F766572666C6F77000000000000 PUSH0 DUP3 ADD MSTORE POP JUMP JUMPDEST PUSH0 PUSH2 0x14CE PUSH1 0x1A DUP4 PUSH2 0x125B JUMP JUMPDEST SWAP2 POP PUSH2 0x14D9 DUP3 PUSH2 0x149A JUMP JUMPDEST PUSH1 0x20 DUP3 ADD SWAP1 POP SWAP2 SWAP1 POP JUMP JUMPDEST PUSH0 PUSH1 0x20 DUP3 ADD SWAP1 POP DUP2 DUP2 SUB PUSH0 DUP4 ADD MSTORE PUSH2 0x14FB DUP2 PUSH2 0x14C2 JUMP JUMPDEST SWAP1 POP SWAP2 SWAP1 POP JUMP JUMPDEST PUSH32 0x4D61726B65743A20746F55696E743235365F6F75744F66426F756E6473000000 PUSH0 DUP3 ADD MSTORE POP JUMP JUMPDEST PUSH0 PUSH2 0x1536 PUSH1 0x1D DUP4 PUSH2 0x125B JUMP JUMPDEST SWAP2 POP PUSH2 0x1541 DUP3 PUSH2 0x1502 JUMP JUMPDEST PUSH1 0x20 DUP3 ADD SWAP1 POP SWAP2 SWAP1 POP JUMP JUMPDEST PUSH0 PUSH1 0x20 DUP3 ADD SWAP1 POP DUP2 DUP2 SUB PUSH0 DUP4 ADD MSTORE PUSH2 0x1563 DUP2 PUSH2 0x152A JUMP JUMPDEST SWAP1 POP SWAP2 SWAP1 POP JUMP JUMPDEST PUSH0 DUP2 ISZERO ISZERO SWAP1 POP SWAP2 SWAP1 POP JUMP JUMPDEST PUSH2 0x157E DUP2 PUSH2 0x156A JUMP JUMPDEST DUP2 EQ PUSH2 0x1588 JUMPI PUSH0 DUP1 REVERT JUMPDEST POP JUMP JUMPDEST PUSH0 DUP2 MLOAD SWAP1 POP PUSH2 0x1599 DUP2 PUSH2 0x1575 JUMP JUMPDEST SWAP3 SWAP2 POP POP JUMP JUMPDEST PUSH0 PUSH1 0x20 DUP3 DUP5 SUB SLT ISZERO PUSH2 0x15B4 JUMPI PUSH2 0x15B3 PUSH2 0xD7A JUMP JUMPDEST JUMPDEST PUSH0 PUSH2 0x15C1 DUP5 DUP3 DUP6 ADD PUSH2 0x158B JUMP JUMPDEST SWAP2 POP POP SWAP3 SWAP2 POP POP JUMP JUMPDEST PUSH32 0x7472616E73666572206E6F74207375636365737366756C000000000000000000 PUSH0 DUP3 ADD MSTORE POP JUMP JUMPDEST PUSH0 PUSH2 0x15FE PUSH1 0x17 DUP4 PUSH2 0x125B JUMP JUMPDEST SWAP2 POP PUSH2 0x1609 DUP3 PUSH2 0x15CA JUMP JUMPDEST PUSH1 0x20 DUP3 ADD SWAP1 POP SWAP2 SWAP1 POP JUMP JUMPDEST PUSH0 PUSH1 0x20 DUP3 ADD SWAP1 POP DUP2 DUP2 SUB PUSH0 DUP4 ADD MSTORE PUSH2 0x162B DUP2 PUSH2 0x15F2 JUMP JUMPDEST SWAP1 POP SWAP2 SWAP1 POP JUMP JUMPDEST PUSH0 PUSH1 0x80 DUP3 ADD SWAP1 POP PUSH2 0x1645 PUSH0 DUP4 ADD DUP8 PUSH2 0xF72 JUMP JUMPDEST PUSH2 0x1652 PUSH1 0x20 DUP4 ADD DUP7 PUSH2 0xF72 JUMP JUMPDEST PUSH2 0x165F PUSH1 0x40 DUP4 ADD DUP6 PUSH2 0xF81 JUMP JUMPDEST PUSH2 0x166C PUSH1 0x60 DUP4 ADD DUP5 PUSH2 0xF81 JUMP JUMPDEST SWAP6 SWAP5 POP POP POP POP POP JUMP JUMPDEST PUSH32 0x4E487B7100000000000000000000000000000000000000000000000000000000 PUSH0 MSTORE PUSH1 0x31 PUSH1 0x4 MSTORE PUSH1 0x24 PUSH0 REVERT INVALID LOG2 PUSH5 0x6970667358 0x22 SLT KECCAK256 PUSH27 0x3E28868AB36294352DBF9FF31BC0D847088830F37B3A411435EE38 EXTCODEHASH DUP14 INVALID 0x4E PUSH5 0x736F6C6343 STOP ADDMOD NOT STOP CALLER "
		},
		"gasEstimates": {
			"creation": {
				"codeDepositCost": "1169600",
				"executionCost": "infinite",
				"totalCost": "infinite"
			},
			"external": {
				"buy(uint256)": "infinite",
				"cancelOrder(uint256)": "infinite",
				"changePrice(uint256,uint256)": "infinite",
				"erc20()": "infinite",
				"erc721()": "infinite",
				"idToOrderIndex(uint256)": "infinite",
				"onERC721Received(address,address,uint256,bytes)": "infinite",
				"orderOfId(uint256)": "infinite",
				"orders(uint256)": "infinite",
				"toUint256(bytes,uint256)": "infinite"
			},
			"internal": {
				"removeOrder(uint256)": "infinite"
			}
		},
		"methodIdentifiers": {
			"buy(uint256)": "d96a094a",
			"cancelOrder(uint256)": "514fcac7",
			"changePrice(uint256,uint256)": "b3de019c",
			"erc20()": "785e9e86",
			"erc721()": "bca6ce64",
			"idToOrderIndex(uint256)": "da694df0",
			"onERC721Received(address,address,uint256,bytes)": "150b7a02",
			"orderOfId(uint256)": "394a9077",
			"orders(uint256)": "a85c38ef",
			"toUint256(bytes,uint256)": "b5cdf924"
		}
	},
	"abi": [
		{
			"inputs": [
				{
					"internalType": "address",
					"name": "_erc20",
					"type": "address"
				},
				{
					"internalType": "address",
					"name": "_erc721",
					"type": "address"
				}
			],
			"stateMutability": "nonpayable",
			"type": "constructor"
		},
		{
			"anonymous": false,
			"inputs": [
				{
					"indexed": false,
					"internalType": "address",
					"name": "seller",
					"type": "address"
				},
				{
					"indexed": false,
					"internalType": "address",
					"name": "buyer",
					"type": "address"
				},
				{
					"indexed": false,
					"internalType": "uint256",
					"name": "tokenId",
					"type": "uint256"
				},
				{
					"indexed": false,
					"internalType": "uint256",
					"name": "price",
					"type": "uint256"
				}
			],
			"name": "Deal",
			"type": "event"
		},
		{
			"anonymous": false,
			"inputs": [
				{
					"indexed": false,
					"internalType": "address",
					"name": "seller",
					"type": "address"
				},
				{
					"indexed": false,
					"internalType": "uint256",
					"name": "tokenId",
					"type": "uint256"
				},
				{
					"indexed": false,
					"internalType": "uint256",
					"name": "price",
					"type": "uint256"
				}
			],
			"name": "NewOrder",
			"type": "event"
		},
		{
			"anonymous": false,
			"inputs": [
				{
					"indexed": false,
					"internalType": "address",
					"name": "seller",
					"type": "address"
				},
				{
					"indexed": false,
					"internalType": "uint256",
					"name": "tokenId",
					"type": "uint256"
				}
			],
			"name": "OrderCancelled",
			"type": "event"
		},
		{
			"anonymous": false,
			"inputs": [
				{
					"indexed": false,
					"internalType": "address",
					"name": "seller",
					"type": "address"
				},
				{
					"indexed": false,
					"internalType": "uint256",
					"name": "tokenId",
					"type": "uint256"
				},
				{
					"indexed": false,
					"internalType": "uint256",
					"name": "previousPrice",
					"type": "uint256"
				},
				{
					"indexed": false,
					"internalType": "uint256",
					"name": "newPrice",
					"type": "uint256"
				}
			],
			"name": "PriceChanged",
			"type": "event"
		},
		{
			"inputs": [
				{
					"internalType": "uint256",
					"name": "_tokenId",
					"type": "uint256"
				}
			],
			"name": "buy",
			"outputs": [],
			"stateMutability": "nonpayable",
			"type": "function"
		},
		{
			"inputs": [
				{
					"internalType": "uint256",
					"name": "_tokenId",
					"type": "uint256"
				}
			],
			"name": "cancelOrder",
			"outputs": [],
			"stateMutability": "nonpayable",
			"type": "function"
		},
		{
			"inputs": [
				{
					"internalType": "uint256",
					"name": "_tokenId",
					"type": "uint256"
				},
				{
					"internalType": "uint256",
					"name": "_newPrice",
					"type": "uint256"
				}
			],
			"name": "changePrice",
			"outputs": [],
			"stateMutability": "nonpayable",
			"type": "function"
		},
		{
			"inputs": [],
			"name": "erc20",
			"outputs": [
				{
					"internalType": "contract IERC20",
					"name": "",
					"type": "address"
				}
			],
			"stateMutability": "view",
			"type": "function"
		},
		{
			"inputs": [],
			"name": "erc721",
			"outputs": [
				{
					"internalType": "contract IERC721",
					"name": "",
					"type": "address"
				}
			],
			"stateMutability": "view",
			"type": "function"
		},
		{
			"inputs": [
				{
					"internalType": "uint256",
					"name": "",
					"type": "uint256"
				}
			],
			"name": "idToOrderIndex",
			"outputs": [
				{
					"internalType": "uint256",
					"name": "",
					"type": "uint256"
				}
			],
			"stateMutability": "view",
			"type": "function"
		},
		{
			"inputs": [
				{
					"internalType": "address",
					"name": "operator",
					"type": "address"
				},
				{
					"internalType": "address",
					"name": "from",
					"type": "address"
				},
				{
					"internalType": "uint256",
					"name": "tokenId",
					"type": "uint256"
				},
				{
					"internalType": "bytes",
					"name": "data",
					"type": "bytes"
				}
			],
			"name": "onERC721Received",
			"outputs": [
				{
					"internalType": "bytes4",
					"name": "",
					"type": "bytes4"
				}
			],
			"stateMutability": "nonpayable",
			"type": "function"
		},
		{
			"inputs": [
				{
					"internalType": "uint256",
					"name": "",
					"type": "uint256"
				}
			],
			"name": "orderOfId",
			"outputs": [
				{
					"internalType": "address",
					"name": "seller",
					"type": "address"
				},
				{
					"internalType": "uint256",
					"name": "tokenId",
					"type": "uint256"
				},
				{
					"internalType": "uint256",
					"name": "price",
					"type": "uint256"
				}
			],
			"stateMutability": "view",
			"type": "function"
		},
		{
			"inputs": [
				{
					"internalType": "uint256",
					"name": "",
					"type": "uint256"
				}
			],
			"name": "orders",
			"outputs": [
				{
					"internalType": "address",
					"name": "seller",
					"type": "address"
				},
				{
					"internalType": "uint256",
					"name": "tokenId",
					"type": "uint256"
				},
				{
					"internalType": "uint256",
					"name": "price",
					"type": "uint256"
				}
			],
			"stateMutability": "view",
			"type": "function"
		},
		{
			"inputs": [
				{
					"internalType": "bytes",
					"name": "_bytes",
					"type": "bytes"
				},
				{
					"internalType": "uint256",
					"name": "_start",
					"type": "uint256"
				}
			],
			"name": "toUint256",
			"outputs": [
				{
					"internalType": "uint256",
					"name": "",
					"type": "uint256"
				}
			],
			"stateMutability": "pure",
			"type": "function"
		}
	]
}